{"abi":[{"type":"constructor","inputs":[{"name":"token_","type":"address","internalType":"contract IVotes"},{"name":"timelock_","type":"address","internalType":"contract TimelockController"},{"name":"votingDelay_","type":"uint48","internalType":"uint48"},{"name":"votingPeriod_","type":"uint32","internalType":"uint32"},{"name":"proposalThreshold_","type":"uint256","internalType":"uint256"},{"name":"quorumNumerator_","type":"uint256","internalType":"uint256"}],"stateMutability":"nonpayable"},{"type":"receive","stateMutability":"payable"},{"type":"function","name":"BALLOT_TYPEHASH","inputs":[],"outputs":[{"name":"","type":"bytes32","internalType":"bytes32"}],"stateMutability":"view"},{"type":"function","name":"CLOCK_MODE","inputs":[],"outputs":[{"name":"","type":"string","internalType":"string"}],"stateMutability":"view"},{"type":"function","name":"COUNTING_MODE","inputs":[],"outputs":[{"name":"","type":"string","internalType":"string"}],"stateMutability":"pure"},{"type":"function","name":"EXTENDED_BALLOT_TYPEHASH","inputs":[],"outputs":[{"name":"","type":"bytes32","internalType":"bytes32"}],"stateMutability":"view"},{"type":"function","name":"cancel","inputs":[{"name":"targets","type":"address[]","internalType":"address[]"},{"name":"values","type":"uint256[]","internalType":"uint256[]"},{"name":"calldatas","type":"bytes[]","internalType":"bytes[]"},{"name":"descriptionHash","type":"bytes32","internalType":"bytes32"}],"outputs":[{"name":"","type":"uint256","internalType":"uint256"}],"stateMutability":"nonpayable"},{"type":"function","name":"castVote","inputs":[{"name":"proposalId","type":"uint256","internalType":"uint256"},{"name":"support","type":"uint8","internalType":"uint8"}],"outputs":[{"name":"","type":"uint256","internalType":"uint256"}],"stateMutability":"nonpayable"},{"type":"function","name":"castVoteBySig","inputs":[{"name":"proposalId","type":"uint256","internalType":"uint256"},{"name":"support","type":"uint8","internalType":"uint8"},{"name":"voter","type":"address","internalType":"address"},{"name":"signature","type":"bytes","internalType":"bytes"}],"outputs":[{"name":"","type":"uint256","internalType":"uint256"}],"stateMutability":"nonpayable"},{"type":"function","name":"castVoteWithReason","inputs":[{"name":"proposalId","type":"uint256","internalType":"uint256"},{"name":"support","type":"uint8","internalType":"uint8"},{"name":"reason","type":"string","internalType":"string"}],"outputs":[{"name":"","type":"uint256","internalType":"uint256"}],"stateMutability":"nonpayable"},{"type":"function","name":"castVoteWithReasonAndParams","inputs":[{"name":"proposalId","type":"uint256","internalType":"uint256"},{"name":"support","type":"uint8","internalType":"uint8"},{"name":"reason","type":"string","internalType":"string"},{"name":"params","type":"bytes","internalType":"bytes"}],"outputs":[{"name":"","type":"uint256","internalType":"uint256"}],"stateMutability":"nonpayable"},{"type":"function","name":"castVoteWithReasonAndParamsBySig","inputs":[{"name":"proposalId","type":"uint256","internalType":"uint256"},{"name":"support","type":"uint8","internalType":"uint8"},{"name":"voter","type":"address","internalType":"address"},{"name":"reason","type":"string","internalType":"string"},{"name":"params","type":"bytes","internalType":"bytes"},{"name":"signature","type":"bytes","internalType":"bytes"}],"outputs":[{"name":"","type":"uint256","internalType":"uint256"}],"stateMutability":"nonpayable"},{"type":"function","name":"clock","inputs":[],"outputs":[{"name":"","type":"uint48","internalType":"uint48"}],"stateMutability":"view"},{"type":"function","name":"eip712Domain","inputs":[],"outputs":[{"name":"fields","type":"bytes1","internalType":"bytes1"},{"name":"name","type":"string","internalType":"string"},{"name":"version","type":"string","internalType":"string"},{"name":"chainId","type":"uint256","internalType":"uint256"},{"name":"verifyingContract","type":"address","internalType":"address"},{"name":"salt","type":"bytes32","internalType":"bytes32"},{"name":"extensions","type":"uint256[]","internalType":"uint256[]"}],"stateMutability":"view"},{"type":"function","name":"execute","inputs":[{"name":"targets","type":"address[]","internalType":"address[]"},{"name":"values","type":"uint256[]","internalType":"uint256[]"},{"name":"calldatas","type":"bytes[]","internalType":"bytes[]"},{"name":"descriptionHash","type":"bytes32","internalType":"bytes32"}],"outputs":[{"name":"","type":"uint256","internalType":"uint256"}],"stateMutability":"payable"},{"type":"function","name":"getVotes","inputs":[{"name":"account","type":"address","internalType":"address"},{"name":"timepoint","type":"uint256","internalType":"uint256"}],"outputs":[{"name":"","type":"uint256","internalType":"uint256"}],"stateMutability":"view"},{"type":"function","name":"getVotesWithParams","inputs":[{"name":"account","type":"address","internalType":"address"},{"name":"timepoint","type":"uint256","internalType":"uint256"},{"name":"params","type":"bytes","internalType":"bytes"}],"outputs":[{"name":"","type":"uint256","internalType":"uint256"}],"stateMutability":"view"},{"type":"function","name":"hasVoted","inputs":[{"name":"proposalId","type":"uint256","internalType":"uint256"},{"name":"account","type":"address","internalType":"address"}],"outputs":[{"name":"","type":"bool","internalType":"bool"}],"stateMutability":"view"},{"type":"function","name":"hashProposal","inputs":[{"name":"targets","type":"address[]","internalType":"address[]"},{"name":"values","type":"uint256[]","internalType":"uint256[]"},{"name":"calldatas","type":"bytes[]","internalType":"bytes[]"},{"name":"descriptionHash","type":"bytes32","internalType":"bytes32"}],"outputs":[{"name":"","type":"uint256","internalType":"uint256"}],"stateMutability":"pure"},{"type":"function","name":"name","inputs":[],"outputs":[{"name":"","type":"string","internalType":"string"}],"stateMutability":"view"},{"type":"function","name":"nonces","inputs":[{"name":"owner","type":"address","internalType":"address"}],"outputs":[{"name":"","type":"uint256","internalType":"uint256"}],"stateMutability":"view"},{"type":"function","name":"onERC1155BatchReceived","inputs":[{"name":"","type":"address","internalType":"address"},{"name":"","type":"address","internalType":"address"},{"name":"","type":"uint256[]","internalType":"uint256[]"},{"name":"","type":"uint256[]","internalType":"uint256[]"},{"name":"","type":"bytes","internalType":"bytes"}],"outputs":[{"name":"","type":"bytes4","internalType":"bytes4"}],"stateMutability":"nonpayable"},{"type":"function","name":"onERC1155Received","inputs":[{"name":"","type":"address","internalType":"address"},{"name":"","type":"address","internalType":"address"},{"name":"","type":"uint256","internalType":"uint256"},{"name":"","type":"uint256","internalType":"uint256"},{"name":"","type":"bytes","internalType":"bytes"}],"outputs":[{"name":"","type":"bytes4","internalType":"bytes4"}],"stateMutability":"nonpayable"},{"type":"function","name":"onERC721Received","inputs":[{"name":"","type":"address","internalType":"address"},{"name":"","type":"address","internalType":"address"},{"name":"","type":"uint256","internalType":"uint256"},{"name":"","type":"bytes","internalType":"bytes"}],"outputs":[{"name":"","type":"bytes4","internalType":"bytes4"}],"stateMutability":"nonpayable"},{"type":"function","name":"proposalDeadline","inputs":[{"name":"proposalId","type":"uint256","internalType":"uint256"}],"outputs":[{"name":"","type":"uint256","internalType":"uint256"}],"stateMutability":"view"},{"type":"function","name":"proposalEta","inputs":[{"name":"proposalId","type":"uint256","internalType":"uint256"}],"outputs":[{"name":"","type":"uint256","internalType":"uint256"}],"stateMutability":"view"},{"type":"function","name":"proposalNeedsQueuing","inputs":[{"name":"proposalId","type":"uint256","internalType":"uint256"}],"outputs":[{"name":"","type":"bool","internalType":"bool"}],"stateMutability":"view"},{"type":"function","name":"proposalProposer","inputs":[{"name":"proposalId","type":"uint256","internalType":"uint256"}],"outputs":[{"name":"","type":"address","internalType":"address"}],"stateMutability":"view"},{"type":"function","name":"proposalSnapshot","inputs":[{"name":"proposalId","type":"uint256","internalType":"uint256"}],"outputs":[{"name":"","type":"uint256","internalType":"uint256"}],"stateMutability":"view"},{"type":"function","name":"proposalThreshold","inputs":[],"outputs":[{"name":"","type":"uint256","internalType":"uint256"}],"stateMutability":"view"},{"type":"function","name":"proposalVotes","inputs":[{"name":"proposalId","type":"uint256","internalType":"uint256"}],"outputs":[{"name":"againstVotes","type":"uint256","internalType":"uint256"},{"name":"forVotes","type":"uint256","internalType":"uint256"},{"name":"abstainVotes","type":"uint256","internalType":"uint256"}],"stateMutability":"view"},{"type":"function","name":"propose","inputs":[{"name":"targets","type":"address[]","internalType":"address[]"},{"name":"values","type":"uint256[]","internalType":"uint256[]"},{"name":"calldatas","type":"bytes[]","internalType":"bytes[]"},{"name":"description","type":"string","internalType":"string"}],"outputs":[{"name":"","type":"uint256","internalType":"uint256"}],"stateMutability":"nonpayable"},{"type":"function","name":"queue","inputs":[{"name":"targets","type":"address[]","internalType":"address[]"},{"name":"values","type":"uint256[]","internalType":"uint256[]"},{"name":"calldatas","type":"bytes[]","internalType":"bytes[]"},{"name":"descriptionHash","type":"bytes32","internalType":"bytes32"}],"outputs":[{"name":"","type":"uint256","internalType":"uint256"}],"stateMutability":"nonpayable"},{"type":"function","name":"quorum","inputs":[{"name":"timepoint","type":"uint256","internalType":"uint256"}],"outputs":[{"name":"","type":"uint256","internalType":"uint256"}],"stateMutability":"view"},{"type":"function","name":"quorumDenominator","inputs":[],"outputs":[{"name":"","type":"uint256","internalType":"uint256"}],"stateMutability":"view"},{"type":"function","name":"quorumNumerator","inputs":[{"name":"timepoint","type":"uint256","internalType":"uint256"}],"outputs":[{"name":"","type":"uint256","internalType":"uint256"}],"stateMutability":"view"},{"type":"function","name":"quorumNumerator","inputs":[],"outputs":[{"name":"","type":"uint256","internalType":"uint256"}],"stateMutability":"view"},{"type":"function","name":"relay","inputs":[{"name":"target","type":"address","internalType":"address"},{"name":"value","type":"uint256","internalType":"uint256"},{"name":"data","type":"bytes","internalType":"bytes"}],"outputs":[],"stateMutability":"payable"},{"type":"function","name":"setProposalThreshold","inputs":[{"name":"newProposalThreshold","type":"uint256","internalType":"uint256"}],"outputs":[],"stateMutability":"nonpayable"},{"type":"function","name":"setVotingDelay","inputs":[{"name":"newVotingDelay","type":"uint48","internalType":"uint48"}],"outputs":[],"stateMutability":"nonpayable"},{"type":"function","name":"setVotingPeriod","inputs":[{"name":"newVotingPeriod","type":"uint32","internalType":"uint32"}],"outputs":[],"stateMutability":"nonpayable"},{"type":"function","name":"state","inputs":[{"name":"proposalId","type":"uint256","internalType":"uint256"}],"outputs":[{"name":"","type":"uint8","internalType":"enum IGovernor.ProposalState"}],"stateMutability":"view"},{"type":"function","name":"supportsInterface","inputs":[{"name":"interfaceId","type":"bytes4","internalType":"bytes4"}],"outputs":[{"name":"","type":"bool","internalType":"bool"}],"stateMutability":"view"},{"type":"function","name":"timelock","inputs":[],"outputs":[{"name":"","type":"address","internalType":"address"}],"stateMutability":"view"},{"type":"function","name":"token","inputs":[],"outputs":[{"name":"","type":"address","internalType":"contract IERC5805"}],"stateMutability":"view"},{"type":"function","name":"updateQuorumNumerator","inputs":[{"name":"newQuorumNumerator","type":"uint256","internalType":"uint256"}],"outputs":[],"stateMutability":"nonpayable"},{"type":"function","name":"updateTimelock","inputs":[{"name":"newTimelock","type":"address","internalType":"contract TimelockController"}],"outputs":[],"stateMutability":"nonpayable"},{"type":"function","name":"version","inputs":[],"outputs":[{"name":"","type":"string","internalType":"string"}],"stateMutability":"view"},{"type":"function","name":"votingDelay","inputs":[],"outputs":[{"name":"","type":"uint256","internalType":"uint256"}],"stateMutability":"view"},{"type":"function","name":"votingPeriod","inputs":[],"outputs":[{"name":"","type":"uint256","internalType":"uint256"}],"stateMutability":"view"},{"type":"event","name":"EIP712DomainChanged","inputs":[],"anonymous":false},{"type":"event","name":"ProposalCanceled","inputs":[{"name":"proposalId","type":"uint256","indexed":false,"internalType":"uint256"}],"anonymous":false},{"type":"event","name":"ProposalCreated","inputs":[{"name":"proposalId","type":"uint256","indexed":false,"internalType":"uint256"},{"name":"proposer","type":"address","indexed":false,"internalType":"address"},{"name":"targets","type":"address[]","indexed":false,"internalType":"address[]"},{"name":"values","type":"uint256[]","indexed":false,"internalType":"uint256[]"},{"name":"signatures","type":"string[]","indexed":false,"internalType":"string[]"},{"name":"calldatas","type":"bytes[]","indexed":false,"internalType":"bytes[]"},{"name":"voteStart","type":"uint256","indexed":false,"internalType":"uint256"},{"name":"voteEnd","type":"uint256","indexed":false,"internalType":"uint256"},{"name":"description","type":"string","indexed":false,"internalType":"string"}],"anonymous":false},{"type":"event","name":"ProposalExecuted","inputs":[{"name":"proposalId","type":"uint256","indexed":false,"internalType":"uint256"}],"anonymous":false},{"type":"event","name":"ProposalQueued","inputs":[{"name":"proposalId","type":"uint256","indexed":false,"internalType":"uint256"},{"name":"etaSeconds","type":"uint256","indexed":false,"internalType":"uint256"}],"anonymous":false},{"type":"event","name":"ProposalThresholdSet","inputs":[{"name":"oldProposalThreshold","type":"uint256","indexed":false,"internalType":"uint256"},{"name":"newProposalThreshold","type":"uint256","indexed":false,"internalType":"uint256"}],"anonymous":false},{"type":"event","name":"QuorumNumeratorUpdated","inputs":[{"name":"oldQuorumNumerator","type":"uint256","indexed":false,"internalType":"uint256"},{"name":"newQuorumNumerator","type":"uint256","indexed":false,"internalType":"uint256"}],"anonymous":false},{"type":"event","name":"TimelockChange","inputs":[{"name":"oldTimelock","type":"address","indexed":false,"internalType":"address"},{"name":"newTimelock","type":"address","indexed":false,"internalType":"address"}],"anonymous":false},{"type":"event","name":"VoteCast","inputs":[{"name":"voter","type":"address","indexed":true,"internalType":"address"},{"name":"proposalId","type":"uint256","indexed":false,"internalType":"uint256"},{"name":"support","type":"uint8","indexed":false,"internalType":"uint8"},{"name":"weight","type":"uint256","indexed":false,"internalType":"uint256"},{"name":"reason","type":"string","indexed":false,"internalType":"string"}],"anonymous":false},{"type":"event","name":"VoteCastWithParams","inputs":[{"name":"voter","type":"address","indexed":true,"internalType":"address"},{"name":"proposalId","type":"uint256","indexed":false,"internalType":"uint256"},{"name":"support","type":"uint8","indexed":false,"internalType":"uint8"},{"name":"weight","type":"uint256","indexed":false,"internalType":"uint256"},{"name":"reason","type":"string","indexed":false,"internalType":"string"},{"name":"params","type":"bytes","indexed":false,"internalType":"bytes"}],"anonymous":false},{"type":"event","name":"VotingDelaySet","inputs":[{"name":"oldVotingDelay","type":"uint256","indexed":false,"internalType":"uint256"},{"name":"newVotingDelay","type":"uint256","indexed":false,"internalType":"uint256"}],"anonymous":false},{"type":"event","name":"VotingPeriodSet","inputs":[{"name":"oldVotingPeriod","type":"uint256","indexed":false,"internalType":"uint256"},{"name":"newVotingPeriod","type":"uint256","indexed":false,"internalType":"uint256"}],"anonymous":false},{"type":"error","name":"CheckpointUnorderedInsertion","inputs":[]},{"type":"error","name":"FailedInnerCall","inputs":[]},{"type":"error","name":"GovernorAlreadyCastVote","inputs":[{"name":"voter","type":"address","internalType":"address"}]},{"type":"error","name":"GovernorAlreadyQueuedProposal","inputs":[{"name":"proposalId","type":"uint256","internalType":"uint256"}]},{"type":"error","name":"GovernorDisabledDeposit","inputs":[]},{"type":"error","name":"GovernorInsufficientProposerVotes","inputs":[{"name":"proposer","type":"address","internalType":"address"},{"name":"votes","type":"uint256","internalType":"uint256"},{"name":"threshold","type":"uint256","internalType":"uint256"}]},{"type":"error","name":"GovernorInvalidProposalLength","inputs":[{"name":"targets","type":"uint256","internalType":"uint256"},{"name":"calldatas","type":"uint256","internalType":"uint256"},{"name":"values","type":"uint256","internalType":"uint256"}]},{"type":"error","name":"GovernorInvalidQuorumFraction","inputs":[{"name":"quorumNumerator","type":"uint256","internalType":"uint256"},{"name":"quorumDenominator","type":"uint256","internalType":"uint256"}]},{"type":"error","name":"GovernorInvalidSignature","inputs":[{"name":"voter","type":"address","internalType":"address"}]},{"type":"error","name":"GovernorInvalidVoteType","inputs":[]},{"type":"error","name":"GovernorInvalidVotingPeriod","inputs":[{"name":"votingPeriod","type":"uint256","internalType":"uint256"}]},{"type":"error","name":"GovernorNonexistentProposal","inputs":[{"name":"proposalId","type":"uint256","internalType":"uint256"}]},{"type":"error","name":"GovernorNotQueuedProposal","inputs":[{"name":"proposalId","type":"uint256","internalType":"uint256"}]},{"type":"error","name":"GovernorOnlyExecutor","inputs":[{"name":"account","type":"address","internalType":"address"}]},{"type":"error","name":"GovernorOnlyProposer","inputs":[{"name":"account","type":"address","internalType":"address"}]},{"type":"error","name":"GovernorQueueNotImplemented","inputs":[]},{"type":"error","name":"GovernorRestrictedProposer","inputs":[{"name":"proposer","type":"address","internalType":"address"}]},{"type":"error","name":"GovernorUnexpectedProposalState","inputs":[{"name":"proposalId","type":"uint256","internalType":"uint256"},{"name":"current","type":"uint8","internalType":"enum IGovernor.ProposalState"},{"name":"expectedStates","type":"bytes32","internalType":"bytes32"}]},{"type":"error","name":"InvalidAccountNonce","inputs":[{"name":"account","type":"address","internalType":"address"},{"name":"currentNonce","type":"uint256","internalType":"uint256"}]},{"type":"error","name":"InvalidShortString","inputs":[]},{"type":"error","name":"QueueEmpty","inputs":[]},{"type":"error","name":"QueueFull","inputs":[]},{"type":"error","name":"SafeCastOverflowedUintDowncast","inputs":[{"name":"bits","type":"uint8","internalType":"uint8"},{"name":"value","type":"uint256","internalType":"uint256"}]},{"type":"error","name":"StringTooLong","inputs":[{"name":"str","type":"string","internalType":"string"}]}],"bytecode":{"object":"0x61018060405234620000ba5762000026620000196200016b565b9493909392919262000213565b604051613b15908162000d0b823960805181613195015260a0518161324a015260c0518161315f015260e051816131e40152610100518161320a015261012051816113730152610140518161139f0152610160518181816115f001528181611a6601528181611b9901528181611c3a01528181611d380152818161208c0152818161215301528181612cd1015261399e0152f35b5f80fd5b634e487b7160e01b5f52604160045260245ffd5b604081019081106001600160401b03821117620000ee57604052565b620000be565b60c081019081106001600160401b03821117620000ee57604052565b601f909101601f19168101906001600160401b03821190821017620000ee57604052565b604051906200014382620000d2565b565b6001600160a01b03811603620000ba57565b519065ffffffffffff82168203620000ba57565b620048609060c0823803928360405194859262000189828562000110565b833981010312620000ba57815190620001a28262000145565b602083015192620001b38462000145565b620001c16040820162000157565b9260608201519263ffffffff84168403620000ba5760a0608084015193015191959493929190565b60405190620001f882620000d2565b60128252565b604051906200020d82620000d2565b60018252565b909362000314906200030e620003279562000308620001439996620003026200023b620001e9565b6020810171283932b234b1ba34b7b723b7bb32b93737b960711b815262000261620001fe565b906020820190603160f81b8252620002798462000782565b61012052620002888362000888565b6101405283519020918260e05251902080610100524660a0526040519060208201927f8b73c3c69bb8fe3d512ecc4cf759cc79239f7b179b0ffacaa9a75d522b39400f8452604083015260608201524660808201523060a082015260a08152620002f281620000f4565b5190206080523060c0526200046a565b62000679565b620006c6565b62000749565b6001600160a01b031661016052620005af565b62000560565b90600182811c921680156200035d575b60208310146200034957565b634e487b7160e01b5f52602260045260245ffd5b91607f16916200033d565b601f811162000375575050565b60035f5260205f20906020601f840160051c83019310620003b2575b601f0160051c01905b818110620003a6575050565b5f81556001016200039a565b909150819062000391565b601f8111620003ca575050565b5f805260205f20906020601f840160051c8301931062000406575b601f0160051c01905b818110620003fa575050565b5f8155600101620003ee565b9091508190620003e5565b90601f82116200041f575050565b60019160015f5260205f20906020601f840160051c830193106200045f575b601f0160051c01905b8181106200045457505050565b5f8155820162000447565b90915081906200043e565b80519091906001600160401b038111620000ee576200049681620004906003546200032d565b62000368565b602080601f8311600114620004db57508190620004ca93945f92620004cf575b50508160011b915f199060031b1c19161790565b600355565b015190505f80620004b6565b60035f52601f198316949091907fc2575a0e9e593c00f959f8c92f12db2869c3395a3b0502d05e2516446f71f85b925f905b878210620005475750508360019596106200052e575b505050811b01600355565b01515f1960f88460031b161c191690555f808062000523565b806001859682949686015181550195019301906200050d565b600b547f08f74ea46ef7894f65eabfb5e6e695de773a000b47c529ab559178069b226401604060018060a01b038094169381519084168152846020820152a16001600160a01b03191617600b55565b606481116200065857600a54908162000614575f805160206200484083398151915291505f5b620005f5620005e362000990565b620005ee8462000a3e565b9062000bca565b5050604080516001600160d01b039290921682526020820192909252a1565b5f19828181011162000644575f805160206200484083398151915292600a5f5260205f2001015460301c620005d5565b634e487b7160e01b5f52601160045260245ffd5b60405163243e544560e01b8152600481019190915260646024820152604490fd5b6008547fc565b045403dc03c2eea82b81a0465edad9e2e7fc4d97e11421c209da93d7a93604065ffffffffffff81519481851686521693846020820152a165ffffffffffff191617600855565b63ffffffff80821691821562000731577f7e3f7f0708a84de9203036abaa450dccc85ad5ff52f78c170f3edb55cf5e8828604069ffffffff00000000000093600854958251918760301c1682526020820152a160301b169069ffffffff000000000000191617600855565b60405163f1cfbf0560e01b81525f6004820152602490fd5b60075460408051918252602082018390527fccb45da8d5717e6c4544694297c4ba5cf151d455c9bb0ed4fc7a38411bc0546191a1600755565b90815160208082105f14620007a2575050906200079f9062000a95565b90565b6001600160401b038211620000ee57620007c882620007c25f546200032d565b620003bd565b602090601f83116001146200080257508190620007fb93945f92620004cf5750508160011b915f199060031b1c19161790565b5f5560ff90565b5f8052601f198316949091907f290decd9548b62a8d60345a988386fc84ba6bc95484008f6362f93160ef3e563925f905b8782106200086f57505083600195961062000856575b505050811b015f5560ff90565b01515f1960f88460031b161c191690555f808062000849565b8060018596829496860151815501950193019062000833565b908151602090602081105f14620008a7575050906200079f9062000a95565b6001600160401b038111620000ee57600191620008d082620008ca85546200032d565b62000411565b602090601f83116001146200090b57508190620009049394955f92620004cf5750508160011b915f199060031b1c19161790565b905560ff90565b60015f52601f198316959091907fb10e2d527612073b26eecdfd717e6a320cf44b4afac2b0732d9fcbe2b7fa0cf6925f905b8882106200097857505083859697106200095f575b505050811b01905560ff90565b01515f1960f88460031b161c191690555f808062000952565b8087859682949686015181550195019301906200093d565b610160516040516324776b7d60e21b815290602090829060049082906001600160a01b03165afa5f9181620009fa575b506200079f575065ffffffffffff804311620009db57431690565b6040516306dfcc6560e41b815260306004820152436024820152604490fd5b9091506020813d60201162000a35575b8162000a196020938362000110565b81010312620000ba5762000a2d9062000157565b905f620009c0565b3d915062000a0a565b6001600160d01b039081811162000a53571690565b604490604051906306dfcc6560e41b825260d060048301526024820152fd5b60208151910151906020811062000a87575090565b5f199060200360031b1b1690565b601f81511162000ab05762000aaa8162000a72565b90511790565b6040519063305a27a960e01b82528160208060048301528251908160248401525f935b82851062000af6575050604492505f838284010152601f80199101168101030190fd5b848101820151868601604401529381019385935062000ad3565b5f198101919082116200064457565b600a549068010000000000000000821015620000ee576001820180600a5582101562000b7f57600a5f5280516020919091015160301b65ffffffffffff191665ffffffffffff91909116175f805160206200482083398151915290910155565b634e487b7160e01b5f52603260045260245ffd5b604080519192919081016001600160401b03811182821017620000ee57604052915465ffffffffffff8116835260301c6020830152565b600a5491929190811562000cdc5762000c0862000c0262000beb8462000b10565b600a5f525f80516020620048208339815191520190565b62000b93565b805165ffffffffffff838116949116841062000cca578560209362000c889562000c4762000c3c865165ffffffffffff1690565b65ffffffffffff1690565b0362000c8c575062000c6162000beb62000c7a9362000b10565b9065ffffffffffff82549181199060301b169116179055565b01516001600160d01b031690565b9190565b905062000cc4915062000cb062000ca262000134565b65ffffffffffff9092168252565b6001600160d01b0387168185015262000b1f565b62000c7a565b604051632520601d60e01b8152600490fd5b62000d05915062000cf062000ca262000134565b6001600160d01b038416602082015262000b1f565b5f919056fe60806040526004361015610022575b3615610018575f80fd5b610020612349565b005b5f3560e01c806301ffc9a71461032157806302a251a31461031c57806306f3f9e61461031757806306fdde0314610312578063143489d01461030d578063150b7a0214610308578063160cbed7146103035780632656227d146102fe5780632d63f693146102f95780632fe3e261146102f45780633932abb1146102ef5780633e4f49e6146102ea57806343859632146102e5578063452115d6146102e05780634bf5d7e9146102db578063544ffc9c146102d657806354fd4d50146102d157806356781388146102cc5780635b8d0e0d146102c75780635f398a14146102c257806360c4247f146102bd57806379051887146102b85780637b3c71d3146102b35780637d5e81e2146102ae5780637ecebe00146102a957806384b0196e146102a45780638ff262e31461029f57806391ddadf41461029a57806397c3d334146102955780639a802a6d14610290578063a7713a701461028b578063a890c91014610286578063a9a9529414610281578063ab58fb8e1461027c578063b58131b014610277578063bc197c8114610272578063c01f9e371461026d578063c28bc2fa14610268578063c59057e414610263578063d33219b41461025e578063dd4e2ba514610259578063deaaa7cc14610254578063e540d01d1461024f578063eb9019d41461024a578063ece40cc114610245578063f23a6e6114610240578063f8ce560a1461023b5763fc0c546a0361000e57611c25565b611b69565b611afe565b611aa9565b611a0b565b611964565b61192a565b6118cd565b6118a5565b611889565b61181e565b611800565b611760565b611743565b61170e565b6116f2565b61167e565b611653565b611582565b611567565b61153d565b611422565b61135b565b6112ed565b611254565b6111ff565b61118d565b61115f565b6110f0565b611068565b610fed565b610f9c565b610f51565b610f22565b610e65565b610e10565b610de3565b610d8e565b610d54565b610d1f565b610bbf565b61097c565b61073d565b6105c5565b6104e5565b6103c3565b61039d565b3461038f57602036600319011261038f5760043563ffffffff60e01b811680910361038f576020906332a2ad4360e11b811490811561037e575b811561036d575b506040519015158152f35b6301ffc9a760e01b1490505f610362565b630271189760e51b8114915061035b565b5f80fd5b5f91031261038f57565b3461038f575f36600319011261038f57602063ffffffff60085460301c16604051908152f35b3461038f57602036600319011261038f576004356103df61235d565b6064811161046c576001600160d01b0390816103f9612d1d565b1661040261213e565b9280831161044c577f0553476bf02ef2726e8ce5ced78d63e26e602e4a2257b1f559418e24b46339979361043891841690613856565b5050604080519182526020820192909252a1005b6040516306dfcc6560e41b815260d0600482015260248101849052604490fd5b6044906040519063243e544560e01b8252600482015260646024820152fd5b5f5b83811061049c5750505f910152565b818101518382015260200161048d565b906020916104c58151809281855285808601910161048b565b601f01601f1916010190565b9060206104e29281815201906104ac565b90565b3461038f575f36600319011261038f576040515f60035461050581611c69565b8084529060209060019081811690811561059b5750600114610542575b61053e85610532818703826106a1565b604051918291826104d1565b0390f35b60035f90815293507fc2575a0e9e593c00f959f8c92f12db2869c3395a3b0502d05e2516446f71f85b5b838510610588575050505081016020016105328261053e610522565b805486860184015293820193810161056c565b86955061053e9693506020925061053294915060ff191682840152151560051b8201019293610522565b3461038f57602036600319011261038f576004355f526004602052602060018060a01b0360405f205416604051908152f35b6001600160a01b0381160361038f57565b634e487b7160e01b5f52604160045260245ffd5b6001600160401b03811161062f57604052565b610608565b604081019081106001600160401b0382111761062f57604052565b602081019081106001600160401b0382111761062f57604052565b60c081019081106001600160401b0382111761062f57604052565b61010081019081106001600160401b0382111761062f57604052565b90601f801991011681019081106001600160401b0382111761062f57604052565b604051906106cf82610634565b565b6001600160401b03811161062f57601f01601f191660200190565b9291926106f8826106d1565b9161070660405193846106a1565b82948184528183011161038f578281602093845f960137010152565b9080601f8301121561038f578160206104e2933591016106ec565b3461038f57608036600319011261038f576107596004356105f7565b6107646024356105f7565b6064356001600160401b03811161038f57610783903690600401610722565b50600b546001600160a01b031630036107a857604051630a85bd0160e11b8152602090f35b604051637485328f60e11b8152600490fd5b6001600160401b03811161062f5760051b60200190565b9080601f8301121561038f5760209082356107eb816107ba565b936107f960405195866106a1565b81855260208086019260051b82010192831161038f57602001905b828210610822575050505090565b8380918335610830816105f7565b815201910190610814565b9080601f8301121561038f576020908235610855816107ba565b9361086360405195866106a1565b81855260208086019260051b82010192831161038f57602001905b82821061088c575050505090565b8135815290830190830161087e565b81601f8201121561038f578035916020916108b5846107ba565b936108c360405195866106a1565b808552838086019160051b8301019280841161038f57848301915b8483106108ee5750505050505090565b82356001600160401b03811161038f57869161090f84848094890101610722565b8152019201916108de565b608060031982011261038f576001600160401b039160043583811161038f5782610946916004016107d1565b9260243581811161038f578361095e9160040161083b565b9260443591821161038f576109759160040161089b565b9060643590565b3461038f5761098a3661091a565b6109988183858796976122e5565b926109a2846123ee565b50600b546109c0906001600160a01b03165b6001600160a01b031690565b9260409586519363793d064960e11b855260209081866004818a5afa958615610b6e575f96610ba0575b506bffffffffffffffffffffffff193060601b161895818951809263b1c5f42760e01b82528180610a218c8a8a8d60048601612dfc565b03915afa918215610b6e575f92610b73575b5050610a47875f52600c60205260405f2090565b55600b54610a5d906001600160a01b03166109b4565b90813b1561038f575f8094610a88878b51998a97889687956308f2a0bb60e41b875260048701612e41565b03925af1908115610b6e57610aac92610aa792610b55575b50426128e2565b6128a2565b65ffffffffffff811615610b4457917f9a2e42fd6722813d69113e7d0079d3d940171428df7373df9c7f7617cfda2892610b3384610b1561053e966001610afb885f52600460205260405f2090565b019065ffffffffffff1665ffffffffffff19825416179055565b835185815265ffffffffffff90911660208201529081906040820190565b0390a1519081529081906020820190565b8251634844252360e11b8152600490fd5b80610b62610b689261061c565b80610393565b5f610aa0565b611cce565b610b929250803d10610b99575b610b8a81836106a1565b810190612c91565b5f80610a33565b503d610b80565b610bb8919650823d8411610b9957610b8a81836106a1565b945f6109ea565b610bc83661091a565b610bd68183858795976122e5565b92610be084612440565b50610c09610bf6855f52600460205260405f2090565b805460ff60f01b1916600160f01b179055565b600b546001600160a01b03939084163003610cba575b94610c2f929161053e9686612e8e565b600b543091166001600160a01b0316141580610c95575b610c87575b6040518181527f712ae1383f79ac853f8d882153778e0260ef8f03b504e2866e0593e04d2b291f90602090a16040519081529081906020820190565b610c905f600555565b610c4b565b50610cb5610cb16005546001600160801b0381169060801c1490565b1590565b610c46565b929093915f5b8451811015610d155760019030610cea6109b4610cdd848a611cb5565b516001600160a01b031690565b14610cf6575b01610cc0565b610d10610d03828a611cb5565b5160208151910120612492565b610cf0565b5091939092610c1f565b3461038f57602036600319011261038f576004355f526004602052602065ffffffffffff60405f205460a01c16604051908152f35b3461038f575f36600319011261038f5760206040517f3e83946653575f9a39005e1545185629e92736b7528ab20ca3816f315424a8118152f35b3461038f575f36600319011261038f57602065ffffffffffff60085416604051908152f35b634e487b7160e01b5f52602160045260245ffd5b60081115610dd157565b610db3565b906008821015610dd15752565b3461038f57602036600319011261038f576020610e01600435612502565b610e0e6040518092610dd6565bf35b3461038f57604036600319011261038f57602060ff610e59602435610e34816105f7565b6004355f5260098452600360405f20019060018060a01b03165f5260205260405f2090565b54166040519015158152f35b3461038f57610e733661091a565b90610e828282858796976122e5565b610e8b81612502565b6008811015610dd15760018060ff83161b1615610ef557505f908152600460205260409020546001600160a01b03163303610edd5761053e93610ecd93613021565b6040519081529081906020820190565b60405163233d98e360e01b8152336004820152602490fd5b90610f19606492604051926331b75e4d60e01b845260048401526024830190610dd6565b60016044820152fd5b3461038f575f36600319011261038f5761053e610f3d611d24565b6040519182916020835260208301906104ac565b3461038f57602036600319011261038f576004355f52600960205260405f20805461053e60026001840154930154604051938493846040919493926060820195825260208201520152565b3461038f575f36600319011261038f5761053e604051610fbb81610634565b60018152603160f81b60208201526040519182916020835260208301906104ac565b6024359060ff8216820361038f57565b3461038f57604036600319011261038f57602061103361100b610fdd565b6040516110178161064f565b5f8152604051916110278361064f565b5f835233600435612788565b604051908152f35b9181601f8401121561038f578235916001600160401b03831161038f576020838186019501011161038f57565b3461038f5760c036600319011261038f57611081610fdd565b6044359061108e826105f7565b6001600160401b039060643582811161038f576110af90369060040161103b565b60843584811161038f576110c7903690600401610722565b9160a43594851161038f5761053e956110e7610ecd963690600401610722565b94600435611df2565b3461038f57608036600319011261038f57611109610fdd565b6001600160401b039060443582811161038f5761112a90369060040161103b565b909160643593841161038f576111556110339361114d6020963690600401610722565b9336916106ec565b9033600435612788565b3461038f57602036600319011261038f576020611033600435611f17565b65ffffffffffff81160361038f57565b3461038f57602036600319011261038f576004356111aa8161117d565b6111b261235d565b6008547fc565b045403dc03c2eea82b81a0465edad9e2e7fc4d97e11421c209da93d7a93604065ffffffffffff81519481851686521693846020820152a165ffffffffffff191617600855005b3461038f57606036600319011261038f57611218610fdd565b6044356001600160401b03811161038f5760209161124761124061103393369060040161103b565b36916106ec565b604051916110278361064f565b3461038f57608036600319011261038f576001600160401b0360043581811161038f576112859036906004016107d1565b9060243581811161038f5761129e90369060040161083b565b9160443582811161038f576112b790369060040161089b565b60643592831161038f573660238401121561038f5761053e936112e7610ecd9436906024816004013591016106ec565b9261202b565b3461038f57602036600319011261038f5760043561130a816105f7565b60018060a01b03165f526002602052602060405f2054604051908152f35b9081518082526020808093019301915f5b828110611347575050505090565b835185529381019392810192600101611339565b3461038f575f36600319011261038f576113f46113977f00000000000000000000000000000000000000000000000000000000000000006135e2565b61053e6113c37f00000000000000000000000000000000000000000000000000000000000000006136df565b611402604051916113d38361064f565b5f8352604051958695600f60f81b875260e0602088015260e08701906104ac565b9085820360408701526104ac565b904660608501523060808501525f60a085015283820360c0850152611328565b3461038f57608036600319011261038f5760043561143e610fdd565b906044359161144c836105f7565b6064356001600160401b03811161038f57610cb16114716114fd923690600401610722565b6001600160a01b0386165f9081526002602052604090208054600181019091556114f79060405160208101917ff2aad550cf55f045cb27e9c559f9889fdfb6e6cdaa032301d6ea397784ae51d7835288604083015260ff8816606083015260018060a01b038a16608083015260a082015260a081526114ef8161066a565b51902061262b565b86612651565b6115185790610ecd9161053e93611512611cd9565b92612610565b6040516394ab6c0760e01b81526001600160a01b0384166004820152602490fd5b0390fd5b3461038f575f36600319011261038f57602061155761213e565b65ffffffffffff60405191168152f35b3461038f575f36600319011261038f57602060405160648152f35b3461038f57606036600319011261038f5760043561159f816105f7565b6044356001600160401b03811161038f576044916115c36020923690600401610722565b50604051630748d63560e31b81526001600160a01b039182166004820152602480359082015292839182907f0000000000000000000000000000000000000000000000000000000000000000165afa8015610b6e5761053e915f91611634575b506040519081529081906020820190565b61164d915060203d602011610b9957610b8a81836106a1565b5f611623565b3461038f575f36600319011261038f5760206001600160d01b03611675612d1d565b16604051908152f35b3461038f57602036600319011261038f5760043561169b816105f7565b6116a361235d565b600b547f08f74ea46ef7894f65eabfb5e6e695de773a000b47c529ab559178069b226401604060018060a01b038094169381519084168152846020820152a16001600160a01b03191617600b55005b3461038f57602036600319011261038f57602060405160018152f35b3461038f57602036600319011261038f576004355f526004602052602065ffffffffffff600160405f20015416604051908152f35b3461038f575f36600319011261038f576020600754604051908152f35b3461038f5760a036600319011261038f5761177c6004356105f7565b6117876024356105f7565b6001600160401b0360443581811161038f576117a790369060040161083b565b5060643581811161038f576117c090369060040161083b565b5060843590811161038f576117d9903690600401610722565b5061053e6117e56121d1565b6040516001600160e01b031990911681529081906020820190565b3461038f57602036600319011261038f5760206110336004356121ee565b606036600319011261038f57600435611836816105f7565b604435906001600160401b03821161038f575f809161185c61002094369060040161103b565b9061186561235d565b81604051928392833781018481520391602435905af161188361221e565b90612d61565b3461038f57602061103361189c3661091a565b929190916122e5565b3461038f575f36600319011261038f57600b546040516001600160a01b039091168152602090f35b3461038f575f36600319011261038f5761053e6040516118ec81610634565b602081527f737570706f72743d627261766f2671756f72756d3d666f722c6162737461696e60208201526040519182916020835260208301906104ac565b3461038f575f36600319011261038f5760206040517ff2aad550cf55f045cb27e9c559f9889fdfb6e6cdaa032301d6ea397784ae51d78152f35b3461038f57602036600319011261038f5760043563ffffffff8082169182810361038f5761199061235d565b82156119f3577f7e3f7f0708a84de9203036abaa450dccc85ad5ff52f78c170f3edb55cf5e8828604069ffffffff00000000000093600854958251918760301c1682526020820152a160301b169069ffffffff0000000000001916176008555f80f35b60405163f1cfbf0560e01b81525f6004820152602490fd5b3461038f57604036600319011261038f5760446020600435611a2c816105f7565b5f604051611a398161064f565b52604051630748d63560e31b81526001600160a01b039182166004820152602480359082015292839182907f0000000000000000000000000000000000000000000000000000000000000000165afa8015610b6e5761053e915f9161163457506040519081529081906020820190565b3461038f57602036600319011261038f57600435611ac561235d565b60075460408051918252602082018390527fccb45da8d5717e6c4544694297c4ba5cf151d455c9bb0ed4fc7a38411bc0546191a1600755005b3461038f5760a036600319011261038f57611b1a6004356105f7565b611b256024356105f7565b6084356001600160401b03811161038f57611b44903690600401610722565b50600b546001600160a01b031630036107a85760405163f23a6e6160e01b8152602090f35b3461038f57602036600319011261038f57604051632394e7a360e21b8152600480359082018190526020826024817f00000000000000000000000000000000000000000000000000000000000000006001600160a01b03165afa918215610b6e575f92611c00575b50611bdb90611f17565b90818102918183041490151715611bfb5760405160649091048152602090f35b611ee6565b611bdb919250611c1e9060203d602011610b9957610b8a81836106a1565b9190611bd1565b3461038f575f36600319011261038f576040517f00000000000000000000000000000000000000000000000000000000000000006001600160a01b03168152602090f35b90600182811c92168015611c97575b6020831014611c8357565b634e487b7160e01b5f52602260045260245ffd5b91607f1691611c78565b634e487b7160e01b5f52603260045260245ffd5b8051821015611cc95760209160051b010190565b611ca1565b6040513d5f823e3d90fd5b60405190611ce68261064f565b5f8252565b60405190611cf882610634565b601d82527f6d6f64653d626c6f636b6e756d6265722666726f6d3d64656661756c740000006020830152565b604051634bf5d7e960e01b81525f816004817f00000000000000000000000000000000000000000000000000000000000000006001600160a01b03165afa5f9181611d78575b506104e257506104e2611ceb565b9091503d805f833e611d8a81836106a1565b81019060208183031261038f578051906001600160401b03821161038f570181601f8201121561038f578051611dbf816106d1565b92611dcd60405194856106a1565b8184526020828401011161038f57611deb916020808501910161048b565b905f611d6a565b939092919695610cb1611eaa91611ea48a611e268160018060a01b03165f52600260205260405f2080549060018201905590565b611e3136888a6106ec565b602081519101208b5160208d0120906040519260208401947f3e83946653575f9a39005e1545185629e92736b7528ab20ca3816f315424a81186528d604086015260ff8d16606086015260018060a01b0316608085015260a084015260c083015260e082015260e081526114ef81610685565b8a612651565b611ec5576104e2959691611ebf9136916106ec565b92612788565b6040516394ab6c0760e01b81526001600160a01b0388166004820152602490fd5b634e487b7160e01b5f52601160045260245ffd5b5f19810191908211611bfb57565b602719810191908211611bfb57565b600a545f198101818111611bfb57811115611cc957600a5f527fc65a7bb8d6351c1cf70c95a316cc6a92839c986682d98bc35f958f4883f9d2a78101549165ffffffffffff928184821611156120215750611f71906128a2565b5f908260058111611fcd575b50611f8893506134cf565b80611f9c57505f5b6001600160d01b031690565b611fc1611fab611fc892611efa565b600a5f525f80516020613ac08339815191520190565b5460301c90565b611f90565b9092611fd882613391565b8203918211611bfb57611f8894600a5f5280835f80516020613ac0833981519152015416908516105f1461200f5750915b5f611f7d565b92915061201b906128d4565b90612009565b9250505060301c90565b919392909361203a8233612900565b156121265765ffffffffffff945f198661205261213e565b160195808711611bfb575f6040516120698161064f565b52604051630748d63560e31b8152336004820152961660248701526020866044817f00000000000000000000000000000000000000000000000000000000000000006001600160a01b03165afa958615610b6e575f96612105575b50600754958681106120de57506104e29495503393612acf565b604051636121770b60e11b8152336004820152602481019190915260448101879052606490fd5b61211f91965060203d602011610b9957610b8a81836106a1565b945f6120c4565b60405163d9b3955760e01b8152336004820152602490fd5b6040516324776b7d60e21b81526020816004817f00000000000000000000000000000000000000000000000000000000000000006001600160a01b03165afa5f9181612194575b506104e257506104e2436128a2565b9091506020813d6020116121c9575b816121b0602093836106a1565b8101031261038f57516121c28161117d565b905f612185565b3d91506121a3565b600b546001600160a01b031630036107a85763bc197c8160e01b90565b5f52600460205260405f205465ffffffffffff908163ffffffff8260d01c169160a01c1601818111611bfb571690565b3d15612248573d9061222f826106d1565b9161223d60405193846106a1565b82523d5f602084013e565b606090565b9081518082526020808093019301915f5b82811061226c575050505090565b83516001600160a01b03168552938101939281019260010161225e565b90808251908181526020809101926020808460051b8301019501935f915b8483106122b75750505050505090565b90919293949584806122d5600193601f198682030187528a516104ac565b98019301930191949392906122a7565b9290612331926123439260405194859261232161230e602086019960808b5260a087019061224d565b601f199687878303016040880152611328565b9085858303016060860152612289565b906080830152039081018352826106a1565b51902090565b600b546001600160a01b031630036107a857565b600b546001600160a01b03163381036123b757300361237857565b612381366106d1565b61238e60405191826106a1565b3681526020810190365f83375f602036830101525190205b806123af612da8565b036123a65750565b6040516347096e4760e01b8152336004820152602490fd5b6040906123ea5f939594606083019683526020830190610dd6565b0152565b6123f781612502565b906008821015610dd1576010600160ff84161b1615612414575090565b612437606492604051926331b75e4d60e01b845260048401526024830190610dd6565b60106044820152fd5b61244981612502565b906008821015610dd1576030600160ff84161b1615612466575090565b612489606492604051926331b75e4d60e01b845260048401526024830190610dd6565b60306044820152fd5b6005548060801c9160018301926001600160801b03809316838516146124d8575f52600660205260405f2055600554916001600160801b03199060801b16911617600555565b604051638acb5f2760e01b8152600490fd5b9081602091031261038f5751801515810361038f5790565b61250b81612f15565b9061251582610dc7565b6005820361260c5761253091505f52600c60205260405f2090565b54600b54612546906001600160a01b03166109b4565b604051632c258a9f60e11b81526004810183905260209291908381602481855afa908115610b6e575f916125ef575b501561258357505050600590565b604051632ab0f52960e01b815260048101929092528290829060249082905afa918215610b6e575f926125c2575b5050156125bd57600790565b600290565b6125e19250803d106125e8575b6125d981836106a1565b8101906124ea565b5f806125b1565b503d6125cf565b6126069150843d86116125e8576125d981836106a1565b5f612575565b5090565b916104e29391604051936126238561064f565b5f8552612788565b60429061263661315c565b906040519161190160f01b8352600283015260228201522090565b61265b8383613270565b506004819592951015610dd157159384612712575b50831561267e575b50505090565b5f9293509082916040516126c4816126b66020820194630b135d3f60e11b998a875260248401526040604484015260648301906104ac565b03601f1981018352826106a1565b51915afa906126d161221e565b82612704575b826126e7575b50505f8080612678565b6126fc91925060208082518301019101612c91565b145f806126dd565b9150602082511015916126d7565b6001600160a01b0383811691161493505f612670565b93909260ff612754936104e297958752166020860152604085015260a0606085015260a08401906104ac565b9160808184039101526104ac565b909260ff6080936104e296958452166020830152604082015281606082015201906104ac565b92919061279484612502565b6008811015610dd1576002600160ff83161b16156128745750835f5260046020526127e36127dd6127d260405f2065ffffffffffff905460a01c1690565b65ffffffffffff1690565b82612ca0565b946127f0868484886132aa565b805161283857506128327fb8e138887d0aa13bab447e82de9d5c1777041ecd21ca36ba824ff1e6c07ddda4938660405194859460018060a01b03169785612762565b0390a290565b612832907fe2babfbac5889a709b63bb7f598b324e08bc5a4fb9ec647fb3cbc9ec07eb8712948760405195869560018060a01b03169886612728565b6040516331b75e4d60e01b815260048101869052606491612899906024830190610dd6565b60026044820152fd5b65ffffffffffff908181116128b5571690565b604490604051906306dfcc6560e41b8252603060048301526024820152fd5b9060018201809211611bfb57565b91908201809211611bfb57565b908151811015611cc9570160200190565b8151603481106129b05760131981840101516001600160a01b0319166b1b91f1b211f2119351b859f160a31b016129b057915f9261293d81611f08565b915b81831061295a575050506001600160a01b0391821691161490565b90919361298061297b61296d87856128ef565b516001600160f81b03191690565b613535565b9190156129a55760041b6010600160a01b031660ff919091161793600101919061293f565b505050505050600190565b505050600190565b906129c2826107ba565b6129cf60405191826106a1565b82815280926129e0601f19916107ba565b01905f5b8281106129f057505050565b8060606020809385010152016129e4565b9592612a3590612a43939b9a989996959261012090895260209c60018060a01b03168d8a01528060408a015288019061224d565b908682036060880152611328565b9784890360808601528251808a52818a019180808360051b8d01019501925f905b838210612aa15750505050506104e296975090612a889184820360a0860152612289565b9360c083015260e08201526101008184039101526104ac565b90919293958380612ac08f93600194601f199082030186528a516104ac565b98019201920190939291612a64565b919493909294612ae7865160208801208286866122e5565b958351855190818114801590612c86575b8015612c7e575b612c5557505065ffffffffffff9485612b32612b238a5f52600460205260405f2090565b5460a01c65ffffffffffff1690565b16612c2e577f7d84a6263ae0d98d3329bd7b46bb4e8d6f98cd35a7adb45c274c8b7fd5ebd5e095612c299363ffffffff612b7b612b6d61213e565b6008549480861691166128e2565b9260301c16612c07612b958c5f52600460205260405f2090565b80546001600160a01b0319166001600160a01b038a16178155612bde612bba866128a2565b825465ffffffffffff60a01b191660a09190911b65ffffffffffff60a01b16178255565b612be7836135b2565b815463ffffffff60d01b191660d09190911b63ffffffff60d01b16179055565b612c1b612c1489516129b8565b91846128e2565b936040519889988d8a612a01565b0390a1565b87612c3881612502565b6040516331b75e4d60e01b815291829161153991600484016123cf565b8351604051630447b05d60e41b8152600481019290925260248201526044810191909152606490fd5b508015612aff565b508351811415612af8565b9081602091031261038f575190565b604051630748d63560e31b81526001600160a01b0391821660048201526024810192909252602090829060449082907f0000000000000000000000000000000000000000000000000000000000000000165afa908115610b6e575f91612d04575090565b6104e2915060203d602011610b9957610b8a81836106a1565b600a5480612d2a57505f90565b805f19810111611bfb57600a5f527fc65a7bb8d6351c1cf70c95a316cc6a92839c986682d98bc35f958f4883f9d2a7015460301c90565b9091906106cf5750805115612d7857805190602001fd5b604051630a12f52160e11b8152600490fd5b8115612d94570490565b634e487b7160e01b5f52601260045260245ffd5b600554906001600160801b038083169260801c8314612dea57825f526006602052600160405f20935f8554955501166001600160801b03196005541617600555565b6040516375e52f4f60e01b8152600490fd5b949392612e28608093612e1a612e369460a08a5260a08a019061224d565b9088820360208a0152611328565b908682036040880152612289565b935f60608201520152565b9192612e7060a094612e62612e7e949998979960c0875260c087019061224d565b908582036020870152611328565b908382036040850152612289565b945f606083015260808201520152565b9290939160018060a01b03600b541690813b1561038f575f93612edc6040519788958694859463e38335e560e01b86526bffffffffffffffffffffffff193060601b16189260048601612dfc565b039134905af1908115610b6e575f92612f0392612f06575b505f52600c60205260405f2090565b55565b612f0f9061061c565b5f612ef4565b612f27815f52600460205260405f2090565b5460ff8160f01c1661301a5760f81c61301457612f526127d2612b23835f52600460205260405f2090565b8015612ffb57612f636127d261213e565b80911015612ff557612f74826121ee565b10612f7f5750600190565b612f8b610cb18261395a565b8015612fd2575b15612f9d5750600390565b6127d26001612fb7612fc4935f52600460205260405f2090565b015465ffffffffffff1690565b612fcd57600490565b600590565b50612ff0610cb1825f52600960205260405f20600181015490541090565b612f92565b50505f90565b604051636ad0607560e01b815260048101839052602490fd5b50600290565b5050600790565b9061302d9392916122e5565b61303681612502565b6008811015610dd157603b600160ff83161b161561312f5750613079613064825f52600460205260405f2090565b80546001600160f81b0316600160f81b179055565b6040518181527f789cf55be980739dad1d0699b93b58e806b51c9d96619bfa8fe0a28abaa7b30c90602090a16130b7815f52600c60205260405f2090565b54806130c1575090565b600b546130d6906001600160a01b03166109b4565b803b1561038f5760405163c4d252f560e01b815260048101929092525f908290602490829084905af18015610b6e5761311c575b505f818152600c602052604081205590565b80610b626131299261061c565b5f61310a565b90613153606492604051926331b75e4d60e01b845260048401526024830190610dd6565b603b6044820152fd5b307f00000000000000000000000000000000000000000000000000000000000000006001600160a01b03161480613247575b156131b7577f000000000000000000000000000000000000000000000000000000000000000090565b60405160208101907f8b73c3c69bb8fe3d512ecc4cf759cc79239f7b179b0ffacaa9a75d522b39400f82527f000000000000000000000000000000000000000000000000000000000000000060408201527f000000000000000000000000000000000000000000000000000000000000000060608201524660808201523060a082015260a081526123438161066a565b507f0000000000000000000000000000000000000000000000000000000000000000461461318e565b81519190604183036132a0576132999250602082015190606060408401519301515f1a90613a2b565b9192909190565b50505f9160029190565b6132bf909291925f52600960205260405f2090565b91600383016132e86132e183839060018060a01b03165f5260205260405f2090565b5460ff1690565b6133705761330c60ff9392613319929060018060a01b03165f5260205260405f2090565b805460ff19166001179055565b168061333057509061332c9082546128e2565b9055565b600181036133485750600161332c91019182546128e2565b60020361335e57600261332c91019182546128e2565b6040516303599be160e11b8152600490fd5b6040516371c6af4960e01b81526001600160a01b0383166004820152602490fd5b80156134ca578061346361345c61345261344861343e61343461342a61342060016104e29a5f908b60801c806134be575b508060401c806134b1575b508060201c806134a4575b508060101c80613497575b508060081c8061348a575b508060041c8061347d575b508060021c80613470575b50821c613469575b811c1b613419818b612d8a565b0160011c90565b613419818a612d8a565b6134198189612d8a565b6134198188612d8a565b6134198187612d8a565b6134198186612d8a565b6134198185612d8a565b8092612d8a565b90613aad565b810161340c565b600291509101905f613404565b600491509101905f6133f9565b600891509101905f6133ee565b601091509101905f6133e3565b602091509101905f6133d8565b604091509101905f6133cd565b9150506080905f6133c2565b505f90565b905b8281106134dd57505090565b90918082169080831860011c8201809211611bfb57600a5f5265ffffffffffff80835f80516020613ac0833981519152015416908516105f146135235750915b906134d1565b92915061352f906128d4565b9061351d565b60f81c9081602f10806135a8575b1561355557600191602f190160ff1690565b816040108061359e575b15613571576001916036190160ff1690565b8160601080613594575b1561358d576001916056190160ff1690565b5f91508190565b506067821061357b565b506047821061355f565b50603a8210613543565b63ffffffff908181116135c3571690565b604490604051906306dfcc6560e41b8252602060048301526024820152fd5b60ff81146136205760ff811690601f821161360e576040519161360483610634565b8252602082015290565b604051632cd44ac360e21b8152600490fd5b506040515f815f549161363283611c69565b808352926020906001908181169081156136bb575060011461365d575b50506104e2925003826106a1565b9150925f80527f290decd9548b62a8d60345a988386fc84ba6bc95484008f6362f93160ef3e563935f925b8284106136a357506104e29450505081016020015f8061364f565b85548785018301529485019486945092810192613688565b915050602092506104e294915060ff191682840152151560051b8201015f8061364f565b60ff81146137015760ff811690601f821161360e576040519161360483610634565b506040515f8160019160015461371681611c69565b80845293602091600181169081156136bb575060011461373e5750506104e2925003826106a1565b91509260015f527fb10e2d527612073b26eecdfd717e6a320cf44b4afac2b0732d9fcbe2b7fa0cf6935f925b82841061378557506104e29450505081016020015f8061364f565b8554878501830152948501948694509281019261376a565b600a54906801000000000000000082101561062f576001820180600a55821015611cc9576106cf91600a5f525f80516020613ac0833981519152019061380065ffffffffffff825116839065ffffffffffff1665ffffffffffff19825416179055565b60200151815465ffffffffffff1660309190911b65ffffffffffff1916179055565b90604051604081018181106001600160401b0382111761062f57604052915465ffffffffffff8116835260301c6020830152565b600a5491929190811561393157613877613872611fab84611efa565b613822565b805165ffffffffffff838116949116841061391f57856020936138e3956138a76127d2865165ffffffffffff1690565b036138e757506138bc611fab6138d593611efa565b9065ffffffffffff82549181199060301b169116179055565b01516001600160d01b031690565b9190565b905061391a91506139076138f96106c2565b65ffffffffffff9092168252565b6001600160d01b0387168185015261379d565b6138d5565b604051632520601d60e01b8152600490fd5b61395591506139416138f96106c2565b6001600160d01b038416602082015261379d565b5f9190565b5f52600960205260405f20600460205265ffffffffffff60405f205460a01c169060405191632394e7a360e21b835280600484015260208360248160018060a01b037f0000000000000000000000000000000000000000000000000000000000000000165afa928315610b6e575f93613a06575b506139d890611f17565b91828102928184041490151715611bfb576139ff81600260016064940154910154906128e2565b9104111590565b6139d8919350613a249060203d602011610b9957610b8a81836106a1565b92906139ce565b91907f7fffffffffffffffffffffffffffffff5d576e7357a4501ddfe92f46681b20a08411613aa2579160209360809260ff5f9560405194855216868401526040830152606082015282805260015afa15610b6e575f516001600160a01b03811615613a9857905f905f90565b505f906001905f90565b5050505f9160039190565b9080821015613aba575090565b90509056fec65a7bb8d6351c1cf70c95a316cc6a92839c986682d98bc35f958f4883f9d2a8a26469706673582212208f7c459e9055ab51d33d07f63512e9fc74d0c3ffbddb40b8fd20b67308a8cd1264736f6c63430008180033c65a7bb8d6351c1cf70c95a316cc6a92839c986682d98bc35f958f4883f9d2a80553476bf02ef2726e8ce5ced78d63e26e602e4a2257b1f559418e24b4633997","linkReferences":{}},"methodIdentifiers":{"BALLOT_TYPEHASH()":"deaaa7cc","CLOCK_MODE()":"4bf5d7e9","COUNTING_MODE()":"dd4e2ba5","EXTENDED_BALLOT_TYPEHASH()":"2fe3e261","cancel(address[],uint256[],bytes[],bytes32)":"452115d6","castVote(uint256,uint8)":"56781388","castVoteBySig(uint256,uint8,address,bytes)":"8ff262e3","castVoteWithReason(uint256,uint8,string)":"7b3c71d3","castVoteWithReasonAndParams(uint256,uint8,string,bytes)":"5f398a14","castVoteWithReasonAndParamsBySig(uint256,uint8,address,string,bytes,bytes)":"5b8d0e0d","clock()":"91ddadf4","eip712Domain()":"84b0196e","execute(address[],uint256[],bytes[],bytes32)":"2656227d","getVotes(address,uint256)":"eb9019d4","getVotesWithParams(address,uint256,bytes)":"9a802a6d","hasVoted(uint256,address)":"43859632","hashProposal(address[],uint256[],bytes[],bytes32)":"c59057e4","name()":"06fdde03","nonces(address)":"7ecebe00","onERC1155BatchReceived(address,address,uint256[],uint256[],bytes)":"bc197c81","onERC1155Received(address,address,uint256,uint256,bytes)":"f23a6e61","onERC721Received(address,address,uint256,bytes)":"150b7a02","proposalDeadline(uint256)":"c01f9e37","proposalEta(uint256)":"ab58fb8e","proposalNeedsQueuing(uint256)":"a9a95294","proposalProposer(uint256)":"143489d0","proposalSnapshot(uint256)":"2d63f693","proposalThreshold()":"b58131b0","proposalVotes(uint256)":"544ffc9c","propose(address[],uint256[],bytes[],string)":"7d5e81e2","queue(address[],uint256[],bytes[],bytes32)":"160cbed7","quorum(uint256)":"f8ce560a","quorumDenominator()":"97c3d334","quorumNumerator()":"a7713a70","quorumNumerator(uint256)":"60c4247f","relay(address,uint256,bytes)":"c28bc2fa","setProposalThreshold(uint256)":"ece40cc1","setVotingDelay(uint48)":"79051887","setVotingPeriod(uint32)":"e540d01d","state(uint256)":"3e4f49e6","supportsInterface(bytes4)":"01ffc9a7","timelock()":"d33219b4","token()":"fc0c546a","updateQuorumNumerator(uint256)":"06f3f9e6","updateTimelock(address)":"a890c910","version()":"54fd4d50","votingDelay()":"3932abb1","votingPeriod()":"02a251a3"},"id":72}