{"abi":[{"type":"constructor","inputs":[{"name":"admin","type":"address","internalType":"address"}],"stateMutability":"nonpayable"},{"type":"function","name":"DEFAULT_ADMIN_ROLE","inputs":[],"outputs":[{"name":"","type":"bytes32","internalType":"bytes32"}],"stateMutability":"view"},{"type":"function","name":"RESOLVER_ROLE","inputs":[],"outputs":[{"name":"","type":"bytes32","internalType":"bytes32"}],"stateMutability":"view"},{"type":"function","name":"createMarket","inputs":[{"name":"marketId","type":"uint256","internalType":"uint256"},{"name":"resolutionTime","type":"uint256","internalType":"uint256"},{"name":"mockPrice","type":"int256","internalType":"int256"}],"outputs":[],"stateMutability":"nonpayable"},{"type":"function","name":"getRoleAdmin","inputs":[{"name":"role","type":"bytes32","internalType":"bytes32"}],"outputs":[{"name":"","type":"bytes32","internalType":"bytes32"}],"stateMutability":"view"},{"type":"function","name":"grantRole","inputs":[{"name":"role","type":"bytes32","internalType":"bytes32"},{"name":"account","type":"address","internalType":"address"}],"outputs":[],"stateMutability":"nonpayable"},{"type":"function","name":"hasRole","inputs":[{"name":"role","type":"bytes32","internalType":"bytes32"},{"name":"account","type":"address","internalType":"address"}],"outputs":[{"name":"","type":"bool","internalType":"bool"}],"stateMutability":"view"},{"type":"function","name":"markets","inputs":[{"name":"","type":"uint256","internalType":"uint256"}],"outputs":[{"name":"resolutionTime","type":"uint256","internalType":"uint256"},{"name":"resolved","type":"bool","internalType":"bool"},{"name":"winningOutcome","type":"uint8","internalType":"uint8"},{"name":"mockOraclePrice","type":"int256","internalType":"int256"}],"stateMutability":"view"},{"type":"function","name":"renounceRole","inputs":[{"name":"role","type":"bytes32","internalType":"bytes32"},{"name":"callerConfirmation","type":"address","internalType":"address"}],"outputs":[],"stateMutability":"nonpayable"},{"type":"function","name":"resolveMarket","inputs":[{"name":"marketId","type":"uint256","internalType":"uint256"}],"outputs":[],"stateMutability":"nonpayable"},{"type":"function","name":"revokeRole","inputs":[{"name":"role","type":"bytes32","internalType":"bytes32"},{"name":"account","type":"address","internalType":"address"}],"outputs":[],"stateMutability":"nonpayable"},{"type":"function","name":"supportsInterface","inputs":[{"name":"interfaceId","type":"bytes4","internalType":"bytes4"}],"outputs":[{"name":"","type":"bool","internalType":"bool"}],"stateMutability":"view"},{"type":"event","name":"MarketResolved","inputs":[{"name":"marketId","type":"uint256","indexed":true,"internalType":"uint256"},{"name":"winningOutcome","type":"uint8","indexed":false,"internalType":"uint8"}],"anonymous":false},{"type":"event","name":"RoleAdminChanged","inputs":[{"name":"role","type":"bytes32","indexed":true,"internalType":"bytes32"},{"name":"previousAdminRole","type":"bytes32","indexed":true,"internalType":"bytes32"},{"name":"newAdminRole","type":"bytes32","indexed":true,"internalType":"bytes32"}],"anonymous":false},{"type":"event","name":"RoleGranted","inputs":[{"name":"role","type":"bytes32","indexed":true,"internalType":"bytes32"},{"name":"account","type":"address","indexed":true,"internalType":"address"},{"name":"sender","type":"address","indexed":true,"internalType":"address"}],"anonymous":false},{"type":"event","name":"RoleRevoked","inputs":[{"name":"role","type":"bytes32","indexed":true,"internalType":"bytes32"},{"name":"account","type":"address","indexed":true,"internalType":"address"},{"name":"sender","type":"address","indexed":true,"internalType":"address"}],"anonymous":false},{"type":"error","name":"AccessControlBadConfirmation","inputs":[]},{"type":"error","name":"AccessControlUnauthorizedAccount","inputs":[{"name":"account","type":"address","internalType":"address"},{"name":"neededRole","type":"bytes32","internalType":"bytes32"}]},{"type":"error","name":"MarketAlreadyResolved","inputs":[{"name":"marketId","type":"uint256","internalType":"uint256"}]},{"type":"error","name":"ResolutionTooEarly","inputs":[{"name":"resolutionTime","type":"uint256","internalType":"uint256"},{"name":"blockTimestamp","type":"uint256","internalType":"uint256"}]}],"bytecode":{"object":"0x60803461007257601f6107e938819003918201601f19168301916001600160401b038311848410176100765780849260209460405283398101031261007257516001600160a01b0381168103610072578061005c6100629261008a565b506100f6565b5060405161061490816101958239f35b5f80fd5b634e487b7160e01b5f52604160045260245ffd5b6001600160a01b03165f8181525f805160206107c9833981519152602052604090205460ff166100f1575f8181525f805160206107c983398151915260205260408120805460ff191660011790553391905f805160206107a98339815191528180a4600190565b505f90565b6001600160a01b03165f8181527f40da0f42a661166d5434d4603ecbff423639c47e2526ad0538d7c3517a62389060205260409020547f92a19c77d2ea87c7f81d50c74403cb2f401780f3ad919571121efe2bdb427eb1919060ff1661018e57815f525f60205260405f20815f5260205260405f20600160ff1982541617905533915f805160206107a98339815191525f80a4600190565b50505f9056fe6080604090808252600480361015610015575f80fd5b5f3560e01c91826301ffc9a71461043957508163248a9ca3146104105781632f2ff15d146103f357816336568abe146103ba5781636399d03d1461028857816378fab2601461024e57816391d14854146102165781639b71301e14610136578163a217fddf1461011c578163b1283e77146100ce575063d547741f14610099575f80fd5b346100ca5760016100c8916100c36100b03661048b565b939092835f525f6020525f2001546104b1565b61056c565b005b5f80fd5b82346100ca5760203660031901126100ca57608091355f526001602052805f2080549160ff600260018401549301549282519485528181161515602086015260081c16908301526060820152f35b82346100ca575f3660031901126100ca57602090515f8152f35b9050346100ca5760603660031901126100ca575f80525f602052815f20335f5260205260ff825f205416156101fa578151916080830183811067ffffffffffffffff8211176101e757816101e1916002949352602435855260ff60208601915f8352808701905f825260608801956044358752355f5260016020525f209651875560018701925115158280198554169116178355511661ff0082549160081b169061ff001916179055565b51910155005b604183634e487b7160e01b5f525260245ffd5b604491519063e2517d3f60e01b825233908201525f6024820152fd5b82346100ca576020906102283661048b565b905f525f8352815f209060018060a01b03165f52825260ff815f20541690519015158152f35b82346100ca575f3660031901126100ca57602090517f92a19c77d2ea87c7f81d50c74403cb2f401780f3ad919571121efe2bdb427eb18152f35b82346100ca5760203660031901126100ca578135917f92a19c77d2ea87c7f81d50c74403cb2f401780f3ad919571121efe2bdb427eb1805f525f602052825f20335f5260205260ff835f2054161561039f5750825f526001602052815f20600181019081549260ff841661038857815480421061036c57867f739f283563fb51ab6b89ee95d937b2e63a6cfcb83c385dbebb629f9d97bd43e66020600160ff8a61035a8b8b5f60028d0154135f14610362578586925b8619161781559061ff0082549160081b169061ff001916179055565b5191168152a2005b600295869261033e565b855163a10a3e6f60e01b81529182015242602482015260449150fd5b845163ed5d23e160e01b8152908101869052602490fd5b604492519163e2517d3f60e01b835233908301526024820152fd5b82346100ca576103c93661048b565b91336001600160a01b038416036103e4576100c8838361056c565b5163334bd91960e11b81528390fd5b82346100ca5760016100c89161040b6100b03661048b565b6104f0565b82346100ca5760203660031901126100ca57602091355f525f82526001815f2001549051908152f35b90346100ca5760203660031901126100ca57359063ffffffff60e01b82168092036100ca57602091637965db0b60e01b811490811561047a575b5015158152f35b6301ffc9a760e01b14905083610473565b60409060031901126100ca57600435906024356001600160a01b03811681036100ca5790565b805f525f60205260405f20335f5260205260ff60405f205416156104d25750565b6044906040519063e2517d3f60e01b82523360048301526024820152fd5b90815f525f60205260405f209060018060a01b031690815f5260205260ff60405f205416155f1461056657815f525f60205260405f20815f5260205260405f20600160ff1982541617905533917f2f8788117e7eff1d82e926ec794901d17c78024a50270940304540a733656f0d5f80a4600190565b50505f90565b90815f525f60205260405f209060018060a01b031690815f5260205260ff60405f2054165f1461056657815f525f60205260405f20815f5260205260405f2060ff19815416905533917ff6391f5c32d9c69d2a47ea670b442974b53935d1edc7fd64eb21e047a839171b5f80a460019056fea2646970667358221220278b503f5ba6b807e6472f27beed80c89b7cd9b33046b6f67b9083975ccea2d664736f6c634300081800332f8788117e7eff1d82e926ec794901d17c78024a50270940304540a733656f0dad3228b676f7d3cd4284a5443f17f1962b36e491b30a40b2405849e597ba5fb5","linkReferences":{}},"methodIdentifiers":{"DEFAULT_ADMIN_ROLE()":"a217fddf","RESOLVER_ROLE()":"78fab260","createMarket(uint256,uint256,int256)":"9b71301e","getRoleAdmin(bytes32)":"248a9ca3","grantRole(bytes32,address)":"2f2ff15d","hasRole(bytes32,address)":"91d14854","markets(uint256)":"b1283e77","renounceRole(bytes32,address)":"36568abe","resolveMarket(uint256)":"6399d03d","revokeRole(bytes32,address)":"d547741f","supportsInterface(bytes4)":"01ffc9a7"},"id":82}