{"abi":[{"type":"receive","stateMutability":"payable"},{"type":"function","name":"redeemWinningTokens","inputs":[{"name":"marketId","type":"uint256","internalType":"uint256"}],"outputs":[],"stateMutability":"nonpayable"},{"type":"function","name":"seedBalance","inputs":[{"name":"marketId","type":"uint256","internalType":"uint256"},{"name":"user","type":"address","internalType":"address"},{"name":"amount","type":"uint256","internalType":"uint256"}],"outputs":[],"stateMutability":"payable"},{"type":"function","name":"totalCollateral","inputs":[{"name":"","type":"uint256","internalType":"uint256"}],"outputs":[{"name":"","type":"uint256","internalType":"uint256"}],"stateMutability":"view"},{"type":"function","name":"totalWinningSupply","inputs":[{"name":"","type":"uint256","internalType":"uint256"}],"outputs":[{"name":"","type":"uint256","internalType":"uint256"}],"stateMutability":"view"},{"type":"function","name":"winningBalances","inputs":[{"name":"","type":"uint256","internalType":"uint256"},{"name":"","type":"address","internalType":"address"}],"outputs":[{"name":"","type":"uint256","internalType":"uint256"}],"stateMutability":"view"},{"type":"event","name":"WinningsRedeemed","inputs":[{"name":"marketId","type":"uint256","indexed":true,"internalType":"uint256"},{"name":"redeemer","type":"address","indexed":true,"internalType":"address"},{"name":"amount","type":"uint256","indexed":false,"internalType":"uint256"}],"anonymous":false},{"type":"error","name":"ReentrancyGuardReentrantCall","inputs":[]}],"bytecode":{"object":"0x6080806040523461001a5760015f556103cd908161001f8239f35b5f80fdfe6080604081815260049182361015610021575b505050361561001f575f80fd5b005b5f3560e01c90816323a2b7d01461032e575080634c5b59a5146101415780637734753a14610102578063a6c039761461008e5763f79855cf146100645780610012565b3461008a57602036600319011261008a57602091355f5260028252805f20549051908152f35b5f80fd5b5090606036600319011261008a57356100a5610353565b60443590825f526001602052835f209060018060a01b03165f52602052825f206100d082825461038a565b9055815f5260036020526100e8835f2091825461038a565b90555f5260026020525f206100fe34825461038a565b9055005b503461008a578060031936011261008a5760209161011e610353565b90355f5260018352815f209060018060a01b03165f528252805f20549051908152f35b50903461008a5760208060031936011261008a57813560025f541461031e5760025f55805f5260018252835f20335f528252835f20549081156102ef57805f5260028352845f205480830290838204036102dc57815f5260038452855f20549081156102c9575f938493849384930491818452600188528984203385528852838a812055818452600288528984206101da848254610369565b9055818452600388526101f18a8520918254610369565b90558851908282527fa5b5f999d356bb14d51114327e0f0eefeed3a4083169d023dd7fe6744ca15174883393a3335af13d156102c45767ffffffffffffffff3d8181116102b157855191601f8201601f19908116603f011683019081118382101761029e57865281525f833d92013e5b1561026c5760015f55005b606492519162461bcd60e51b8352820152600f60248201526e1d1c985b9cd9995c8819985a5b1959608a1b6044820152fd5b604186634e487b7160e01b5f525260245ffd5b604185634e487b7160e01b5f525260245ffd5b610261565b601286634e487b7160e01b5f525260245ffd5b601185634e487b7160e01b5f525260245ffd5b5050606492519162461bcd60e51b8352820152600a6024820152696e6f2062616c616e636560b01b6044820152fd5b8351633ee5aeb560e01b81528390fd5b9190503461008a57602036600319011261008a57602092355f52600383525f20548152f35b602435906001600160a01b038216820361008a57565b9190820391821161037657565b634e487b7160e01b5f52601160045260245ffd5b919082018092116103765756fea264697066735822122091d1923f8e8cb70a42ceae60799a830d5267fd841189d841d2d889098b4a320f64736f6c63430008180033","linkReferences":{}},"methodIdentifiers":{"redeemWinningTokens(uint256)":"4c5b59a5","seedBalance(uint256,address,uint256)":"a6c03976","totalCollateral(uint256)":"f79855cf","totalWinningSupply(uint256)":"23a2b7d0","winningBalances(uint256,address)":"7734753a"},"id":84}