{"abi":[{"type":"function","name":"createMarket","inputs":[{"name":"marketId","type":"uint256","internalType":"uint256"},{"name":"resolutionTime","type":"uint256","internalType":"uint256"},{"name":"mockPrice","type":"int256","internalType":"int256"}],"outputs":[],"stateMutability":"nonpayable"},{"type":"function","name":"markets","inputs":[{"name":"","type":"uint256","internalType":"uint256"}],"outputs":[{"name":"resolutionTime","type":"uint256","internalType":"uint256"},{"name":"resolved","type":"bool","internalType":"bool"},{"name":"winningOutcome","type":"uint8","internalType":"uint8"},{"name":"mockOraclePrice","type":"int256","internalType":"int256"}],"stateMutability":"view"},{"type":"function","name":"resolveMarket","inputs":[{"name":"marketId","type":"uint256","internalType":"uint256"}],"outputs":[],"stateMutability":"nonpayable"},{"type":"event","name":"MarketResolved","inputs":[{"name":"marketId","type":"uint256","indexed":true,"internalType":"uint256"},{"name":"winningOutcome","type":"uint8","indexed":false,"internalType":"uint8"}],"anonymous":false}],"bytecode":{"object":"0x608080604052346100165761023e908161001b8239f35b5f80fdfe6080604081815260049182361015610015575f80fd5b5f3560e01c9081636399d03d14610137575080639b71301e146100905763b1283e7714610040575f80fd5b3461008c57602036600319011261008c57608091355f525f602052805f2080549160ff600260018401549301549282519485528181161515602086015260081c16908301526060820152f35b5f80fd5b50903461008c57606036600319011261008c578151916080830183811067ffffffffffffffff821117610124578161011e916002949352602435855260ff60208601915f8352808701905f825260608801956044358752355f525f6020525f209651875560018701925115158280198554169116178355511661ff0082549160081b169061ff001916179055565b51910155005b604183634e487b7160e01b5f525260245ffd5b82843461008c57602036600319011261008c57803592835f525f602052825f20600181019182549360ff85166101d457867f739f283563fb51ab6b89ee95d937b2e63a6cfcb83c385dbebb629f9d97bd43e66020600160ff8a6101c28b8b5f60028d0154135f146101ca578586925b8619161781559061ff0082549160081b169061ff001916179055565b5191168152a2005b60029586926101a6565b62461bcd60e51b8252602090820152601060248201526f185b1c9958591e481c995cdbdb1d995960821b6044820152606490fdfea2646970667358221220dd2c567b69b22eac1e7eedfa9e92900df02e959b8b65b68e432e3600cb4b18a464736f6c63430008180033","linkReferences":{}},"methodIdentifiers":{"createMarket(uint256,uint256,int256)":"9b71301e","markets(uint256)":"b1283e77","resolveMarket(uint256)":"6399d03d"},"id":83}