{"abi":[{"type":"constructor","inputs":[{"name":"admin","type":"address","internalType":"address"}],"stateMutability":"nonpayable"},{"type":"function","name":"DEFAULT_ADMIN_ROLE","inputs":[],"outputs":[{"name":"","type":"bytes32","internalType":"bytes32"}],"stateMutability":"view"},{"type":"function","name":"MAX_STALENESS","inputs":[],"outputs":[{"name":"","type":"uint256","internalType":"uint256"}],"stateMutability":"view"},{"type":"function","name":"getLatestPrice","inputs":[{"name":"feed","type":"address","internalType":"address"}],"outputs":[{"name":"price","type":"int256","internalType":"int256"},{"name":"updatedAt","type":"uint256","internalType":"uint256"}],"stateMutability":"view"},{"type":"function","name":"getRoleAdmin","inputs":[{"name":"role","type":"bytes32","internalType":"bytes32"}],"outputs":[{"name":"","type":"bytes32","internalType":"bytes32"}],"stateMutability":"view"},{"type":"function","name":"grantRole","inputs":[{"name":"role","type":"bytes32","internalType":"bytes32"},{"name":"account","type":"address","internalType":"address"}],"outputs":[],"stateMutability":"nonpayable"},{"type":"function","name":"hasRole","inputs":[{"name":"role","type":"bytes32","internalType":"bytes32"},{"name":"account","type":"address","internalType":"address"}],"outputs":[{"name":"","type":"bool","internalType":"bool"}],"stateMutability":"view"},{"type":"function","name":"isStale","inputs":[{"name":"feed","type":"address","internalType":"address"},{"name":"maxAge","type":"uint256","internalType":"uint256"}],"outputs":[{"name":"","type":"bool","internalType":"bool"}],"stateMutability":"view"},{"type":"function","name":"renounceRole","inputs":[{"name":"role","type":"bytes32","internalType":"bytes32"},{"name":"callerConfirmation","type":"address","internalType":"address"}],"outputs":[],"stateMutability":"nonpayable"},{"type":"function","name":"revokeRole","inputs":[{"name":"role","type":"bytes32","internalType":"bytes32"},{"name":"account","type":"address","internalType":"address"}],"outputs":[],"stateMutability":"nonpayable"},{"type":"function","name":"supportsInterface","inputs":[{"name":"interfaceId","type":"bytes4","internalType":"bytes4"}],"outputs":[{"name":"","type":"bool","internalType":"bool"}],"stateMutability":"view"},{"type":"event","name":"RoleAdminChanged","inputs":[{"name":"role","type":"bytes32","indexed":true,"internalType":"bytes32"},{"name":"previousAdminRole","type":"bytes32","indexed":true,"internalType":"bytes32"},{"name":"newAdminRole","type":"bytes32","indexed":true,"internalType":"bytes32"}],"anonymous":false},{"type":"event","name":"RoleGranted","inputs":[{"name":"role","type":"bytes32","indexed":true,"internalType":"bytes32"},{"name":"account","type":"address","indexed":true,"internalType":"address"},{"name":"sender","type":"address","indexed":true,"internalType":"address"}],"anonymous":false},{"type":"event","name":"RoleRevoked","inputs":[{"name":"role","type":"bytes32","indexed":true,"internalType":"bytes32"},{"name":"account","type":"address","indexed":true,"internalType":"address"},{"name":"sender","type":"address","indexed":true,"internalType":"address"}],"anonymous":false},{"type":"error","name":"AccessControlBadConfirmation","inputs":[]},{"type":"error","name":"AccessControlUnauthorizedAccount","inputs":[{"name":"account","type":"address","internalType":"address"},{"name":"neededRole","type":"bytes32","internalType":"bytes32"}]},{"type":"error","name":"InvalidPrice","inputs":[{"name":"price","type":"int256","internalType":"int256"}]},{"type":"error","name":"StalePrice","inputs":[{"name":"updatedAt","type":"uint256","internalType":"uint256"},{"name":"blockTimestamp","type":"uint256","internalType":"uint256"}]}],"bytecode":{"object":"0x60803461006857601f6106f838819003918201601f19168301916001600160401b0383118484101761006c5780849260209460405283398101031261006857516001600160a01b03811681036100685761005890610080565b506040516105d890816101008239f35b5f80fd5b634e487b7160e01b5f52604160045260245ffd5b6001600160a01b03165f8181525f805160206106d8833981519152602052604090205460ff166100fa575f8181525f805160206106d883398151915260205260408120805460ff191660011790553391907f2f8788117e7eff1d82e926ec794901d17c78024a50270940304540a733656f0d8180a4600190565b505f9056fe6080604081815260049182361015610015575f80fd5b5f3560e01c90816301ffc9a7146103755750806316345f181461028b578063248a9ca3146102625780632f2ff15d1461023a57806336568abe146101f657806391d14854146101b3578063a217fddf14610199578063caca95a41461017d578063d547741f146101425763e30e1a221461008d575f80fd5b3461013e578060031936011261013e57819060a06100a96103c7565b8251633fabe5a360e21b815293849182905f196001861b01165afa918215610134575f926100fe575b506024354203904282116100eb57602093505191108152f35b601184634e487b7160e01b5f525260245ffd5b61012191925060a03d60a01161012d575b61011981836103f3565b810190610440565b5092505050905f6100d2565b503d61010f565b50513d5f823e3d90fd5b5f80fd5b503461013e578060031936011261013e5761017b913561017660016101656103dd565b93835f525f6020525f200154610475565b610530565b005b503461013e575f36600319011261013e5760209051610e108152f35b503461013e575f36600319011261013e57602090515f8152f35b503461013e578060031936011261013e576020916101cf6103dd565b90355f525f8352815f209060018060a01b03165f52825260ff815f20541690519015158152f35b503461013e578060031936011261013e5761020f6103dd565b90336001600160a01b0383160361022b575061017b9135610530565b5163334bd91960e11b81529050fd5b503461013e578060031936011261013e5761017b913561025d60016101656103dd565b6104b4565b503461013e57602036600319011261013e57602091355f525f82526001815f2001549051908152f35b50903461013e57602036600319011261013e578060a06001600160a01b036102b16103c7565b16845193848092633fabe5a360e21b82525afa90811561036b575f925f92610342575b505f83131561032b57610e0f1942014281116103185782106102fd575082519182526020820152f35b6044918451916304e61d6960e31b8352820152426024820152fd5b601182634e487b7160e01b5f525260245ffd5b83516338ee04a760e01b8152908101839052602490fd5b90925061035e915060a03d60a01161012d5761011981836103f3565b509392505091905f6102d4565b83513d5f823e3d90fd5b833461013e57602036600319011261013e57359063ffffffff60e01b821680920361013e57602091637965db0b60e01b81149081156103b6575b5015158152f35b6301ffc9a760e01b149050836103af565b600435906001600160a01b038216820361013e57565b602435906001600160a01b038216820361013e57565b90601f8019910116810190811067ffffffffffffffff82111761041557604052565b634e487b7160e01b5f52604160045260245ffd5b519069ffffffffffffffffffff8216820361013e57565b908160a091031261013e5761045481610429565b91602082015191604081015191610472608060608401519301610429565b90565b805f525f60205260405f20335f5260205260ff60405f205416156104965750565b6044906040519063e2517d3f60e01b82523360048301526024820152fd5b90815f525f60205260405f209060018060a01b031690815f5260205260ff60405f205416155f1461052a57815f525f60205260405f20815f5260205260405f20600160ff1982541617905533917f2f8788117e7eff1d82e926ec794901d17c78024a50270940304540a733656f0d5f80a4600190565b50505f90565b90815f525f60205260405f209060018060a01b031690815f5260205260ff60405f2054165f1461052a57815f525f60205260405f20815f5260205260405f2060ff19815416905533917ff6391f5c32d9c69d2a47ea670b442974b53935d1edc7fd64eb21e047a839171b5f80a460019056fea2646970667358221220e22d7c043ffa762de0458f35523e6814ecd218c658e759b0825b1cbfeb34b0da64736f6c63430008180033ad3228b676f7d3cd4284a5443f17f1962b36e491b30a40b2405849e597ba5fb5","linkReferences":{}},"methodIdentifiers":{"DEFAULT_ADMIN_ROLE()":"a217fddf","MAX_STALENESS()":"caca95a4","getLatestPrice(address)":"16345f18","getRoleAdmin(bytes32)":"248a9ca3","grantRole(bytes32,address)":"2f2ff15d","hasRole(bytes32,address)":"91d14854","isStale(address,uint256)":"e30e1a22","renounceRole(bytes32,address)":"36568abe","revokeRole(bytes32,address)":"d547741f","supportsInterface(bytes4)":"01ffc9a7"},"id":78}