{"abi":[{"type":"constructor","inputs":[{"name":"initialAnswer","type":"int256","internalType":"int256"},{"name":"decimals_","type":"uint8","internalType":"uint8"}],"stateMutability":"nonpayable"},{"type":"function","name":"decimals","inputs":[],"outputs":[{"name":"","type":"uint8","internalType":"uint8"}],"stateMutability":"view"},{"type":"function","name":"description","inputs":[],"outputs":[{"name":"","type":"string","internalType":"string"}],"stateMutability":"pure"},{"type":"function","name":"getRoundData","inputs":[{"name":"roundId_","type":"uint80","internalType":"uint80"}],"outputs":[{"name":"roundId","type":"uint80","internalType":"uint80"},{"name":"answer","type":"int256","internalType":"int256"},{"name":"startedAt","type":"uint256","internalType":"uint256"},{"name":"updatedAt","type":"uint256","internalType":"uint256"},{"name":"answeredInRound","type":"uint80","internalType":"uint80"}],"stateMutability":"pure"},{"type":"function","name":"latestRoundData","inputs":[],"outputs":[{"name":"roundId","type":"uint80","internalType":"uint80"},{"name":"answer","type":"int256","internalType":"int256"},{"name":"startedAt","type":"uint256","internalType":"uint256"},{"name":"updatedAt","type":"uint256","internalType":"uint256"},{"name":"answeredInRound","type":"uint80","internalType":"uint80"}],"stateMutability":"view"},{"type":"function","name":"setAnswer","inputs":[{"name":"answer","type":"int256","internalType":"int256"}],"outputs":[],"stateMutability":"nonpayable"},{"type":"function","name":"setUpdatedAt","inputs":[{"name":"timestamp","type":"uint256","internalType":"uint256"}],"outputs":[],"stateMutability":"nonpayable"},{"type":"function","name":"version","inputs":[],"outputs":[{"name":"","type":"uint256","internalType":"uint256"}],"stateMutability":"pure"}],"bytecode":{"object":"0x60803461007957601f61033438819003918201601f19168301916001600160401b0383118484101761007d578084926040948552833981010312610079576020815191015160ff811680910361007957610100915f554260015560018060581b03196002541617176002556040516102a290816100928239f35b5f80fd5b634e487b7160e01b5f52604160045260245ffdfe6080604090808252600480361015610015575f80fd5b5f3560e01c9182631ecc7d8814610254578263313ce567146102375750816354fd4d501461021c5781637284e4161461017557816399213cd8146101005781639a6fc8f5146100b8575063feaf968c1461006d575f80fd5b346100b4575f3660031901126100b45760a09069ffffffffffffffffffff60025460081c165f54916001548181925194848652602086015284015260608301526080820152f35b5f80fd5b9050346100b45760203660031901126100b4573569ffffffffffffffffffff81168091036100b4575f8260a093519283528160208401528201525f60608201525f6080820152f35b346100b45760203660031901126100b45780355f55426001556002549069ffffffffffffffffffff90818360081c16918214610162575060016affffffffffffffffffff00910160081b16906affffffffffffffffffff001916176002555f80f35b601190634e487b7160e01b5f525260245ffd5b82346100b4575f3660031901126100b4578051918183019083821067ffffffffffffffff83111761020957508152600e825260206d26b7b1b5a0b3b3b932b3b0ba37b960911b60208401528151928391602083528151918260208501525f5b8381106101f35750505f83830185015250601f01601f19168101030190f35b81810183015187820187015286945082016101d4565b604190634e487b7160e01b5f525260245ffd5b82346100b4575f3660031901126100b4576020905160018152f35b346100b4575f3660031901126100b45760209060ff600254168152f35b50346100b45760203660031901126100b4573560015500fea2646970667358221220a32595ac5581f12cc1348a613138b69566df74ef1f1da72a723572d7e9d1e03664736f6c63430008180033","linkReferences":{}},"methodIdentifiers":{"decimals()":"313ce567","description()":"7284e416","getRoundData(uint80)":"9a6fc8f5","latestRoundData()":"feaf968c","setAnswer(int256)":"99213cd8","setUpdatedAt(uint256)":"1ecc7d88","version()":"54fd4d50"},"id":77}