{"abi":[{"type":"constructor","inputs":[{"name":"admin_","type":"address","internalType":"address"},{"name":"usdc_","type":"address","internalType":"address"},{"name":"outcomeToken_","type":"address","internalType":"address"},{"name":"feeVault_","type":"address","internalType":"address"},{"name":"oracleAdapter_","type":"address","internalType":"address"},{"name":"marketAdmin_","type":"address","internalType":"address"}],"stateMutability":"nonpayable"},{"type":"function","name":"DEFAULT_ADMIN_ROLE","inputs":[],"outputs":[{"name":"","type":"bytes32","internalType":"bytes32"}],"stateMutability":"view"},{"type":"function","name":"FACTORY_ADMIN_ROLE","inputs":[],"outputs":[{"name":"","type":"bytes32","internalType":"bytes32"}],"stateMutability":"view"},{"type":"function","name":"allMarkets","inputs":[{"name":"","type":"uint256","internalType":"uint256"}],"outputs":[{"name":"","type":"address","internalType":"address"}],"stateMutability":"view"},{"type":"function","name":"allMarketsLength","inputs":[],"outputs":[{"name":"count","type":"uint256","internalType":"uint256"}],"stateMutability":"view"},{"type":"function","name":"deployImplementation","inputs":[],"outputs":[{"name":"impl","type":"address","internalType":"address"}],"stateMutability":"nonpayable"},{"type":"function","name":"deployMarket","inputs":[{"name":"question","type":"string","internalType":"string"},{"name":"","type":"address","internalType":"address"},{"name":"","type":"uint256","internalType":"uint256"},{"name":"","type":"uint256","internalType":"uint256"},{"name":"salt","type":"bytes32","internalType":"bytes32"}],"outputs":[{"name":"proxy","type":"address","internalType":"address"}],"stateMutability":"nonpayable"},{"type":"function","name":"feeVault","inputs":[],"outputs":[{"name":"","type":"address","internalType":"address"}],"stateMutability":"view"},{"type":"function","name":"getRoleAdmin","inputs":[{"name":"role","type":"bytes32","internalType":"bytes32"}],"outputs":[{"name":"","type":"bytes32","internalType":"bytes32"}],"stateMutability":"view"},{"type":"function","name":"grantRole","inputs":[{"name":"role","type":"bytes32","internalType":"bytes32"},{"name":"account","type":"address","internalType":"address"}],"outputs":[],"stateMutability":"nonpayable"},{"type":"function","name":"hasRole","inputs":[{"name":"role","type":"bytes32","internalType":"bytes32"},{"name":"account","type":"address","internalType":"address"}],"outputs":[{"name":"","type":"bool","internalType":"bool"}],"stateMutability":"view"},{"type":"function","name":"implementation","inputs":[],"outputs":[{"name":"","type":"address","internalType":"address"}],"stateMutability":"view"},{"type":"function","name":"marketAdmin","inputs":[],"outputs":[{"name":"","type":"address","internalType":"address"}],"stateMutability":"view"},{"type":"function","name":"oracleAdapter","inputs":[],"outputs":[{"name":"","type":"address","internalType":"address"}],"stateMutability":"view"},{"type":"function","name":"outcomeToken","inputs":[],"outputs":[{"name":"","type":"address","internalType":"address"}],"stateMutability":"view"},{"type":"function","name":"predictMarketAddress","inputs":[{"name":"salt","type":"bytes32","internalType":"bytes32"}],"outputs":[{"name":"predicted","type":"address","internalType":"address"}],"stateMutability":"view"},{"type":"function","name":"renounceRole","inputs":[{"name":"role","type":"bytes32","internalType":"bytes32"},{"name":"callerConfirmation","type":"address","internalType":"address"}],"outputs":[],"stateMutability":"nonpayable"},{"type":"function","name":"revokeRole","inputs":[{"name":"role","type":"bytes32","internalType":"bytes32"},{"name":"account","type":"address","internalType":"address"}],"outputs":[],"stateMutability":"nonpayable"},{"type":"function","name":"saltToMarket","inputs":[{"name":"","type":"bytes32","internalType":"bytes32"}],"outputs":[{"name":"","type":"address","internalType":"address"}],"stateMutability":"view"},{"type":"function","name":"supportsInterface","inputs":[{"name":"interfaceId","type":"bytes4","internalType":"bytes4"}],"outputs":[{"name":"","type":"bool","internalType":"bool"}],"stateMutability":"view"},{"type":"function","name":"usdc","inputs":[],"outputs":[{"name":"","type":"address","internalType":"address"}],"stateMutability":"view"},{"type":"event","name":"ImplementationDeployed","inputs":[{"name":"impl","type":"address","indexed":true,"internalType":"address"}],"anonymous":false},{"type":"event","name":"MarketDeployed","inputs":[{"name":"proxy","type":"address","indexed":true,"internalType":"address"},{"name":"salt","type":"bytes32","indexed":true,"internalType":"bytes32"},{"name":"question","type":"string","indexed":false,"internalType":"string"}],"anonymous":false},{"type":"event","name":"RoleAdminChanged","inputs":[{"name":"role","type":"bytes32","indexed":true,"internalType":"bytes32"},{"name":"previousAdminRole","type":"bytes32","indexed":true,"internalType":"bytes32"},{"name":"newAdminRole","type":"bytes32","indexed":true,"internalType":"bytes32"}],"anonymous":false},{"type":"event","name":"RoleGranted","inputs":[{"name":"role","type":"bytes32","indexed":true,"internalType":"bytes32"},{"name":"account","type":"address","indexed":true,"internalType":"address"},{"name":"sender","type":"address","indexed":true,"internalType":"address"}],"anonymous":false},{"type":"event","name":"RoleRevoked","inputs":[{"name":"role","type":"bytes32","indexed":true,"internalType":"bytes32"},{"name":"account","type":"address","indexed":true,"internalType":"address"},{"name":"sender","type":"address","indexed":true,"internalType":"address"}],"anonymous":false},{"type":"error","name":"AccessControlBadConfirmation","inputs":[]},{"type":"error","name":"AccessControlUnauthorizedAccount","inputs":[{"name":"account","type":"address","internalType":"address"},{"name":"neededRole","type":"bytes32","internalType":"bytes32"}]},{"type":"error","name":"NoImplementation","inputs":[]},{"type":"error","name":"SaltAlreadyUsed","inputs":[{"name":"salt","type":"bytes32","internalType":"bytes32"}]}],"bytecode":{"object":"0x610120346200014157601f62004b5738819003918201601f19168301916001600160401b03831184841017620001455780849260c09460405283398101031262000141576200004e8162000159565b906200005d6020820162000159565b6200006b6040830162000159565b620000796060840162000159565b91620000ad6200009a60a0620000926080880162000159565b960162000159565b95620000a6816200016e565b50620001de565b5060805260a05260c05260e05261010090815260405161489891826200027f83396080518281816101850152818161040a0152610875015260a0518281816101ad015281816104330152610642015260c0518281816101d50152818161045b0152610779015260e0518281816101fd0152818161048301526108ba015251818181610225015281816104ab0152610a110152f35b5f80fd5b634e487b7160e01b5f52604160045260245ffd5b51906001600160a01b03821682036200014157565b6001600160a01b03165f8181525f8051602062004b37833981519152602052604090205460ff16620001d9575f8181525f8051602062004b3783398151915260205260408120805460ff191660011790553391905f8051602062004b178339815191528180a4600190565b505f90565b6001600160a01b03165f8181527f40d6054e7c1e32abf36e71c717b2201c6fb50ee4639813ce060d4f8ffbb78bdd60205260409020547fbd5d72ac35ae1e83aa0625c57eddda63fbb064a87fca99dfdd7ce027384ae282919060ff166200027857815f525f60205260405f20815f5260205260405f20600160ff1982541617905533915f8051602062004b178339815191525f80a4600190565b50505f9056fe608060408181526004918236101562000016575f80fd5b5f3560e01c90816301ffc9a71462000a40575080630592bdc814620009fb578063248a9ca314620009d057806328eb0d0f146200099f5780632f2ff15d14620009705780633360cf5e146200093457806336568abe14620008e95780633d9f316314620008a45780633e413bee146200085f5780634534729714620007a8578063478222c2146200076357806352d84d1e146200071e5780635c60da1b14620006f457806388dd46a114620006d457806391d14854146200068d578063a217fddf1462000671578063a998d6d8146200062c578063bed280f5146200035d578063c223753e14620001565763d547741f1462000110575f80fd5b3462000152578060031936011262000152576200015091356200014a60016200013862000a97565b93835f525f6020525f20015462000c09565b62000ca8565b005b5f80fd5b50903462000152576020918260031936011262000152578051630a2ca2bd60e11b848201526001600160a01b037f0000000000000000000000000000000000000000000000000000000000000000811660248301527f0000000000000000000000000000000000000000000000000000000000000000811660448301527f0000000000000000000000000000000000000000000000000000000000000000811660648301527f0000000000000000000000000000000000000000000000000000000000000000811660848301527f00000000000000000000000000000000000000000000000000000000000000001660a4808301919091528152601f1991906200026260c48262000af8565b620002ed620002fa866102c893855190620002808387018362000af8565b8582528282019562000d1c873960015487516001600160a01b0399858201939192620002c4928491620002b791908e168762000b52565b0390810183528262000af8565b8751958693620002dd868601998a925192839162000b2f565b8401915180938684019062000b2f565b0103808452018262000af8565b519020908051908582019260ff60f81b84523060601b602184015285356035840152605583015260558252608082019482861067ffffffffffffffff8711176200034a5750849052519020168152f35b604190634e487b7160e01b5f525260245ffd5b509034620001525760a0366003190112620001525767ffffffffffffffff9181358381116200015257366023820112156200015257808301358481116200015257602491368383830101116200015257620003b762000a97565b5060843592620003c662000b8f565b6001546001600160a01b03908116929083156200061c57855f5260209860038a5281885f20541662000606578751630a2ca2bd60e11b8b8201526001600160a01b037f000000000000000000000000000000000000000000000000000000000000000081168683019081527f0000000000000000000000000000000000000000000000000000000000000000821660208201527f0000000000000000000000000000000000000000000000000000000000000000821660408201527f0000000000000000000000000000000000000000000000000000000000000000821660608201527f0000000000000000000000000000000000000000000000000000000000000000919091166080820152819060a0010395620004ee601f199788810184528362000af8565b8951926102c880850191821185831017620005f457928493926200051b928c969462000d1c863962000b52565b03905ff58015620005ea57811697865f5260038a52875f20896bffffffffffffffffffffffff60a01b8254161790556002549068010000000000000000821015620005d8575093601f86808b98968b968e968b620005a18c60017fd9f24436860d487d8256aca73e698a2097950f2139fe633e678ae01415c469b19e0160025562000aae565b909283549160031b92831b921b1916179055875198878a98895288015201868601375f85828601015201168101030190a351908152f35b60418591634e487b7160e01b5f52525ffd5b87513d5f823e3d90fd5b8760418e634e487b7160e01b5f52525ffd5b87516345d74a5360e11b8152808a018890528490fd5b86516318ce8b9560e31b81528890fd5b503462000152575f3660031901126200015257517f00000000000000000000000000000000000000000000000000000000000000006001600160a01b03168152602090f35b503462000152575f3660031901126200015257602090515f8152f35b50346200015257806003193601126200015257602091620006ad62000a97565b90355f525f8352815f209060018060a01b03165f52825260ff815f20541690519015158152f35b503462000152575f36600319011262000152576020906002549051908152f35b503462000152575f366003190112620001525760015490516001600160a01b039091168152602090f35b509034620001525760203660031901126200015257359060025482101562000152576200074d60209262000aae565b905491519160018060a01b039160031b1c168152f35b503462000152575f3660031901126200015257517f00000000000000000000000000000000000000000000000000000000000000006001600160a01b03168152602090f35b503462000152575f3660031901126200015257620007c562000b8f565b805161387f8082019082821067ffffffffffffffff8311176200084c5790829162000fe4833903905ff080156200084257600180546001600160a01b0319166001600160a01b0390921691821790559051602091807fc86adeccdfd5b96c99a63be33cf8547313ccd17729b48f0572a9fa0cd23ff7105f80a28152f35b50513d5f823e3d90fd5b604185634e487b7160e01b5f525260245ffd5b503462000152575f3660031901126200015257517f00000000000000000000000000000000000000000000000000000000000000006001600160a01b03168152602090f35b503462000152575f3660031901126200015257517f00000000000000000000000000000000000000000000000000000000000000006001600160a01b03168152602090f35b503462000152578060031936011262000152576200090662000a97565b90336001600160a01b0383160362000925575062000150913562000ca8565b5163334bd91960e11b81529050fd5b503462000152575f3660031901126200015257602090517fbd5d72ac35ae1e83aa0625c57eddda63fbb064a87fca99dfdd7ce027384ae2828152f35b503462000152578060031936011262000152576200015091356200099960016200013862000a97565b62000c2b565b5034620001525760203660031901126200015257602091355f526003825260018060a01b03815f2054169051908152f35b5034620001525760203660031901126200015257602091355f525f82526001815f2001549051908152f35b503462000152575f3660031901126200015257517f00000000000000000000000000000000000000000000000000000000000000006001600160a01b03168152602090f35b8334620001525760203660031901126200015257359063ffffffff60e01b82168092036200015257602091637965db0b60e01b811490811562000a85575b5015158152f35b6301ffc9a760e01b1490508362000a7e565b602435906001600160a01b03821682036200015257565b60025481101562000ae45760025f527f405787fa12a823e0f2b7631cc41b3ba8828b3321ca811111fa75cd3aa3bb5ace01905f90565b634e487b7160e01b5f52603260045260245ffd5b90601f8019910116810190811067ffffffffffffffff82111762000b1b57604052565b634e487b7160e01b5f52604160045260245ffd5b5f5b83811062000b415750505f910152565b818101518382015260200162000b31565b909160609260018060a01b031682526040602083015262000b83815180928160408601526020868601910162000b2f565b601f01601f1916010190565b335f9081527f40d6054e7c1e32abf36e71c717b2201c6fb50ee4639813ce060d4f8ffbb78bdd60205260409020547fbd5d72ac35ae1e83aa0625c57eddda63fbb064a87fca99dfdd7ce027384ae2829060ff161562000beb5750565b6044906040519063e2517d3f60e01b82523360048301526024820152fd5b805f525f60205260405f20335f5260205260ff60405f2054161562000beb5750565b90815f525f60205260405f209060018060a01b031690815f5260205260ff60405f205416155f1462000ca257815f525f60205260405f20815f5260205260405f20600160ff1982541617905533917f2f8788117e7eff1d82e926ec794901d17c78024a50270940304540a733656f0d5f80a4600190565b50505f90565b90815f525f60205260405f209060018060a01b031690815f5260205260ff60405f2054165f1462000ca257815f525f60205260405f20815f5260205260405f2060ff19815416905533917ff6391f5c32d9c69d2a47ea670b442974b53935d1edc7fd64eb21e047a839171b5f80a460019056fe60806040526102c8803803806100148161018e565b92833981019060408183031261018a5780516001600160a01b03811680820361018a5760208381015190936001600160401b03821161018a570184601f8201121561018a5780519061006d610068836101c7565b61018e565b9582875285838301011161018a5784905f5b8381106101765750505f9186010152813b1561015e577f360894a13ba1a3210667c828492db98dca3e2076cc3735a920a3ca505d382bbc80546001600160a01b03191682179055604051907fbc7cd75a20ee27fd9adebab32041f755214dbc6bffa90cc0225b39da2e5c2d3b5f80a283511561014057505f80848461012796519101845af4903d15610137573d610118610068826101c7565b9081525f81943d92013e6101e2565b505b604051608290816102468239f35b606092506101e2565b925050503461014f5750610129565b63b398979f60e01b8152600490fd5b60249060405190634c9c8ce360e01b82526004820152fd5b81810183015188820184015286920161007f565b5f80fd5b6040519190601f01601f191682016001600160401b038111838210176101b357604052565b634e487b7160e01b5f52604160045260245ffd5b6001600160401b0381116101b357601f01601f191660200190565b9061020957508051156101f757805190602001fd5b604051630a12f52160e11b8152600490fd5b8151158061023c575b61021a575090565b604051639996b31560e01b81526001600160a01b039091166004820152602490fd5b50803b1561021256fe60806040527f360894a13ba1a3210667c828492db98dca3e2076cc3735a920a3ca505d382bbc545f9081906001600160a01b0316368280378136915af43d5f803e156048573d5ff35b3d5ffdfea2646970667358221220b8c0da1d18179864b78b983aeeee1a653b74358ebafe65f049be0409754489ff64736f6c6343000818003360a08060405234620000d157306080527ff0c57e16840df040f15088dc2f81fe391c3923bec73e23a9662efc9c229c6a009081549060ff8260401c16620000c257506001600160401b036002600160401b0319828216016200007c575b6040516137a99081620000d682396080518181816116fa01526117b50152f35b6001600160401b031990911681179091556040519081527fc7f505b2f371ae2175ee4913f4499e1f2633a7b5936321eed1cdaeb6115181d290602090a15f80806200005c565b63f92ee8a960e01b8152600490fd5b5f80fdfe6080806040526004361015610012575f80fd5b5f905f3560e01c90816301ffc9a714612ba3575080631459457a1461299c5780632427520114612275578063248a9ca31461223c578063249d39e91461221f5780632b8d985d146121da5780632f2ff15d1461219057806336568abe146121485780633d9f31631461211f5780633e413bee146120f65780633f4ba83a1461207f578063422f104314611cfa578063478222c214611cd15780634c5b59a5146119d95780634f1ef2861461176457806352d1902d146116e75780635c975abb146116b85780636399d03d1461152d57806366f390e51461114d5780638456cb59146110e6578063857620e114610d7957806391d1485414610d235780639b29429d146109a8578063a217fddf1461098c578063a998d6d814610963578063ad3cb1cc146108f3578063ae42820c146108b8578063bf333f2c1461089c578063c0a027f4146107fc578063d547741f146107ae578063e63ab1e914610773578063e650e22c14610749578063e94581321461046f578063eb44fdd314610204578063ec979082146101e75763f72c0d8b146101aa575f80fd5b346101e457806003193601126101e45760206040517f189ab7a9244df0848122154315af71fe140f3db0fe014031783b0946b8c9d2e38152f35b80fd5b50346101e457806003193601126101e45760209054604051908152f35b50346101e45760203660031901126101e4578061016060405161022681612c3c565b828152606060208201528260408201528260608201528260808201528260a08201528260c08201528260e0820152826101008201528261012082015282610140820152015260043581526001602052604081206040519161028683612c3c565b8154835260405190818160018501549261029f84612d7c565b808452936001811690811561044d5750600114610409575b506102c492500382612c86565b602083015260018060a01b03600282015416604083015260018060a01b0360038201541660608301526004810154608083015260ff600582015481811660a085015260081c16151560c0830152600681015460e0830152600781015461010083015260088101546101208301526009810154610140830152600a60018060a01b03910154166101608201526040518091602082528051602083015261037a602082015161018060408501526101a0840190612d20565b9060018060a01b03604082015116606084015260018060a01b036060820151166080840152608081015160a084015260ff60a08201511660c084015260c0810151151560e084015260e081015161010084015261010081015161012084015261012081015161014084015261014081015161016084015261016060018060a01b03910151166101808301520390f35b91929050600185018252602082205b8183106104315750509060206102c4928201015f6102b7565b6020919350806001915483858801015201910190918392610418565b9050602092506102c494915060ff191682840152151560051b8201015f6102b7565b50346101e45760403660031901126101e45760243560043561048f6131c1565b6104976131f0565b8115610737578083526020600181526040842060ff600582015460081c1661071e576006016104c7848254612e18565b90558360018060a01b036104e38582600654163090339061324c565b806004541660405191630e729dc360e41b83528560048401528483602481855afa9283156107135784936106e1575b50604051633c39b35760e01b815260048101879052918583602481845afa92831561069c5785936106ab575b50803b156106a75760405163731133e960e01b808252336004830152602482019590955260448101899052608060648201525f6084820152908590829060a490829084905af190811561069c578591610688575b50506004541691823b1561067957604051908152336004820152602481019190915260448101869052608060648201525f6084820152908290829060a490829084905af1801561067d57610665575b5090827f737c31e51f67d27e2750b581a4237bd09098e40b15646d49a96b877ba02e2c289252600881526040852060018652815260408520610624858254612e18565b9055828552600881526040852060028652815260408520610646858254612e18565b90556040519384523393a360015f805160206137548339815191525580f35b61066e90612c58565b61067957835f6105e1565b8380fd5b6040513d84823e3d90fd5b61069190612c58565b61067957835f610592565b6040513d87823e3d90fd5b8480fd5b945091508484813d81116106da575b6106c48183612c86565b810103126106d657879351915f61053e565b5f80fd5b503d6106ba565b935091508383813d811161070c575b6106fa8183612c86565b810103126106d657869251915f610512565b503d6106f0565b6040513d86823e3d90fd5b60405163ed5d23e160e01b815260048101849052602490fd5b604051631f2a200560e01b8152600490fd5b50346101e45760203660031901126101e45760406020916004358152600383522054604051908152f35b50346101e457806003193601126101e45760206040517f65d7a28e3265b37a6474929f336521b332c1681b933f6cb9f3376673440d862a8152f35b50346101e45760403660031901126101e4576107f86004356107ce612c0c565b908084525f805160206137148339815191526020526107f36001604086200154613193565b6132a6565b5080f35b50346101e45760403660031901126101e45760243560ff81168091036106d6576001811490811580610891575b6108795750604060209260043581526001845220905f1461086057806007600861085893015491015490613558565b604051908152f35b806008600761087493015491015490613558565b610858565b60249060405190634262666360e01b82526004820152fd5b506002811415610829565b50346101e457806003193601126101e4576020604051601e8152f35b50346101e457806003193601126101e45760206040517fd3065a24ad9e7725d223007135762d2902038999e3e5829146654498a58d97958152f35b50346101e457806003193601126101e45760405160408101908082106001600160401b0383111761094f5761094b9160405260058152640352e302e360dc1b6020820152604051918291602083526020830190612d20565b0390f35b634e487b7160e01b5f52604160045260245ffd5b50346101e457806003193601126101e4576004546040516001600160a01b039091168152602090f35b50346101e457806003193601126101e457602090604051908152f35b50346101e4576109b736612cf8565b92906109c16131c1565b6109c96131f0565b80156107375760ff8316946001861495861580610d18575b610879575082815260209560018752604082209060ff600583015460081c16610cff576007820191825460088201805491845f14610cf557610a2581845b8a613366565b96909b808d10610cd75750610a3a878a612e38565b8615610cba57610a4a9085612e18565b93610a558d84612e38565b925b0284830210610c9c5755556009018054610a72908490612e18565b90556006546001600160a01b039290610a9290869030903390871661324c565b610aa68184600654168560055416906133ea565b826005541690813b156106a7578491602483926040519485938492630ebdac0960e41b845260048401525af1801561071357908491610c88575b505015610c2557602487826004541660405192838092630e729dc360e41b82528960048301525afa908115610c1a578391610bed575b50905b6004541690813b15610be957829160c483926040519485938492637921219560e11b845230600485015233602485015260448401528b606484015260a060848401528160a48401525af1801561067d5790869291610bd1575b50506040805160ff909516855260208501929092529083015233917f06d7ac7735ee990694c708724f65610c76c781176d9729adc9e266444527294a9080606081015b0390a360015f8051602061375483398151915255604051908152f35b819250610bdd90612c58565b6101e457808591610b72565b8280fd5b90508781813d8311610c13575b610c048183612c86565b810103126106d657515f610b16565b503d610bfa565b6040513d85823e3d90fd5b602487826004541660405192838092633c39b35760e01b82528960048301525afa908115610c1a578391610c5b575b5090610b19565b90508781813d8311610c81575b610c728183612c86565b810103126106d657515f610c54565b503d610c68565b610c9190612c58565b610be957825f610ae0565b6044886040519063a17e11d560e01b82528060048301526024820152fd5b610cc690839593612e18565b91610cd18d82612e38565b94610a57565b6044908d604051916371c4efed60e01b835260048301526024820152fd5b610a258382610a1f565b60405163ed5d23e160e01b815260048101869052602490fd5b5060028114156109e1565b50346101e45760403660031901126101e4576040610d3f612c0c565b9160043581525f80516020613714833981519152602052209060018060a01b03165f52602052602060ff60405f2054166040519015158152f35b50346101e457610d8836612c22565b610d939291926131c1565b821561073757818452602060018152604085206002825260408620335f52825260405f20548581106110c857508386526003825260408620549060068101610de583610de083548a612e25565b612d5e565b948086106110aa57506007820192610e156008610e0783610de088548d612e25565b940191610de083548b612e25565b93878a526002865260408a20335f52865260405f20610e358a8254612e38565b9055878a526003865260408a20610e4d8a8254612e38565b9055610e5a848254612e38565b9055610e67848254612e38565b9055610e74858254612e38565b905560048054604051630e729dc360e41b815291820187905290916001600160a01b0391899083168685602481845afa94851561067d578295611077575b50604051633c39b35760e01b8152600481018a9052908782602481845afa918215610c1a578392611045575b50803b15610be957604051637a94c56560e11b8082523060048301526024820197909752604481018590529083908290606490829084905af1908115610c1a57839161102d575b5050836004541694853b15610be9576040519081523060048201526024810191909152604481018690529381908590606490829084905af1938415611020578794611003575b509087610fc09592526008865260408a2060018b528652610f9160408b20918254612e38565b9055868952600885526040892060028a528552610fb360408a20918254612e38565b9055339060065416613325565b6040519384528301527f196a4bf617b45641f176c4e6d288ccf7498f1699f68b1cc1e4daadf92779703b60403393a360015f805160206137548339815191525580f35b61100f91929450612c58565b61101c578491885f610f6b565b8780fd5b50604051903d90823e3d90fd5b61103690612c58565b61104157815f610f25565b5080fd5b925090508682813d8111611070575b61105e8183612c86565b810103126106d6578a9151905f610ede565b503d611054565b87809296508193503d83116110a3575b6110918183612c86565b810103126106d657899051935f610eb2565b503d611087565b60449086604051916371c4efed60e01b835260048301526024820152fd5b604490866040519163a17e11d560e01b835260048301526024820152fd5b50346101e457806003193601126101e4576110ff613138565b6111076131f0565b5f80516020613734833981519152600160ff198254161790557f62e78cea01bee320cd4e420270b5ea74000d11b0c9f74754ebdbfc544b05a2586020604051338152a180f35b50346101e45761115c36612cf8565b92906111666131c1565b61116e6131f0565b801561073757600160ff841614158061151f575b6115045781855260209460018652604081209060ff600583015460081c166114eb5760078201546008830154929060ff87166001036114e1576111c784825b87613366565b50601e810294818604601e14821517156114cd576111e9612710870483612e38565b99808b106114af575060ff89166001036114925761121161120a8885612e18565b9282612e38565b925b02828202106114745760078301556008820155600901805461123a90612710850490612e18565b9055838152600887526040812060ff86165f52875260405f2061125e848254612e38565b905560ff85166001036114075760048054604051630e729dc360e41b81529182018690528890829060249082906001600160a01b03165afa90811561067d5782916113da575b50915b6004546001600160a01b039390841690813b1561067957604051637a94c56560e11b81523360048201526024810191909152604481018690529083908290606490829084905af18015610c1a579083916113c6575b505061131783600654166127108304908560055416906133ea565b826005541690813b15610be95761271060248492836040519586948593630ebdac0960e41b85520460048401525af1801561067d5790879392916113ac575b50509161138a827f4ddd7b8b24dbfafa44373fdda1441f9a9fa3349ce66fa235df8e421e314e516494339060065416613325565b6040805160ff9096168652602086019190915284015233928060608101610bb5565b819293506113b990612c58565b6101e45790818692611356565b6113cf90612c58565b61104157815f6112fc565b90508781813d8311611400575b6113f18183612c86565b810103126106d657515f6112a4565b503d6113e7565b60048054604051633c39b35760e01b81529182018690528890829060249082906001600160a01b03165afa90811561067d578291611447575b50916112a7565b90508781813d831161146d575b61145e8183612c86565b810103126106d657515f611440565b503d611454565b6044846040519063a17e11d560e01b82528060048301526024820152fd5b6114a96114a28883959495612e18565b9383612e38565b91611213565b6044908b604051916371c4efed60e01b835260048301526024820152fd5b634e487b7160e01b85526011600452602485fd5b6111c781856111c1565b60405163ed5d23e160e01b815260048101859052602490fd5b604051634262666360e01b815260ff84166004820152602490fd5b50600260ff84161415611182565b50346101e45760203660031901126101e45760043561154a6131c1565b8082526001602052604082206005810180549160ff8360081c166114eb57600481015480421061169a5750604060018060a01b03600381600754169301541660248251809481936302c68be360e31b835260048301525afa801561069c5785918691611661575b50610e0f19420142811161164d57811061162f575091602091857f739f283563fb51ab6b89ee95d937b2e63a6cfcb83c385dbebb629f9d97bd43e694135f146116235761010060ff60015b16809361ffff191617179055604051908152a260015f805160206137548339815191525580f35b61010060ff60026115fc565b604490604051906304e61d6960e31b82526004820152426024820152fd5b634e487b7160e01b87526011600452602487fd5b9150506040813d604011611692575b8161167d60409383612c86565b810103126106a757602081519101515f6115b1565b3d9150611670565b6044906040519063a10a3e6f60e01b82526004820152426024820152fd5b50346101e457806003193601126101e457602060ff5f8051602061373483398151915254166040519015158152f35b50346101e457806003193601126101e4577f00000000000000000000000000000000000000000000000000000000000000006001600160a01b031630036117525760206040517f360894a13ba1a3210667c828492db98dca3e2076cc3735a920a3ca505d382bbc8152f35b60405163703e46dd60e11b8152600490fd5b5060403660031901126101e457611779612bf6565b60249182356001600160401b0381116110415736602382011215611041576117aa9036908581600401359101612cc2565b6001600160a01b03927f000000000000000000000000000000000000000000000000000000000000000084163081149081156119ab575b5061175257335f9081527fab71e3f32666744d246edff3f96e4bdafee2e9867098cdd118a979a7464786a860209081526040909120549094907f189ab7a9244df0848122154315af71fe140f3db0fe014031783b0946b8c9d2e39060ff161561198e57508116936040516352d1902d60e01b81528181600481895afa85918161195b575b5061188257604051634c9c8ce360e01b8152600481018790528790fd5b8590877f360894a13ba1a3210667c828492db98dca3e2076cc3735a920a3ca505d382bbc918281036119465750843b15611930575080546001600160a01b031916821790556040518592917fbc7cd75a20ee27fd9adebab32041f755214dbc6bffa90cc0225b39da2e5c2d3b8480a2845115611913575083516107f894839201845af461190d613661565b91613690565b935050505034611921575080f35b63b398979f60e01b8152600490fd5b604051634c9c8ce360e01b815260048101849052fd5b60405190632a87526960e21b82526004820152fd5b9091508281813d8311611987575b6119738183612c86565b810103126119835751905f611865565b8580fd5b503d611969565b866044916040519163e2517d3f60e01b8352336004840152820152fd5b9050847f360894a13ba1a3210667c828492db98dca3e2076cc3735a920a3ca505d382bbc541614155f6117e1565b50346101e457602080600319360112611041576004356119f76131c1565b808352600182526040832091600583015460ff8160081c1615611cb85760ff169060018203611c4b5760048054604051630e729dc360e41b81529182018590528290829060249082906001600160a01b03165afa908115611c40578691611c13575b50915b60048054604051627eeac760e11b81523392810192909252602482018590526001600160a01b039491929084908490604490829089165afa928315611c08578893611bd9575b508215610737578588526008845260408820815f52845260405f2054968715611bb95790600689939201611ae6611adf82549a610de08c89612e25565b809a612e38565b90558683526008855260408320905f52845260405f20611b07848254612e38565b9055846004541692833b15610be957604051637a94c56560e11b8152336004820152602481019290925260448201529181908390606490829084905af1918215611020578692611ba2575b5050611b85907fa5b5f999d356bb14d51114327e0f0eefeed3a4083169d023dd7fe6744ca1517493339060065416613325565b6040519384523393a360015f805160206137548339815191525580f35b611bad919250612c58565b6106a75783855f611b52565b60405163a17e11d560e01b8152600481018a905260016024820152604490fd5b9092508381813d8311611c01575b611bf18183612c86565b810103126106d65751915f611aa2565b503d611be7565b6040513d8a823e3d90fd5b90508181813d8311611c39575b611c2a8183612c86565b810103126106d657515f611a59565b503d611c20565b6040513d88823e3d90fd5b60048054604051633c39b35760e01b81529182018590528290829060249082906001600160a01b03165afa908115611c40578691611c8b575b5091611a5c565b90508181813d8311611cb1575b611ca28183612c86565b810103126106d657515f611c84565b503d611c98565b604051635be8412760e01b815260048101849052602490fd5b50346101e457806003193601126101e4576005546040516001600160a01b039091168152602090f35b50346101e457611d0936612c22565b611d149291926131c1565b611d1c6131f0565b821561073757818452602090600182526040852060ff600582015460081c166114eb57600681018054908588526003855260408820548781158015612077575b1561203857611d6b915061321a565b918760011c9384955b80851061201a5750611da89160088260078c9401611d93898254612e18565b905501611da1888254612e18565b9055612e18565b90558487526002845260408720335f52845260405f20611dc9828254612e18565b905584875260038452611de160408820918254612e18565b90558560018060a01b03611dfd8782600654163090339061324c565b806004541660405191630e729dc360e41b83528760048401528683602481855afa928315610713578493611fe8575b50604051633c39b35760e01b815260048101899052918783602481845afa92831561069c578593611fb6575b50803b156106a75760405163731133e960e01b808252306004830152602482019590955260448101879052608060648201525f6084820152908590829060a490829084905af190811561069c578591611fa2575b50506004541691823b1561067957604051908152306004820152602481019190915260448101859052608060648201525f6084820152908290829060a490829084905af1801561067d57611f8e575b5092847f089607a52cca0d390ff7d0ad4e97545804dcc41418e1daee9ec3948596fec9449452600881526040872060018852815260408720611f3e838254612e18565b9055848752600881526040872090600288525260408620611f60838254612e18565b90556040805195865260208601919091528401523392606090a360015f805160206137548339815191525580f35b611f9790612c58565b61198357855f611efb565b611fab90612c58565b61067957835f611eac565b945091508684813d8111611fe1575b611fcf8183612c86565b810103126106d657899351915f611e58565b503d611fc5565b935091508583813d8111612013575b6120018183612c86565b810103126106d657889251915f611e2c565b503d611ff7565b60449085604051916371c4efed60e01b835260048301526024820152fd5b9361207184610de061206a82610de061205e82610de08d9a9e9c9a60078b015490612e25565b9a600888015490612e25565b988c612e25565b93611d74565b508315611d5c565b50346101e457806003193601126101e457612098613138565b5f80516020613734833981519152805460ff8116156120e45760ff191690557f5db9ee0a495bf2e6ff9c91a7834c1ba4fdd244a5e8aa4e537bd38aeae4b073aa6020604051338152a180f35b604051638dfc202b60e01b8152600490fd5b50346101e457806003193601126101e4576006546040516001600160a01b039091168152602090f35b50346101e457806003193601126101e4576007546040516001600160a01b039091168152602090f35b50346101e45760403660031901126101e457612162612c0c565b336001600160a01b0382160361217e576107f8906004356132a6565b60405163334bd91960e11b8152600490fd5b50346101e45760403660031901126101e4576107f86004356121b0612c0c565b908084525f805160206137148339815191526020526121d56001604086200154613193565b6130c8565b50346101e45760403660031901126101e45760406121f6612c0c565b9160043581526002602052209060018060a01b03165f52602052602060405f2054604051908152f35b50346101e457806003193601126101e45760206040516127108152f35b50346101e45760203660031901126101e4576001604060209260043581525f805160206137148339815191528452200154604051908152f35b50346106d65760803660031901126106d6576004356001600160401b0381116106d657366023820112156106d6576001600160401b038160040135116106d6573660248260040135830101116106d6576122cd612c0c565b335f9081527f4985277e13e79c80ffb67516cc1ac6faf62ca5f0183ddecb95001c002084695160205260409020549092907fd3065a24ad9e7725d223007135762d2902038999e3e5829146654498a58d97959060ff161561297e57506123316131c1565b6123396131f0565b81600401351561296c576001600160a01b0383161561295a574260443511156129495760643515610737575f54915f19831461293557600183015f55600654604051906001600160a01b031661238e82612c3c565b6001850182526123a636846004013560248601612cc2565b6020830152604082015260018060a01b038516606082015260443560808201525f60a08201525f60c082015260643560e082015260643560011c61010082015260643560011c6101208201525f61014082015233610160820152600184015f52600160205260405f208151815560208201518051906001600160401b03821161094f5781906124386001850154612d7c565b601f81116128e5575b50602090601f8311600114612877575f9261286c575b50508160011b915f199060031b1c19161760018201555b600a600282019160018060a01b03604085015116926bffffffffffffffffffffffff60a01b93848254161790556003810160018060a01b0360608601511684825416179055608084015160048201556005810160ff60a08601511681549061ff0060c0880151151560081b169161ffff19161717905560e08401516006820155610100840151600782015561012084015160088201556101408401516009820155019161016060018060a01b03910151169082541617905561253160643561321a565b600184015f52600260205260405f20335f526020528060405f2055600184015f52600360205260405f205561257760018060a01b0360065416606435903090339061324c565b60048054604051630e729dc360e41b815260018601928101929092529094906001600160a01b0316602086602481845afa9586156127fb575f96612838575b50604051633c39b35760e01b8152600186016004820152602081602481855afa9081156127fb575f91612806575b50604051906125f282612c6b565b6002825260403660208401376040519761260b89612c6b565b6002895260403660208b013761262083612db4565b5261262a82612dd5565b5260643560011c61263a88612db4565b5260643560011c61264a88612dd5565b52813b156106d6575f91612687918360206126996040519b8c968795630fbfeffd60e11b8752306004880152608060248801526084870190612de5565b85810360031901604487015290612de5565b8284820391600319830160648701525201925af19485156127fb576020956127e8575b506001840183526008855260408320600184528552604083206126e560643560011c8254612e18565b905560018401835260088552604083206002845285526040832061270f60643560011c8254612e18565b90556040519260408452826004013560408501528260040135602484016060860137606083600401358501015260018060a01b0316848301527f29841fb89b1be7c2e8fe39ff2597687a4e76f27a64bcf82bd394ab4ef16e27f433926060816001870194601f8019916004013501168101030190a360408051606435808252600190811c602083018190529282019290925233918301907f089607a52cca0d390ff7d0ad4e97545804dcc41418e1daee9ec3948596fec94490606090a360015f8051602061375483398151915255600160405191018152f35b6127f3919350612c58565b5f915f6126bc565b6040513d5f823e3d90fd5b90506020813d602011612830575b8161282160209383612c86565b810103126106d657515f6125e4565b3d9150612814565b9095506020813d602011612864575b8161285460209383612c86565b810103126106d65751945f6125b6565b3d9150612847565b015190505f80612457565b9250600184015f5260205f20905f935b601f19841685106128ca576001945083601f198116106128b2575b505050811b01600182015561246e565b01515f1960f88460031b161c191690555f80806128a2565b81810151835560209485019460019093019290910190612887565b909150600184015f5260205f20601f840160051c81016020851061292e575b90849392915b601f830160051c82018110612920575050612441565b5f815585945060010161290a565b5080612904565b634e487b7160e01b5f52601160045260245ffd5b6040516282a4d560e51b8152600490fd5b6040516301f86e1760e41b8152600490fd5b60405163103c380960e31b8152600490fd5b6044906040519063e2517d3f60e01b82523360048301526024820152fd5b346106d65760a03660031901126106d6576129b5612bf6565b6129bd612c0c565b6001600160a01b0360443581811693908490036106d6576064358281168091036106d6576084359183831683036106d6577ff0c57e16840df040f15088dc2f81fe391c3923bec73e23a9662efc9c229c6a009586549460ff8660401c1615966001600160401b03871680159081612b9b575b6001149081612b91575b159081612b88575b50612b765767ffffffffffffffff1987166001178955612b139688612b57575b50612a6a613597565b612a72613597565b612a7a613597565b612a82613597565b60015f8051602061375483398151915255612a9b613597565b612aa3613597565b5f8051602061373483398151915260ff198154169055816bffffffffffffffffffffffff60a01b9416846006541617600655168260045416176004558160055416176005556007541617600755612af981612e45565b50612b0381612ecf565b50612b0d81612f7c565b50613022565b50612b1a57005b68ff00000000000000001981541690557fc7f505b2f371ae2175ee4913f4499e1f2633a7b5936321eed1cdaeb6115181d2602060405160018152a1005b68ffffffffffffffffff19166801000000000000000117895589612a61565b60405163f92ee8a960e01b8152600490fd5b9050158a612a41565b303b159150612a39565b899150612a2f565b346106d65760203660031901126106d6576004359063ffffffff60e01b82168092036106d657602091637965db0b60e01b8114908115612be5575b5015158152f35b6301ffc9a760e01b14905083612bde565b600435906001600160a01b03821682036106d657565b602435906001600160a01b03821682036106d657565b60609060031901126106d657600435906024359060443590565b61018081019081106001600160401b0382111761094f57604052565b6001600160401b03811161094f57604052565b606081019081106001600160401b0382111761094f57604052565b90601f801991011681019081106001600160401b0382111761094f57604052565b6001600160401b03811161094f57601f01601f191660200190565b929192612cce82612ca7565b91612cdc6040519384612c86565b8294818452818301116106d6578281602093845f960137010152565b60809060031901126106d6576004359060243560ff811681036106d657906044359060643590565b91908251928382525f5b848110612d4a575050825f602080949584010152601f8019910116010190565b602081830181015184830182015201612d2a565b8115612d68570490565b634e487b7160e01b5f52601260045260245ffd5b90600182811c92168015612daa575b6020831014612d9657565b634e487b7160e01b5f52602260045260245ffd5b91607f1691612d8b565b805115612dc15760200190565b634e487b7160e01b5f52603260045260245ffd5b805160011015612dc15760400190565b9081518082526020808093019301915f5b828110612e04575050505090565b835185529381019392810192600101612df6565b9190820180921161293557565b8181029291811591840414171561293557565b9190820391821161293557565b6001600160a01b03165f8181527fb7db2dd08fcb62d0c9e08c51941cae53c267786a0b75803fb7960902fc8ef97d60205260409020545f805160206137148339815191529060ff16612ec9575f805260205260405f20815f5260205260405f20600160ff1982541617905533905f5f805160206136f48339815191528180a4600190565b50505f90565b6001600160a01b03165f8181527f4985277e13e79c80ffb67516cc1ac6faf62ca5f0183ddecb95001c002084695160205260409020547fd3065a24ad9e7725d223007135762d2902038999e3e5829146654498a58d979591905f805160206137148339815191529060ff16612f7557825f5260205260405f20815f5260205260405f20600160ff1982541617905533915f805160206136f48339815191525f80a4600190565b5050505f90565b6001600160a01b03165f8181527f75442b0a96088b5456bc4ed01394c96a4feec0f883c9494257d76b96ab1c9b6b60205260409020547f65d7a28e3265b37a6474929f336521b332c1681b933f6cb9f3376673440d862a91905f805160206137148339815191529060ff16612f7557825f5260205260405f20815f5260205260405f20600160ff1982541617905533915f805160206136f48339815191525f80a4600190565b6001600160a01b03165f8181527fab71e3f32666744d246edff3f96e4bdafee2e9867098cdd118a979a7464786a860205260409020547f189ab7a9244df0848122154315af71fe140f3db0fe014031783b0946b8c9d2e391905f805160206137148339815191529060ff16612f7557825f5260205260405f20815f5260205260405f20600160ff1982541617905533915f805160206136f48339815191525f80a4600190565b90815f525f805160206137148339815191528060205260405f209160018060a01b031691825f5260205260ff60405f205416155f14612f7557825f5260205260405f20815f5260205260405f20600160ff1982541617905533915f805160206136f48339815191525f80a4600190565b335f9081527f75442b0a96088b5456bc4ed01394c96a4feec0f883c9494257d76b96ab1c9b6b60205260409020547f65d7a28e3265b37a6474929f336521b332c1681b933f6cb9f3376673440d862a9060ff161561297e5750565b805f525f8051602061371483398151915260205260405f20335f5260205260ff60405f2054161561297e5750565b5f8051602061375483398151915260028154146131de5760029055565b604051633ee5aeb560e01b8152600490fd5b60ff5f80516020613734833981519152541661320857565b60405163d93c066560e01b8152600490fd5b908115613247578160018082811c01915b84831061323757505050565b9193508382048401811c9161322b565b5f9150565b6040516323b872dd60e01b60208201526001600160a01b03928316602482015292909116604483015260648083019390935291815260a08101918183106001600160401b0384111761094f576132a4926040526135f0565b565b90815f525f805160206137148339815191528060205260405f209160018060a01b031691825f5260205260ff60405f2054165f14612f7557825f5260205260405f20815f5260205260405f2060ff19815416905533917ff6391f5c32d9c69d2a47ea670b442974b53935d1edc7fd64eb21e047a839171b5f80a4600190565b60405163a9059cbb60e01b60208201526001600160a01b039290921660248301526044808301939093529181526132a491613361606483612c86565b6135f0565b919290801580156133e2575b6133d057601e830290838204601e1484151715612935576133ae61339e6127106133b494048096612e38565b6133a88188612e25565b92612e18565b90612d5e565b928310156133be57565b60405163ac94b05160e01b8152600490fd5b604051632fa17c5f60e11b8152600490fd5b508315613372565b604051636eb1769f60e11b81523060048201526001600160a01b038381166024830181905260209591841694909290918682604481895afa80156127fb575f90613529575b6134399250612e18565b60405163095ea7b360e01b8782018181526001600160a01b039490941660248301526044808301939093529181529490915f908190613479606489612c86565b87519082855af190613489613661565b826134f6575b50816134eb575b50156134a4575b5050505050565b6040519485015260248401525f604484015260448352608083018381106001600160401b0382111761094f576134e19361336191604052826135f0565b5f8080808061349d565b90503b15155f613496565b809192505190878215928315613511575b505050905f61348f565b61352193508201810191016135d8565b5f8781613507565b508682813d8311613551575b61353f8183612c86565b810103126106d657613439915161342f565b503d613535565b8015801561358f575b6133d057670de0b6b3a7640000908183029183830414831517156129355761358c926133ae91612e18565b90565b508115613561565b60ff7ff0c57e16840df040f15088dc2f81fe391c3923bec73e23a9662efc9c229c6a005460401c16156135c657565b604051631afcd79f60e31b8152600490fd5b908160209103126106d6575180151581036106d65790565b5f806136189260018060a01b03169360208151910182865af1613611613661565b9083613690565b8051908115159182613646575b505061362e5750565b60249060405190635274afe760e01b82526004820152fd5b61365992506020809183010191016135d8565b155f80613625565b3d1561368b573d9061367282612ca7565b916136806040519384612c86565b82523d5f602084013e565b606090565b906136b757508051156136a557805190602001fd5b604051630a12f52160e11b8152600490fd5b815115806136ea575b6136c8575090565b604051639996b31560e01b81526001600160a01b039091166004820152602490fd5b50803b156136c056fe2f8788117e7eff1d82e926ec794901d17c78024a50270940304540a733656f0d02dd7bc7dec4dceedda775e58dd541e08a116c6c53815c0bd028192f7b626800cd5ed15c6e187e77e9aee88184c21f4f2182ab5827cb3b7e07fbedcd63f033009b779b17422d0df92223018b32b4d1fa46e071723d6817e2486d003becc55f00a2646970667358221220d279f1ad3d4fb67e6b9d99f6e7ed7aca35d4dfb2793c3d9581d49618ca1c993464736f6c63430008180033a2646970667358221220434e269e855d57183227d9978760cd57dde70291fb5fbf644d39be6af1d7304f64736f6c634300081800332f8788117e7eff1d82e926ec794901d17c78024a50270940304540a733656f0dad3228b676f7d3cd4284a5443f17f1962b36e491b30a40b2405849e597ba5fb5","linkReferences":{}},"methodIdentifiers":{"DEFAULT_ADMIN_ROLE()":"a217fddf","FACTORY_ADMIN_ROLE()":"3360cf5e","allMarkets(uint256)":"52d84d1e","allMarketsLength()":"88dd46a1","deployImplementation()":"45347297","deployMarket(string,address,uint256,uint256,bytes32)":"bed280f5","feeVault()":"478222c2","getRoleAdmin(bytes32)":"248a9ca3","grantRole(bytes32,address)":"2f2ff15d","hasRole(bytes32,address)":"91d14854","implementation()":"5c60da1b","marketAdmin()":"0592bdc8","oracleAdapter()":"3d9f3163","outcomeToken()":"a998d6d8","predictMarketAddress(bytes32)":"c223753e","renounceRole(bytes32,address)":"36568abe","revokeRole(bytes32,address)":"d547741f","saltToMarket(bytes32)":"28eb0d0f","supportsInterface(bytes4)":"01ffc9a7","usdc()":"3e413bee"},"id":37}