{"abi":[{"type":"constructor","inputs":[{"name":"admin","type":"address","internalType":"address"},{"name":"uri_","type":"string","internalType":"string"}],"stateMutability":"nonpayable"},{"type":"function","name":"DEFAULT_ADMIN_ROLE","inputs":[],"outputs":[{"name":"","type":"bytes32","internalType":"bytes32"}],"stateMutability":"view"},{"type":"function","name":"MARKET_ROLE","inputs":[],"outputs":[{"name":"","type":"bytes32","internalType":"bytes32"}],"stateMutability":"view"},{"type":"function","name":"balanceOf","inputs":[{"name":"account","type":"address","internalType":"address"},{"name":"id","type":"uint256","internalType":"uint256"}],"outputs":[{"name":"","type":"uint256","internalType":"uint256"}],"stateMutability":"view"},{"type":"function","name":"balanceOfBatch","inputs":[{"name":"accounts","type":"address[]","internalType":"address[]"},{"name":"ids","type":"uint256[]","internalType":"uint256[]"}],"outputs":[{"name":"","type":"uint256[]","internalType":"uint256[]"}],"stateMutability":"view"},{"type":"function","name":"burn","inputs":[{"name":"from","type":"address","internalType":"address"},{"name":"id","type":"uint256","internalType":"uint256"},{"name":"amount","type":"uint256","internalType":"uint256"}],"outputs":[],"stateMutability":"nonpayable"},{"type":"function","name":"getRoleAdmin","inputs":[{"name":"role","type":"bytes32","internalType":"bytes32"}],"outputs":[{"name":"","type":"bytes32","internalType":"bytes32"}],"stateMutability":"view"},{"type":"function","name":"grantRole","inputs":[{"name":"role","type":"bytes32","internalType":"bytes32"},{"name":"account","type":"address","internalType":"address"}],"outputs":[],"stateMutability":"nonpayable"},{"type":"function","name":"hasRole","inputs":[{"name":"role","type":"bytes32","internalType":"bytes32"},{"name":"account","type":"address","internalType":"address"}],"outputs":[{"name":"","type":"bool","internalType":"bool"}],"stateMutability":"view"},{"type":"function","name":"isApprovedForAll","inputs":[{"name":"account","type":"address","internalType":"address"},{"name":"operator","type":"address","internalType":"address"}],"outputs":[{"name":"","type":"bool","internalType":"bool"}],"stateMutability":"view"},{"type":"function","name":"mint","inputs":[{"name":"to","type":"address","internalType":"address"},{"name":"id","type":"uint256","internalType":"uint256"},{"name":"amount","type":"uint256","internalType":"uint256"},{"name":"data","type":"bytes","internalType":"bytes"}],"outputs":[],"stateMutability":"nonpayable"},{"type":"function","name":"mintBatch","inputs":[{"name":"to","type":"address","internalType":"address"},{"name":"ids","type":"uint256[]","internalType":"uint256[]"},{"name":"amounts","type":"uint256[]","internalType":"uint256[]"},{"name":"data","type":"bytes","internalType":"bytes"}],"outputs":[],"stateMutability":"nonpayable"},{"type":"function","name":"noTokenId","inputs":[{"name":"marketId","type":"uint256","internalType":"uint256"}],"outputs":[{"name":"","type":"uint256","internalType":"uint256"}],"stateMutability":"pure"},{"type":"function","name":"renounceRole","inputs":[{"name":"role","type":"bytes32","internalType":"bytes32"},{"name":"callerConfirmation","type":"address","internalType":"address"}],"outputs":[],"stateMutability":"nonpayable"},{"type":"function","name":"revokeRole","inputs":[{"name":"role","type":"bytes32","internalType":"bytes32"},{"name":"account","type":"address","internalType":"address"}],"outputs":[],"stateMutability":"nonpayable"},{"type":"function","name":"safeBatchTransferFrom","inputs":[{"name":"from","type":"address","internalType":"address"},{"name":"to","type":"address","internalType":"address"},{"name":"ids","type":"uint256[]","internalType":"uint256[]"},{"name":"values","type":"uint256[]","internalType":"uint256[]"},{"name":"data","type":"bytes","internalType":"bytes"}],"outputs":[],"stateMutability":"nonpayable"},{"type":"function","name":"safeTransferFrom","inputs":[{"name":"from","type":"address","internalType":"address"},{"name":"to","type":"address","internalType":"address"},{"name":"id","type":"uint256","internalType":"uint256"},{"name":"value","type":"uint256","internalType":"uint256"},{"name":"data","type":"bytes","internalType":"bytes"}],"outputs":[],"stateMutability":"nonpayable"},{"type":"function","name":"setApprovalForAll","inputs":[{"name":"operator","type":"address","internalType":"address"},{"name":"approved","type":"bool","internalType":"bool"}],"outputs":[],"stateMutability":"nonpayable"},{"type":"function","name":"supportsInterface","inputs":[{"name":"interfaceId","type":"bytes4","internalType":"bytes4"}],"outputs":[{"name":"","type":"bool","internalType":"bool"}],"stateMutability":"view"},{"type":"function","name":"uri","inputs":[{"name":"","type":"uint256","internalType":"uint256"}],"outputs":[{"name":"","type":"string","internalType":"string"}],"stateMutability":"view"},{"type":"function","name":"yesTokenId","inputs":[{"name":"marketId","type":"uint256","internalType":"uint256"}],"outputs":[{"name":"","type":"uint256","internalType":"uint256"}],"stateMutability":"pure"},{"type":"event","name":"ApprovalForAll","inputs":[{"name":"account","type":"address","indexed":true,"internalType":"address"},{"name":"operator","type":"address","indexed":true,"internalType":"address"},{"name":"approved","type":"bool","indexed":false,"internalType":"bool"}],"anonymous":false},{"type":"event","name":"OutcomeBurned","inputs":[{"name":"marketId","type":"uint256","indexed":true,"internalType":"uint256"},{"name":"from","type":"address","indexed":true,"internalType":"address"},{"name":"outcome","type":"uint8","indexed":false,"internalType":"uint8"},{"name":"amount","type":"uint256","indexed":false,"internalType":"uint256"}],"anonymous":false},{"type":"event","name":"OutcomeMinted","inputs":[{"name":"marketId","type":"uint256","indexed":true,"internalType":"uint256"},{"name":"to","type":"address","indexed":true,"internalType":"address"},{"name":"outcome","type":"uint8","indexed":false,"internalType":"uint8"},{"name":"amount","type":"uint256","indexed":false,"internalType":"uint256"}],"anonymous":false},{"type":"event","name":"RoleAdminChanged","inputs":[{"name":"role","type":"bytes32","indexed":true,"internalType":"bytes32"},{"name":"previousAdminRole","type":"bytes32","indexed":true,"internalType":"bytes32"},{"name":"newAdminRole","type":"bytes32","indexed":true,"internalType":"bytes32"}],"anonymous":false},{"type":"event","name":"RoleGranted","inputs":[{"name":"role","type":"bytes32","indexed":true,"internalType":"bytes32"},{"name":"account","type":"address","indexed":true,"internalType":"address"},{"name":"sender","type":"address","indexed":true,"internalType":"address"}],"anonymous":false},{"type":"event","name":"RoleRevoked","inputs":[{"name":"role","type":"bytes32","indexed":true,"internalType":"bytes32"},{"name":"account","type":"address","indexed":true,"internalType":"address"},{"name":"sender","type":"address","indexed":true,"internalType":"address"}],"anonymous":false},{"type":"event","name":"TransferBatch","inputs":[{"name":"operator","type":"address","indexed":true,"internalType":"address"},{"name":"from","type":"address","indexed":true,"internalType":"address"},{"name":"to","type":"address","indexed":true,"internalType":"address"},{"name":"ids","type":"uint256[]","indexed":false,"internalType":"uint256[]"},{"name":"values","type":"uint256[]","indexed":false,"internalType":"uint256[]"}],"anonymous":false},{"type":"event","name":"TransferSingle","inputs":[{"name":"operator","type":"address","indexed":true,"internalType":"address"},{"name":"from","type":"address","indexed":true,"internalType":"address"},{"name":"to","type":"address","indexed":true,"internalType":"address"},{"name":"id","type":"uint256","indexed":false,"internalType":"uint256"},{"name":"value","type":"uint256","indexed":false,"internalType":"uint256"}],"anonymous":false},{"type":"event","name":"URI","inputs":[{"name":"value","type":"string","indexed":false,"internalType":"string"},{"name":"id","type":"uint256","indexed":true,"internalType":"uint256"}],"anonymous":false},{"type":"error","name":"AccessControlBadConfirmation","inputs":[]},{"type":"error","name":"AccessControlUnauthorizedAccount","inputs":[{"name":"account","type":"address","internalType":"address"},{"name":"neededRole","type":"bytes32","internalType":"bytes32"}]},{"type":"error","name":"ERC1155InsufficientBalance","inputs":[{"name":"sender","type":"address","internalType":"address"},{"name":"balance","type":"uint256","internalType":"uint256"},{"name":"needed","type":"uint256","internalType":"uint256"},{"name":"tokenId","type":"uint256","internalType":"uint256"}]},{"type":"error","name":"ERC1155InvalidApprover","inputs":[{"name":"approver","type":"address","internalType":"address"}]},{"type":"error","name":"ERC1155InvalidArrayLength","inputs":[{"name":"idsLength","type":"uint256","internalType":"uint256"},{"name":"valuesLength","type":"uint256","internalType":"uint256"}]},{"type":"error","name":"ERC1155InvalidOperator","inputs":[{"name":"operator","type":"address","internalType":"address"}]},{"type":"error","name":"ERC1155InvalidReceiver","inputs":[{"name":"receiver","type":"address","internalType":"address"}]},{"type":"error","name":"ERC1155InvalidSender","inputs":[{"name":"sender","type":"address","internalType":"address"}]},{"type":"error","name":"ERC1155MissingApprovalForAll","inputs":[{"name":"operator","type":"address","internalType":"address"},{"name":"owner","type":"address","internalType":"address"}]},{"type":"error","name":"ReentrancyGuardReentrantCall","inputs":[]}],"bytecode":{"object":"0x608060405234620002335762001c25803803806200001d8162000237565b92833981019060408183031262000233578051906001600160a01b0382168203620002335760208181015190916001600160401b03919082821162000233570193601f90808287011215620002335785518381116200020a57601f19966200008b8285018916870162000237565b92828452868383010111620002335785905f5b8381106200021e5750505f918301015280519283116200020a57600254936001948581811c91168015620001ff575b82821014620001eb57838111620001a2575b50809284116001146200013757506200011a95505f9190836200012b575b50505f19600383901b1c191690821b176002555b6004556200025d565b506040516119259081620002e08239f35b015190505f80620000fd565b9295861660025f52835f20935f905b8282106200018a57505091849391876200011a98941062000171575b505050811b0160025562000111565b01515f1960f88460031b161c191690555f808062000162565b80878697829497870151815501960194019062000146565b60025f52815f208480870160051c820192848810620001e1575b0160051c019086905b828110620001d5575050620000df565b5f8155018690620001c5565b92508192620001bc565b634e487b7160e01b5f52602260045260245ffd5b90607f1690620000cd565b634e487b7160e01b5f52604160045260245ffd5b8181018301518582018401528792016200009e565b5f80fd5b6040519190601f01601f191682016001600160401b038111838210176200020a57604052565b6001600160a01b03165f8181525f8051602062001c05833981519152602052604090205460ff16620002da575f8181525f8051602062001c0583398151915260205260408120805460ff191660011790553391907f2f8788117e7eff1d82e926ec794901d17c78024a50270940304540a733656f0d8180a4600190565b505f9056fe60806040526004361015610011575f80fd5b5f3560e01c8062fdd58e1461015357806301ffc9a71461014e5780630e89341c146101495780631f7fdffa14610144578063248a9ca31461013f5780632eb2c2d61461013a5780632f2ff15d1461013557806336568abe146101305780633c39b3571461012b5780633e27ec9b146101265780634e1273f414610121578063731133e91461011c57806391d1485414610117578063a217fddf14610112578063a22cb4651461010d578063d547741f14610108578063e729dc3014610103578063e985e9c5146100fe578063f242432a146100f95763f5298aca146100f4575f80fd5b610d66565b610c63565b610c13565b610be1565b610ba4565b610aed565b610ad3565b610a85565b61099e565b6108e3565b610865565b610823565b6107dc565b61079f565b61067b565b61064e565b610508565b6102d0565b6101f6565b61019c565b600435906001600160a01b038216820361016e57565b5f80fd5b602435906001600160a01b038216820361016e57565b35906001600160a01b038216820361016e57565b3461016e57604036600319011261016e5760206101db6101ba610158565b6024355f525f835260405f209060018060a01b03165f5260205260405f2090565b54604051908152f35b6001600160e01b031981160361016e57565b3461016e57602036600319011261016e576020600435610215816101e4565b63ffffffff60e01b16637965db0b60e01b811490811561023b575b506040519015158152f35b636cdb3d1360e11b81149150811561026d575b811561025c575b505f610230565b6301ffc9a760e01b1490505f610255565b6303a24d0760e21b8114915061024e565b91908251928382525f5b8481106102a8575050825f602080949584010152601f8019910116010190565b602081830181015184830182015201610288565b9060206102cd92818152019061027e565b90565b3461016e5760208060031936011261016e57604051905f906002546001918160011c92600183169283156103cd575b6020851084146103b957848752602087019390811561039a5750600114610341575b61033d866103318188038261040c565b604051918291826102bc565b0390f35b60025f90815294509192917f405787fa12a823e0f2b7631cc41b3ba8828b3321ca811111fa75cd3aa3bb5ace5b83861061038957505050910190506103318261033d5f610321565b80548587015294820194810161036e565b60ff1916845250505090151560051b0190506103318261033d5f610321565b634e487b7160e01b5f52602260045260245ffd5b93607f16936102ff565b634e487b7160e01b5f52604160045260245ffd5b6020810190811067ffffffffffffffff82111761040757604052565b6103d7565b90601f8019910116810190811067ffffffffffffffff82111761040757604052565b67ffffffffffffffff81116104075760051b60200190565b9080601f8301121561016e5760209082356104608161042e565b9361046e604051958661040c565b81855260208086019260051b82010192831161016e57602001905b828210610497575050505090565b81358152908301908301610489565b67ffffffffffffffff811161040757601f01601f191660200190565b81601f8201121561016e578035906104d9826104a6565b926104e7604051948561040c565b8284526020838301011161016e57815f926020809301838601378301015290565b3461016e57608036600319011261016e57610521610158565b67ffffffffffffffff9060243582811161016e57610543903690600401610446565b9060443583811161016e5761055c903690600401610446565b9260643590811161016e576105759036906004016104c2565b9061057e610f13565b610586610fae565b6001600160a01b0381169182156106365784846105a2936110e9565b5f5b825181101561062a5780826105c56105be60019487610e0d565b5160011c90565b7f6928609b5ec8b83af8c7b72a4ddf3673a8280d11c19c7cef288cebfd53570c676106036105fd6105f6868a610e0d565b5160011690565b60ff1690565b61060d858a610e0d565b516040805160ff939093168352602083019190915290a3016105a4565b6106346001600455565b005b604051632bfa23e760e11b81525f6004820152602490fd5b3461016e57602036600319011261016e576004355f5260036020526020600160405f200154604051908152f35b3461016e5760a036600319011261016e57610694610158565b61069c610172565b906044359167ffffffffffffffff9081841161016e576106c160049436908601610446565b9060643583811161016e576106d99036908701610446565b9260843590811161016e576106f190369087016104c2565b936001600160a01b0380821690338214158061077c575b61074f5783161561073857156107225761063495506113bb565b604051626a0d4560e21b81525f81880152602490fd5b604051632bfa23e760e11b81525f81890152602490fd5b6040805163711bec9160e11b815233818b019081526001600160a01b038616602082015290918291010390fd5b505f82815260016020908152604080832033845290915290205460ff1615610708565b3461016e57604036600319011261016e576106346004356107be610172565b90805f5260036020526107d7600160405f200154610f8e565b610fd1565b3461016e57604036600319011261016e576107f5610172565b336001600160a01b038216036108115761063490600435611061565b60405163334bd91960e11b8152600490fd5b3461016e57602036600319011261016e576004358060011b9080820460021490151715610860576001810180911161086057602090604051908152f35b610e35565b3461016e575f36600319011261016e5760206040517f395f08be531c0d7403cba7c5ffd2b57329184452bcebcd6a48299ebbbf39db6f8152f35b9081518082526020808093019301915f5b8281106108be575050505090565b8351855293810193928101926001016108b0565b9060206102cd92818152019061089f565b3461016e57604036600319011261016e5760043567ffffffffffffffff80821161016e573660238301121561016e5781600401356109208161042e565b9261092e604051948561040c565b8184526020916024602086019160051b8301019136831161016e57602401905b828210610987578560243586811161016e5761033d9161097561097b923690600401610446565b90610e56565b604051918291826108d2565b83809161099384610188565b81520191019061094e565b3461016e57608036600319011261016e576109b7610158565b6024356044359160643567ffffffffffffffff811161016e576109de9036906004016104c2565b6109e6610f13565b6109ee610fae565b6001600160a01b03821693841561063657610a58610a78927f6928609b5ec8b83af8c7b72a4ddf3673a8280d11c19c7cef288cebfd53570c6794610a5284889160405192600184526020840152604083019160018352606084015260808301604052565b916110e9565b604080516001868116825260208201939093529490911c93918291820190565b0390a36106346001600455565b3461016e57604036600319011261016e57602060ff610ac7610aa5610172565b6004355f526003845260405f209060018060a01b03165f5260205260405f2090565b54166040519015158152f35b3461016e575f36600319011261016e5760206040515f8152f35b3461016e57604036600319011261016e57610b06610158565b602435908115159081830361016e576001600160a01b038116928315610b8d57610b4e610b5f92335f52600160205260405f209060018060a01b03165f5260205260405f2090565b9060ff801983541691151516179055565b6040519081527f17307eab39ab6107e8899845ad3d59bd9653f200f220920489ca2b5937696c3160203392a3005b60405162ced3e160e81b81525f6004820152602490fd5b3461016e57604036600319011261016e57610634600435610bc3610172565b90805f526003602052610bdc600160405f200154610f8e565b611061565b3461016e57602036600319011261016e576004358060011b908082046002149015171561086057602090604051908152f35b3461016e57604036600319011261016e57602060ff610ac7610c33610158565b610c3b610172565b6001600160a01b039182165f9081526001865260408082209290931681526020919091522090565b3461016e5760a036600319011261016e57610c7c610158565b610c84610172565b60843567ffffffffffffffff811161016e57610ca49036906004016104c2565b906001600160a01b03838116903382141580610d43575b610d1c578216156106365715610d055761063492610cfd6064356044359160405192600184526020840152604083019160018352606084015260808301604052565b9290916113bb565b604051626a0d4560e21b81525f6004820152602490fd5b60405163711bec9160e11b81523360048201526001600160a01b0386166024820152604490fd5b505f82815260016020908152604080832033845290915290205460ff1615610cbb565b3461016e57606036600319011261016e57610d7f610158565b602435604435610d8d610f13565b610d95610fae565b6001600160a01b038316928315610d055781610a58610a7892610df97f90b38a8af84f1f047de6bf46c0c6c6b6b91665a30ff597522a22ae0223ab95f395879160405192600184526020840152604083019160018352606084015260808301604052565b915f604051610e07816103eb565b5261125c565b8051821015610e215760209160051b010190565b634e487b7160e01b5f52603260045260245ffd5b634e487b7160e01b5f52601160045260245ffd5b9190820180921161086057565b91909180518351808203610ef1575050805190610e8b610e758361042e565b92610e83604051948561040c565b80845261042e565b60209190601f190136848401375f5b8151811015610ee957600581901b8281018401519087018401515f908152602081815260408083206001600160a01b039094168352929052205460019190610ee28287610e0d565b5201610e9a565b509193505050565b604051635b05999160e01b815260048101919091526024810191909152604490fd5b335f9081527fca1162a9a9458919cdbd594adc8da05f5fd1324ea03e39c37c07af7df57e1f01602052604090207f395f08be531c0d7403cba7c5ffd2b57329184452bcebcd6a48299ebbbf39db6f9060ff905b541615610f705750565b6044906040519063e2517d3f60e01b82523360048301526024820152fd5b5f818152600360209081526040808320338452909152902060ff90610f66565b600260045414610fbf576002600455565b604051633ee5aeb560e01b8152600490fd5b5f8181526003602090815260408083206001600160a01b038616845290915290205460ff1661105b575f8181526003602090815260408083206001600160a01b03861684529091529020805460ff1916600117905533916001600160a01b0316907f2f8788117e7eff1d82e926ec794901d17c78024a50270940304540a733656f0d5f80a4600190565b50505f90565b5f8181526003602090815260408083206001600160a01b038616845290915290205460ff161561105b575f8181526003602090815260408083206001600160a01b03861684529091529020805460ff1916905533916001600160a01b0316907ff6391f5c32d9c69d2a47ea670b442974b53935d1edc7fd64eb21e047a839171b5f80a4600190565b908051835190818103610ef15750505f5b815181101561117357600581901b82810160209081015191860101516001929185906001600160a01b038216611134575b505050016110fa565b6111699161114c611161925f525f60205260405f2090565b9060018060a01b03165f5260205260405f2090565b918254610e49565b90555f848161112b565b50805191939291600103611214576020818101518382015160408051928352928201526001600160a01b038616915f9133917fc3d58168c5ae7397731d063d5bbf3d657854427343f4c083240f7aacaa2d0f6291a45b6001600160a01b0384166111de575b50505050565b805160010361120557906020806111fc959301519101519133611883565b5f8080806111d8565b61120f933361168e565b6111fc565b6040516001600160a01b038516905f9033907f4a39dc06d4c0dbc64b70af90fd698a233a518aa5d07e595d983b8c0526c8f7fb90806112548888836115a9565b0390a46111c9565b9291908051825190818103610ef15750505f5b815181101561131c57600581901b82810160209081015191850101516001600160a01b0387166112a4575b505060010161126f565b6112b98761114c845f525f60205260405f2090565b548181106112e5578761114c60019594936112dd9303935f525f60205260405f2090565b55905f61129a565b6040516303dee4c560e01b81526001600160a01b038916600482015260248101919091526044810182905260648101839052608490fd5b50905f9293916001815114841461137c576020908101519181015160408051938452918301526001600160a01b039092169133917fc3d58168c5ae7397731d063d5bbf3d657854427343f4c083240f7aacaa2d0f6291819081015b0390a4565b6040516001600160a01b039093169233927f4a39dc06d4c0dbc64b70af90fd698a233a518aa5d07e595d983b8c0526c8f7fb92829161137791836115a9565b949190918151845190818103610ef15750505f5b82518110156114b457600581901b83810160209081015191870101516001600160a01b03929186908a8516611434575b6001948216611412575b505050016113cf565b61142a9161114c611161925f525f60205260405f2090565b90555f8581611409565b919293905061144e8a61114c845f525f60205260405f2090565b5483811061147d57918791846001969594036114758d61114c855f525f60205260405f2090565b5594506113ff565b6040516303dee4c560e01b81526001600160a01b038c16600482015260248101919091526044810184905260648101839052608490fd5b5094919392909360018551145f1461155e576020858101518382015160408051928352928201526001600160a01b03838116929086169133917fc3d58168c5ae7397731d063d5bbf3d657854427343f4c083240f7aacaa2d0f6291a45b6001600160a01b038116611527575b5050505050565b845160010361154d5760208061154396015192015192336118b8565b5f80808080611520565b61155994919233611787565b611543565b6040516001600160a01b03828116919085169033907f4a39dc06d4c0dbc64b70af90fd698a233a518aa5d07e595d983b8c0526c8f7fb90806115a1888c836115a9565b0390a4611511565b90916115c06102cd9360408452604084019061089f565b91602081840391015261089f565b9081602091031261016e57516102cd816101e4565b926116116102cd959361161f9360018060a01b031686525f602087015260a0604087015260a086019061089f565b90848203606086015261089f565b91608081840391015261027e565b93906102cd95936116119161161f9460018060a01b03809216885216602087015260a0604087015260a086019061089f565b3d15611689573d90611670826104a6565b9161167e604051938461040c565b82523d5f602084013e565b606090565b9293919093843b6116a0575050505050565b6020916116c3604051948593849363bc197c8160e01b98898652600486016115e3565b03815f6001600160a01b0388165af15f9181611756575b5061171957826116e861165f565b805191908261171257604051632bfa23e760e11b81526001600160a01b0383166004820152602490fd5b9050602001fd5b6001600160e01b0319160361173357505f80808080611520565b604051632bfa23e760e11b81526001600160a01b03919091166004820152602490fd5b61177991925060203d602011611780575b611771818361040c565b8101906115ce565b905f6116da565b503d611767565b939290949194853b61179c575b505050505050565b6117bf602093604051958694859463bc197c8160e01b998a87526004870161162d565b03815f6001600160a01b0388165af15f91816117ff575b506117e457826116e861165f565b6001600160e01b0319160361173357505f8080808080611794565b61181991925060203d60201161178057611771818361040c565b905f6117d6565b909260a0926102cd9594600180861b031683525f602084015260408301526060820152816080820152019061027e565b91926102cd95949160a094600180871b03809216855216602084015260408301526060820152816080820152019061027e565b9293919093843b611895575050505050565b6020916116c3604051948593849363f23a6e6160e01b9889865260048601611820565b939290949194853b6118cc57505050505050565b6117bf602093604051958694859463f23a6e6160e01b998a87526004870161185056fea264697066735822122025ebda98860b9ef0949986202cadceb6d6eb5c3af98f9e9693b38e2c2a68b1a864736f6c634300081800333617319a054d772f909f7c479a2cebe5066e836a939412e32403c99029b92eff","linkReferences":{}},"methodIdentifiers":{"DEFAULT_ADMIN_ROLE()":"a217fddf","MARKET_ROLE()":"3e27ec9b","balanceOf(address,uint256)":"00fdd58e","balanceOfBatch(address[],uint256[])":"4e1273f4","burn(address,uint256,uint256)":"f5298aca","getRoleAdmin(bytes32)":"248a9ca3","grantRole(bytes32,address)":"2f2ff15d","hasRole(bytes32,address)":"91d14854","isApprovedForAll(address,address)":"e985e9c5","mint(address,uint256,uint256,bytes)":"731133e9","mintBatch(address,uint256[],uint256[],bytes)":"1f7fdffa","noTokenId(uint256)":"3c39b357","renounceRole(bytes32,address)":"36568abe","revokeRole(bytes32,address)":"d547741f","safeBatchTransferFrom(address,address,uint256[],uint256[],bytes)":"2eb2c2d6","safeTransferFrom(address,address,uint256,uint256,bytes)":"f242432a","setApprovalForAll(address,bool)":"a22cb465","supportsInterface(bytes4)":"01ffc9a7","uri(uint256)":"0e89341c","yesTokenId(uint256)":"e729dc30"},"id":41}