{"abi":[{"type":"function","name":"BPS","inputs":[],"outputs":[{"name":"","type":"uint256","internalType":"uint256"}],"stateMutability":"view"},{"type":"function","name":"DEFAULT_ADMIN_ROLE","inputs":[],"outputs":[{"name":"","type":"bytes32","internalType":"bytes32"}],"stateMutability":"view"},{"type":"function","name":"FEE_BPS","inputs":[],"outputs":[{"name":"","type":"uint256","internalType":"uint256"}],"stateMutability":"view"},{"type":"function","name":"MARKET_CREATOR_ROLE","inputs":[],"outputs":[{"name":"","type":"bytes32","internalType":"bytes32"}],"stateMutability":"view"},{"type":"function","name":"PAUSER_ROLE","inputs":[],"outputs":[{"name":"","type":"bytes32","internalType":"bytes32"}],"stateMutability":"view"},{"type":"function","name":"UPGRADER_ROLE","inputs":[],"outputs":[{"name":"","type":"bytes32","internalType":"bytes32"}],"stateMutability":"view"},{"type":"function","name":"UPGRADE_INTERFACE_VERSION","inputs":[],"outputs":[{"name":"","type":"string","internalType":"string"}],"stateMutability":"view"},{"type":"function","name":"addLiquidity","inputs":[{"name":"marketId","type":"uint256","internalType":"uint256"},{"name":"usdcAmount","type":"uint256","internalType":"uint256"},{"name":"minLpShares","type":"uint256","internalType":"uint256"}],"outputs":[],"stateMutability":"nonpayable"},{"type":"function","name":"buy","inputs":[{"name":"marketId","type":"uint256","internalType":"uint256"},{"name":"outcome","type":"uint8","internalType":"uint8"},{"name":"amountIn","type":"uint256","internalType":"uint256"},{"name":"minAmountOut","type":"uint256","internalType":"uint256"}],"outputs":[{"name":"amountOut","type":"uint256","internalType":"uint256"}],"stateMutability":"nonpayable"},{"type":"function","name":"createMarket","inputs":[{"name":"question","type":"string","internalType":"string"},{"name":"oracleFeed","type":"address","internalType":"address"},{"name":"resolutionTime","type":"uint256","internalType":"uint256"},{"name":"initialLiquidity","type":"uint256","internalType":"uint256"}],"outputs":[{"name":"marketId","type":"uint256","internalType":"uint256"}],"stateMutability":"nonpayable"},{"type":"function","name":"feeBps","inputs":[],"outputs":[{"name":"","type":"uint256","internalType":"uint256"}],"stateMutability":"view"},{"type":"function","name":"feeVault","inputs":[],"outputs":[{"name":"","type":"address","internalType":"address"}],"stateMutability":"view"},{"type":"function","name":"getLpShares","inputs":[{"name":"marketId","type":"uint256","internalType":"uint256"},{"name":"provider","type":"address","internalType":"address"}],"outputs":[{"name":"","type":"uint256","internalType":"uint256"}],"stateMutability":"view"},{"type":"function","name":"getMarket","inputs":[{"name":"marketId","type":"uint256","internalType":"uint256"}],"outputs":[{"name":"","type":"tuple","internalType":"struct IPredictionMarket.Market","components":[{"name":"id","type":"uint256","internalType":"uint256"},{"name":"question","type":"string","internalType":"string"},{"name":"collateralToken","type":"address","internalType":"address"},{"name":"oracleFeed","type":"address","internalType":"address"},{"name":"resolutionTime","type":"uint256","internalType":"uint256"},{"name":"winningOutcome","type":"uint8","internalType":"uint8"},{"name":"resolved","type":"bool","internalType":"bool"},{"name":"totalCollateral","type":"uint256","internalType":"uint256"},{"name":"yesReserve","type":"uint256","internalType":"uint256"},{"name":"noReserve","type":"uint256","internalType":"uint256"},{"name":"feesAccrued","type":"uint256","internalType":"uint256"},{"name":"creator","type":"address","internalType":"address"}]}],"stateMutability":"view"},{"type":"function","name":"getPrice","inputs":[{"name":"marketId","type":"uint256","internalType":"uint256"},{"name":"outcome","type":"uint8","internalType":"uint8"}],"outputs":[{"name":"price","type":"uint256","internalType":"uint256"}],"stateMutability":"view"},{"type":"function","name":"getRoleAdmin","inputs":[{"name":"role","type":"bytes32","internalType":"bytes32"}],"outputs":[{"name":"","type":"bytes32","internalType":"bytes32"}],"stateMutability":"view"},{"type":"function","name":"getTotalLpShares","inputs":[{"name":"marketId","type":"uint256","internalType":"uint256"}],"outputs":[{"name":"","type":"uint256","internalType":"uint256"}],"stateMutability":"view"},{"type":"function","name":"grantRole","inputs":[{"name":"role","type":"bytes32","internalType":"bytes32"},{"name":"account","type":"address","internalType":"address"}],"outputs":[],"stateMutability":"nonpayable"},{"type":"function","name":"hasRole","inputs":[{"name":"role","type":"bytes32","internalType":"bytes32"},{"name":"account","type":"address","internalType":"address"}],"outputs":[{"name":"","type":"bool","internalType":"bool"}],"stateMutability":"view"},{"type":"function","name":"initialize","inputs":[{"name":"_usdc","type":"address","internalType":"address"},{"name":"_outcomeToken","type":"address","internalType":"address"},{"name":"_feeVault","type":"address","internalType":"address"},{"name":"_oracleAdapter","type":"address","internalType":"address"},{"name":"_admin","type":"address","internalType":"address"}],"outputs":[],"stateMutability":"nonpayable"},{"type":"function","name":"initializeV2","inputs":[],"outputs":[],"stateMutability":"nonpayable"},{"type":"function","name":"marketCount","inputs":[],"outputs":[{"name":"","type":"uint256","internalType":"uint256"}],"stateMutability":"view"},{"type":"function","name":"mintOutcomeTokens","inputs":[{"name":"marketId","type":"uint256","internalType":"uint256"},{"name":"amount","type":"uint256","internalType":"uint256"}],"outputs":[],"stateMutability":"nonpayable"},{"type":"function","name":"oracleAdapter","inputs":[],"outputs":[{"name":"","type":"address","internalType":"address"}],"stateMutability":"view"},{"type":"function","name":"outcomeToken","inputs":[],"outputs":[{"name":"","type":"address","internalType":"address"}],"stateMutability":"view"},{"type":"function","name":"pause","inputs":[],"outputs":[],"stateMutability":"nonpayable"},{"type":"function","name":"paused","inputs":[],"outputs":[{"name":"","type":"bool","internalType":"bool"}],"stateMutability":"view"},{"type":"function","name":"proxiableUUID","inputs":[],"outputs":[{"name":"","type":"bytes32","internalType":"bytes32"}],"stateMutability":"view"},{"type":"function","name":"redeemWinningTokens","inputs":[{"name":"marketId","type":"uint256","internalType":"uint256"}],"outputs":[],"stateMutability":"nonpayable"},{"type":"function","name":"removeLiquidity","inputs":[{"name":"marketId","type":"uint256","internalType":"uint256"},{"name":"lpShares","type":"uint256","internalType":"uint256"},{"name":"minUsdc","type":"uint256","internalType":"uint256"}],"outputs":[],"stateMutability":"nonpayable"},{"type":"function","name":"renounceRole","inputs":[{"name":"role","type":"bytes32","internalType":"bytes32"},{"name":"callerConfirmation","type":"address","internalType":"address"}],"outputs":[],"stateMutability":"nonpayable"},{"type":"function","name":"resolveMarket","inputs":[{"name":"marketId","type":"uint256","internalType":"uint256"}],"outputs":[],"stateMutability":"nonpayable"},{"type":"function","name":"revokeRole","inputs":[{"name":"role","type":"bytes32","internalType":"bytes32"},{"name":"account","type":"address","internalType":"address"}],"outputs":[],"stateMutability":"nonpayable"},{"type":"function","name":"sell","inputs":[{"name":"marketId","type":"uint256","internalType":"uint256"},{"name":"outcome","type":"uint8","internalType":"uint8"},{"name":"tokenAmountIn","type":"uint256","internalType":"uint256"},{"name":"minUsdcOut","type":"uint256","internalType":"uint256"}],"outputs":[{"name":"usdcOut","type":"uint256","internalType":"uint256"}],"stateMutability":"nonpayable"},{"type":"function","name":"setFeeBps","inputs":[{"name":"newFee","type":"uint256","internalType":"uint256"}],"outputs":[],"stateMutability":"nonpayable"},{"type":"function","name":"supportsInterface","inputs":[{"name":"interfaceId","type":"bytes4","internalType":"bytes4"}],"outputs":[{"name":"","type":"bool","internalType":"bool"}],"stateMutability":"view"},{"type":"function","name":"unpause","inputs":[],"outputs":[],"stateMutability":"nonpayable"},{"type":"function","name":"upgradeToAndCall","inputs":[{"name":"newImplementation","type":"address","internalType":"address"},{"name":"data","type":"bytes","internalType":"bytes"}],"outputs":[],"stateMutability":"payable"},{"type":"function","name":"usdc","inputs":[],"outputs":[{"name":"","type":"address","internalType":"address"}],"stateMutability":"view"},{"type":"function","name":"version","inputs":[],"outputs":[{"name":"","type":"uint256","internalType":"uint256"}],"stateMutability":"view"},{"type":"event","name":"CollateralMinted","inputs":[{"name":"marketId","type":"uint256","indexed":true,"internalType":"uint256"},{"name":"user","type":"address","indexed":true,"internalType":"address"},{"name":"amount","type":"uint256","indexed":false,"internalType":"uint256"}],"anonymous":false},{"type":"event","name":"FeeBpsUpdated","inputs":[{"name":"oldFee","type":"uint256","indexed":false,"internalType":"uint256"},{"name":"newFee","type":"uint256","indexed":false,"internalType":"uint256"}],"anonymous":false},{"type":"event","name":"Initialized","inputs":[{"name":"version","type":"uint64","indexed":false,"internalType":"uint64"}],"anonymous":false},{"type":"event","name":"LiquidityAdded","inputs":[{"name":"marketId","type":"uint256","indexed":true,"internalType":"uint256"},{"name":"provider","type":"address","indexed":true,"internalType":"address"},{"name":"usdcAmount","type":"uint256","indexed":false,"internalType":"uint256"},{"name":"yesAdded","type":"uint256","indexed":false,"internalType":"uint256"},{"name":"noAdded","type":"uint256","indexed":false,"internalType":"uint256"}],"anonymous":false},{"type":"event","name":"LiquidityRemoved","inputs":[{"name":"marketId","type":"uint256","indexed":true,"internalType":"uint256"},{"name":"provider","type":"address","indexed":true,"internalType":"address"},{"name":"lpShares","type":"uint256","indexed":false,"internalType":"uint256"},{"name":"usdcReturned","type":"uint256","indexed":false,"internalType":"uint256"}],"anonymous":false},{"type":"event","name":"MarketCreated","inputs":[{"name":"marketId","type":"uint256","indexed":true,"internalType":"uint256"},{"name":"question","type":"string","indexed":false,"internalType":"string"},{"name":"creator","type":"address","indexed":true,"internalType":"address"},{"name":"oracleFeed","type":"address","indexed":false,"internalType":"address"}],"anonymous":false},{"type":"event","name":"MarketResolved","inputs":[{"name":"marketId","type":"uint256","indexed":true,"internalType":"uint256"},{"name":"winningOutcome","type":"uint8","indexed":false,"internalType":"uint8"}],"anonymous":false},{"type":"event","name":"Paused","inputs":[{"name":"account","type":"address","indexed":false,"internalType":"address"}],"anonymous":false},{"type":"event","name":"RoleAdminChanged","inputs":[{"name":"role","type":"bytes32","indexed":true,"internalType":"bytes32"},{"name":"previousAdminRole","type":"bytes32","indexed":true,"internalType":"bytes32"},{"name":"newAdminRole","type":"bytes32","indexed":true,"internalType":"bytes32"}],"anonymous":false},{"type":"event","name":"RoleGranted","inputs":[{"name":"role","type":"bytes32","indexed":true,"internalType":"bytes32"},{"name":"account","type":"address","indexed":true,"internalType":"address"},{"name":"sender","type":"address","indexed":true,"internalType":"address"}],"anonymous":false},{"type":"event","name":"RoleRevoked","inputs":[{"name":"role","type":"bytes32","indexed":true,"internalType":"bytes32"},{"name":"account","type":"address","indexed":true,"internalType":"address"},{"name":"sender","type":"address","indexed":true,"internalType":"address"}],"anonymous":false},{"type":"event","name":"TokensPurchased","inputs":[{"name":"marketId","type":"uint256","indexed":true,"internalType":"uint256"},{"name":"buyer","type":"address","indexed":true,"internalType":"address"},{"name":"outcome","type":"uint8","indexed":false,"internalType":"uint8"},{"name":"amountIn","type":"uint256","indexed":false,"internalType":"uint256"},{"name":"amountOut","type":"uint256","indexed":false,"internalType":"uint256"}],"anonymous":false},{"type":"event","name":"TokensSold","inputs":[{"name":"marketId","type":"uint256","indexed":true,"internalType":"uint256"},{"name":"seller","type":"address","indexed":true,"internalType":"address"},{"name":"outcome","type":"uint8","indexed":false,"internalType":"uint8"},{"name":"amountIn","type":"uint256","indexed":false,"internalType":"uint256"},{"name":"amountOut","type":"uint256","indexed":false,"internalType":"uint256"}],"anonymous":false},{"type":"event","name":"Unpaused","inputs":[{"name":"account","type":"address","indexed":false,"internalType":"address"}],"anonymous":false},{"type":"event","name":"Upgraded","inputs":[{"name":"implementation","type":"address","indexed":true,"internalType":"address"}],"anonymous":false},{"type":"event","name":"WinningsRedeemed","inputs":[{"name":"marketId","type":"uint256","indexed":true,"internalType":"uint256"},{"name":"redeemer","type":"address","indexed":true,"internalType":"address"},{"name":"amount","type":"uint256","indexed":false,"internalType":"uint256"}],"anonymous":false},{"type":"error","name":"AccessControlBadConfirmation","inputs":[]},{"type":"error","name":"AccessControlUnauthorizedAccount","inputs":[{"name":"account","type":"address","internalType":"address"},{"name":"neededRole","type":"bytes32","internalType":"bytes32"}]},{"type":"error","name":"AddressEmptyCode","inputs":[{"name":"target","type":"address","internalType":"address"}]},{"type":"error","name":"AddressInsufficientBalance","inputs":[{"name":"account","type":"address","internalType":"address"}]},{"type":"error","name":"ERC1967InvalidImplementation","inputs":[{"name":"implementation","type":"address","internalType":"address"}]},{"type":"error","name":"ERC1967NonPayable","inputs":[]},{"type":"error","name":"EnforcedPause","inputs":[]},{"type":"error","name":"ExpectedPause","inputs":[]},{"type":"error","name":"FailedInnerCall","inputs":[]},{"type":"error","name":"FeeTooHigh","inputs":[{"name":"proposed","type":"uint256","internalType":"uint256"}]},{"type":"error","name":"InsufficientLiquidity","inputs":[{"name":"available","type":"uint256","internalType":"uint256"},{"name":"required","type":"uint256","internalType":"uint256"}]},{"type":"error","name":"InsufficientOutputReserve","inputs":[]},{"type":"error","name":"InvalidFeed","inputs":[]},{"type":"error","name":"InvalidInitialization","inputs":[]},{"type":"error","name":"InvalidOutcome","inputs":[{"name":"outcome","type":"uint8","internalType":"uint8"}]},{"type":"error","name":"InvalidQuestion","inputs":[]},{"type":"error","name":"InvalidResolutionTime","inputs":[]},{"type":"error","name":"MarketAlreadyResolved","inputs":[{"name":"marketId","type":"uint256","internalType":"uint256"}]},{"type":"error","name":"MarketNotResolved","inputs":[{"name":"marketId","type":"uint256","internalType":"uint256"}]},{"type":"error","name":"NotInitializing","inputs":[]},{"type":"error","name":"ReentrancyGuardReentrantCall","inputs":[]},{"type":"error","name":"ResolutionTooEarly","inputs":[{"name":"resolutionTime","type":"uint256","internalType":"uint256"},{"name":"blockTimestamp","type":"uint256","internalType":"uint256"}]},{"type":"error","name":"SafeERC20FailedOperation","inputs":[{"name":"token","type":"address","internalType":"address"}]},{"type":"error","name":"SlippageExceeded","inputs":[{"name":"expected","type":"uint256","internalType":"uint256"},{"name":"actual","type":"uint256","internalType":"uint256"}]},{"type":"error","name":"StalePrice","inputs":[{"name":"updatedAt","type":"uint256","internalType":"uint256"},{"name":"blockTimestamp","type":"uint256","internalType":"uint256"}]},{"type":"error","name":"UUPSUnauthorizedCallContext","inputs":[]},{"type":"error","name":"UUPSUnsupportedProxiableUUID","inputs":[{"name":"slot","type":"bytes32","internalType":"bytes32"}]},{"type":"error","name":"Unauthorized","inputs":[{"name":"caller","type":"address","internalType":"address"},{"name":"role","type":"bytes32","internalType":"bytes32"}]},{"type":"error","name":"ZeroAmount","inputs":[]},{"type":"error","name":"ZeroReserve","inputs":[]}],"bytecode":{"object":"0x60a08060405234620000d157306080527ff0c57e16840df040f15088dc2f81fe391c3923bec73e23a9662efc9c229c6a009081549060ff8260401c16620000c257506001600160401b036002600160401b0319828216016200007c575b604051613a129081620000d682396080518181816119db0152611a960152f35b6001600160401b031990911681179091556040519081527fc7f505b2f371ae2175ee4913f4499e1f2633a7b5936321eed1cdaeb6115181d290602090a15f80806200005c565b63f92ee8a960e01b8152600490fd5b5f80fdfe610120806040526004361015610013575f80fd5b5f905f3560e01c90816301ffc9a714612e90575080631459457a14612c9b5780632427520114612574578063248a9ca31461253b578063249d39e91461251e57806324a9d853146125005780632b8d985d146124bb5780632f2ff15d1461247157806336568abe146124295780633d9f3163146124005780633e413bee146123d75780633f4ba83a14612360578063422f104314611fdb578063478222c214611fb25780634c5b59a514611cba5780634f1ef28614611a4557806352d1902d146119c857806354fd4d50146119aa5780635c975abb1461197b5780635cd8a76b146118c65780636399d03d1461173b57806366f390e5146112db57806372c27b62146112175780638456cb59146111b0578063857620e114610e4357806391d1485414610ded5780639b29429d146109d5578063a217fddf146109b9578063a998d6d814610990578063ad3cb1cc14610920578063ae42820c146108e5578063bf333f2c146108c9578063c0a027f414610829578063d547741f146107db578063e63ab1e9146107a0578063e650e22c14610776578063e94581321461049c578063eb44fdd314610231578063ec979082146102145763f72c0d8b146101d7575f80fd5b3461021157806003193601126102115760206040517f189ab7a9244df0848122154315af71fe140f3db0fe014031783b0946b8c9d2e38152f35b80fd5b503461021157806003193601126102115760209054604051908152f35b5034610211576020366003190112610211578061016060405161025381612f29565b828152606060208201528260408201528260608201528260808201528260a08201528260c08201528260e082015282610100820152826101208201528261014082015201526004358152600160205260408120604051916102b383612f29565b815483526040519081816001850154926102cc84613069565b808452936001811690811561047a5750600114610436575b506102f192500382612f73565b602083015260018060a01b03600282015416604083015260018060a01b0360038201541660608301526004810154608083015260ff600582015481811660a085015260081c16151560c0830152600681015460e0830152600781015461010083015260088101546101208301526009810154610140830152600a60018060a01b0391015416610160820152604051809160208252805160208301526103a7602082015161018060408501526101a084019061300d565b9060018060a01b03604082015116606084015260018060a01b036060820151166080840152608081015160a084015260ff60a08201511660c084015260c0810151151560e084015260e081015161010084015261010081015161012084015261012081015161014084015261014081015161016084015261016060018060a01b03910151166101808301520390f35b91929050600185018252602082205b81831061045e5750509060206102f1928201015f6102e4565b6020919350806001915483858801015201910190918392610445565b9050602092506102f194915060ff191682840152151560051b8201015f6102e4565b5034610211576040366003190112610211576024356004356104bc6134ae565b6104c46134dd565b8115610764578083526020600181526040842060ff600582015460081c1661074b576006016104f4848254613105565b90558360018060a01b0361051085826006541630903390613539565b806004541660405191630e729dc360e41b83528560048401528483602481855afa92831561074057849361070e575b50604051633c39b35760e01b815260048101879052918583602481845afa9283156106c95785936106d8575b50803b156106d45760405163731133e960e01b808252336004830152602482019590955260448101899052608060648201525f6084820152908590829060a490829084905af19081156106c95785916106b5575b50506004541691823b156106a657604051908152336004820152602481019190915260448101869052608060648201525f6084820152908290829060a490829084905af180156106aa57610692575b5090827f737c31e51f67d27e2750b581a4237bd09098e40b15646d49a96b877ba02e2c289252600881526040852060018652815260408520610651858254613105565b9055828552600881526040852060028652815260408520610673858254613105565b90556040519384523393a360015f805160206139bd8339815191525580f35b61069b90612f45565b6106a657835f61060e565b8380fd5b6040513d84823e3d90fd5b6106be90612f45565b6106a657835f6105bf565b6040513d87823e3d90fd5b8480fd5b945091508484813d8111610707575b6106f18183612f73565b8101031261070357879351915f61056b565b5f80fd5b503d6106e7565b935091508383813d8111610739575b6107278183612f73565b8101031261070357869251915f61053f565b503d61071d565b6040513d86823e3d90fd5b60405163ed5d23e160e01b815260048101849052602490fd5b604051631f2a200560e01b8152600490fd5b50346102115760203660031901126102115760406020916004358152600383522054604051908152f35b503461021157806003193601126102115760206040517f65d7a28e3265b37a6474929f336521b332c1681b933f6cb9f3376673440d862a8152f35b5034610211576040366003190112610211576108256004356107fb612ef9565b908084525f8051602061397d8339815191526020526108206001604086200154613480565b613593565b5080f35b50346102115760403660031901126102115760243560ff81168091036107035760018114908115806108be575b6108a65750604060209260043581526001845220905f1461088d578060076008610885930154910154906137c1565b604051908152f35b80600860076108a1930154910154906137c1565b610885565b60249060405190634262666360e01b82526004820152fd5b506002811415610856565b50346102115780600319360112610211576020604051601e8152f35b503461021157806003193601126102115760206040517fd3065a24ad9e7725d223007135762d2902038999e3e5829146654498a58d97958152f35b503461021157806003193601126102115760405160408101908082106001600160401b0383111761097c576109789160405260058152640352e302e360dc1b602082015260405191829160208352602083019061300d565b0390f35b634e487b7160e01b5f52604160045260245ffd5b50346102115780600319360112610211576004546040516001600160a01b039091168152602090f35b5034610211578060031936011261021157602090604051908152f35b5034610211576109e436612fe5565b92919060805260e05260c0526109f86134ae565b610a006134dd565b608051156107645760ff60e0511691600183141580610de2575b610dc95760c051815260209260018452604082209060ff600583015460081c16610daf576007820154916008810154603c54610100528460a052600183145f14610da55780938060a0525b612710610a7761010051608051613112565b0494610aa5610a8887608051613125565b91610a9f83610a998160a051613112565b92613105565b9061304b565b9760a051891015610d8457808910610d66575060018503610d4957610aca9083613105565b91610ad58883613125565b915b0282820210610d2b57600783015560088201556009018054610afa908490613105565b90556006546080516001600160a01b039391610b1c9190309033908716613539565b610b30818460065416856005541690613653565b826005541690813b156106d4578491602483926040519485938492630ebdac0960e41b845260048401525af1801561074057908491610d17575b5050600103610cb257602484826004541660405192838092630e729dc360e41b825260c05160048301525afa908115610ca7578391610c7a575b50905b6004541690813b15610c7657829160c483926040519485938492637921219560e11b8452306004850152336024850152604484015288606484015260a060848401528160a48401525af180156106aa57610c62575b50506040805160c05160805160e05160ff16835260208301529181018390523391907f06d7ac7735ee990694c708724f65610c76c781176d9729adc9e266444527294a9080606081015b0390a360015f805160206139bd83398151915255604051908152f35b610c6c8291612f45565b6102115780610bfc565b8280fd5b90508481813d8311610ca0575b610c918183612f73565b8101031261070357515f610ba4565b503d610c87565b6040513d85823e3d90fd5b602484826004541660405192838092633c39b35760e01b825260c05160048301525afa908115610ca7578391610cea575b5090610ba7565b90508481813d8311610d10575b610d018183612f73565b8101031261070357515f610ce3565b503d610cf7565b610d2090612f45565b610c7657825f610b6a565b6044866040519063a17e11d560e01b82528060048301526024820152fd5b610d5590829392613105565b90610d608882613125565b92610ad7565b60449089604051916371c4efed60e01b835260048301526024820152fd5b60405163a17e11d560e01b815260a0516004820152602481018a9052604490fd5b838160a052610a65565b60405163ed5d23e160e01b815260c0516004820152602490fd5b604051634262666360e01b815260048101849052602490fd5b506002831415610a1a565b5034610211576040366003190112610211576040610e09612ef9565b9160043581525f8051602061397d833981519152602052209060018060a01b03165f52602052602060ff60405f2054166040519015158152f35b503461021157610e5236612f0f565b610e5d9291926134ae565b821561076457818452602060018152604085206002825260408620335f52825260405f205485811061119257508386526003825260408620549060068101610eaf83610eaa83548a613112565b61304b565b9480861061117457506007820192610edf6008610ed183610eaa88548d613112565b940191610eaa83548b613112565b93878a526002865260408a20335f52865260405f20610eff8a8254613125565b9055878a526003865260408a20610f178a8254613125565b9055610f24848254613125565b9055610f31848254613125565b9055610f3e858254613125565b905560048054604051630e729dc360e41b815291820187905290916001600160a01b0391899083168685602481845afa9485156106aa578295611141575b50604051633c39b35760e01b8152600481018a9052908782602481845afa918215610ca757839261110f575b50803b15610c7657604051637a94c56560e11b8082523060048301526024820197909752604481018590529083908290606490829084905af1908115610ca75783916110f7575b5050836004541694853b15610c76576040519081523060048201526024810191909152604481018690529381908590606490829084905af19384156110ea5787946110cd575b50908761108a9592526008865260408a2060018b52865261105b60408b20918254613125565b9055868952600885526040892060028a52855261107d60408a20918254613125565b9055339060065416613612565b6040519384528301527f196a4bf617b45641f176c4e6d288ccf7498f1699f68b1cc1e4daadf92779703b60403393a360015f805160206139bd8339815191525580f35b6110d991929450612f45565b6110e6578491885f611035565b8780fd5b50604051903d90823e3d90fd5b61110090612f45565b61110b57815f610fef565b5080fd5b925090508682813d811161113a575b6111288183612f73565b81010312610703578a9151905f610fa8565b503d61111e565b87809296508193503d831161116d575b61115b8183612f73565b8101031261070357899051935f610f7c565b503d611151565b60449086604051916371c4efed60e01b835260048301526024820152fd5b604490866040519163a17e11d560e01b835260048301526024820152fd5b50346102115780600319360112610211576111c9613425565b6111d16134dd565b5f8051602061399d833981519152600160ff198254161790557f62e78cea01bee320cd4e420270b5ea74000d11b0c9f74754ebdbfc544b05a2586020604051338152a180f35b503461021157602036600319011261021157335f9081527fb7db2dd08fcb62d0c9e08c51941cae53c267786a0b75803fb7960902fc8ef97d60205260409020546004359060ff16156112bd57606481116112a55760407f5ec5620e288c4be955ccb6cfb3d55431a8fed5c4c96ffacc4b9506360695f64e91603c549080603c5582519182526020820152a180f35b602490604051906303dc98a160e51b82526004820152fd5b60405163e2517d3f60e01b81523360048201525f6024820152604490fd5b5034610211576112ea36612fe5565b92906112f46134ae565b6112fc6134dd565b801561076457600160ff841614158061172d575b6117125781855260209460018652604081209060ff600583015460081c166116f95760078201546008830154929060ff87166001036116f15783815b801580156116e9575b6116d757601e8702878104601e036116c35790610a9f61137c61271061138694048a613125565b610a99818a613112565b948510156116b15784601e810204601e148515171561169d576113b0612710601e87020486613125565b98808a1061167f575060ff8816600103611663576113ce8683613105565b906113d98682613125565b925b02828202106116455760078301556008820155600901805461140590612710601e86020490613105565b9055838152600887526040812060ff86165f52875260405f20611429848254613125565b905560ff85166001036115d85760048054604051630e729dc360e41b81529182018690528890829060249082906001600160a01b03165afa9081156106aa5782916115ab575b50915b6004546001600160a01b039390841690813b156106a657604051637a94c56560e11b81523360048201526024810191909152604481018690529083908290606490829084905af18015610ca757908391611597575b50506114e58360065416612710601e84020490856005541690613653565b8260055416803b15610c7657601e6024612710938580946040519687958694630ebdac0960e41b8652020460048401525af180156106aa57908793929161157d575b50509161155b827f4ddd7b8b24dbfafa44373fdda1441f9a9fa3349ce66fa235df8e421e314e516494339060065416613612565b6040805160ff9096168652602086019190915284015233928060608101610c46565b8192935061158a90612f45565b6102115790818692611527565b6115a090612f45565b61110b57815f6114c7565b90508781813d83116115d1575b6115c28183612f73565b8101031261070357515f61146f565b503d6115b8565b60048054604051633c39b35760e01b81529182018690528890829060249082906001600160a01b03165afa9081156106aa578291611618575b5091611472565b90508781813d831161163e575b61162f8183612f73565b8101031261070357515f611611565b503d611625565b6044846040519063a17e11d560e01b82528060048301526024820152fd5b9061166e8683613105565b916116798683613125565b916113db565b6044908a604051916371c4efed60e01b835260048301526024820152fd5b634e487b7160e01b84526011600452602484fd5b60405163ac94b05160e01b8152600490fd5b634e487b7160e01b86526011600452602486fd5b604051632fa17c5f60e11b8152600490fd5b508515611355565b83819461134c565b60405163ed5d23e160e01b815260048101859052602490fd5b604051634262666360e01b815260ff84166004820152602490fd5b50600260ff84161415611310565b5034610211576020366003190112610211576004356117586134ae565b8082526001602052604082206005810180549160ff8360081c166116f95760048101548042106118a85750604060018060a01b03600381600754169301541660248251809481936302c68be360e31b835260048301525afa80156106c9578591869161186f575b50610e0f19420142811161185b57811061183d575091602091857f739f283563fb51ab6b89ee95d937b2e63a6cfcb83c385dbebb629f9d97bd43e694135f146118315761010060ff60015b16809361ffff191617179055604051908152a260015f805160206139bd8339815191525580f35b61010060ff600261180a565b604490604051906304e61d6960e31b82526004820152426024820152fd5b634e487b7160e01b87526011600452602487fd5b9150506040813d6040116118a0575b8161188b60409383612f73565b810103126106d457602081519101515f6117bf565b3d915061187e565b6044906040519063a10a3e6f60e01b82526004820152426024820152fd5b50346102115780600319360112610211577ff0c57e16840df040f15088dc2f81fe391c3923bec73e23a9662efc9c229c6a00805460ff8160401c168015611967575b6119555760029081603b55601e603c5568ffffffffffffffffff19161790557fc7f505b2f371ae2175ee4913f4499e1f2633a7b5936321eed1cdaeb6115181d2602060405160028152a180f35b60405163f92ee8a960e01b8152600490fd5b5060026001600160401b0382161015611908565b5034610211578060031936011261021157602060ff5f8051602061399d83398151915254166040519015158152f35b50346102115780600319360112610211576020603b54604051908152f35b50346102115780600319360112610211577f00000000000000000000000000000000000000000000000000000000000000006001600160a01b03163003611a335760206040517f360894a13ba1a3210667c828492db98dca3e2076cc3735a920a3ca505d382bbc8152f35b60405163703e46dd60e11b8152600490fd5b50604036600319011261021157611a5a612ee3565b60249182356001600160401b03811161110b573660238201121561110b57611a8b9036908581600401359101612faf565b6001600160a01b03927f00000000000000000000000000000000000000000000000000000000000000008416308114908115611c8c575b50611a3357335f9081527fab71e3f32666744d246edff3f96e4bdafee2e9867098cdd118a979a7464786a860209081526040909120549094907f189ab7a9244df0848122154315af71fe140f3db0fe014031783b0946b8c9d2e39060ff1615611c6f57508116936040516352d1902d60e01b81528181600481895afa859181611c3c575b50611b6357604051634c9c8ce360e01b8152600481018790528790fd5b8590877f360894a13ba1a3210667c828492db98dca3e2076cc3735a920a3ca505d382bbc91828103611c275750843b15611c11575080546001600160a01b031916821790556040518592917fbc7cd75a20ee27fd9adebab32041f755214dbc6bffa90cc0225b39da2e5c2d3b8480a2845115611bf45750835161082594839201845af4611bee6138ca565b916138f9565b935050505034611c02575080f35b63b398979f60e01b8152600490fd5b604051634c9c8ce360e01b815260048101849052fd5b60405190632a87526960e21b82526004820152fd5b9091508281813d8311611c68575b611c548183612f73565b81010312611c645751905f611b46565b8580fd5b503d611c4a565b866044916040519163e2517d3f60e01b8352336004840152820152fd5b9050847f360894a13ba1a3210667c828492db98dca3e2076cc3735a920a3ca505d382bbc541614155f611ac2565b50346102115760208060031936011261110b57600435611cd86134ae565b808352600182526040832091600583015460ff8160081c1615611f995760ff169060018203611f2c5760048054604051630e729dc360e41b81529182018590528290829060249082906001600160a01b03165afa908115611f21578691611ef4575b50915b60048054604051627eeac760e11b81523392810192909252602482018590526001600160a01b039491929084908490604490829089165afa928315611ee9578893611eba575b508215610764578588526008845260408820815f52845260405f2054968715611e9a5790600689939201611dc7611dc082549a610eaa8c89613112565b809a613125565b90558683526008855260408320905f52845260405f20611de8848254613125565b9055846004541692833b15610c7657604051637a94c56560e11b8152336004820152602481019290925260448201529181908390606490829084905af19182156110ea578692611e83575b5050611e66907fa5b5f999d356bb14d51114327e0f0eefeed3a4083169d023dd7fe6744ca1517493339060065416613612565b6040519384523393a360015f805160206139bd8339815191525580f35b611e8e919250612f45565b6106d45783855f611e33565b60405163a17e11d560e01b8152600481018a905260016024820152604490fd5b9092508381813d8311611ee2575b611ed28183612f73565b810103126107035751915f611d83565b503d611ec8565b6040513d8a823e3d90fd5b90508181813d8311611f1a575b611f0b8183612f73565b8101031261070357515f611d3a565b503d611f01565b6040513d88823e3d90fd5b60048054604051633c39b35760e01b81529182018590528290829060249082906001600160a01b03165afa908115611f21578691611f6c575b5091611d3d565b90508181813d8311611f92575b611f838183612f73565b8101031261070357515f611f65565b503d611f79565b604051635be8412760e01b815260048101849052602490fd5b50346102115780600319360112610211576005546040516001600160a01b039091168152602090f35b503461021157611fea36612f0f565b611ff59291926134ae565b611ffd6134dd565b821561076457818452602090600182526040852060ff600582015460081c166116f957600681018054908588526003855260408820548781158015612358575b156123195761204c9150613507565b918760011c9384955b8085106122fb57506120899160088260078c9401612074898254613105565b905501612082888254613105565b9055613105565b90558487526002845260408720335f52845260405f206120aa828254613105565b9055848752600384526120c260408820918254613105565b90558560018060a01b036120de87826006541630903390613539565b806004541660405191630e729dc360e41b83528760048401528683602481855afa9283156107405784936122c9575b50604051633c39b35760e01b815260048101899052918783602481845afa9283156106c9578593612297575b50803b156106d45760405163731133e960e01b808252306004830152602482019590955260448101879052608060648201525f6084820152908590829060a490829084905af19081156106c9578591612283575b50506004541691823b156106a657604051908152306004820152602481019190915260448101859052608060648201525f6084820152908290829060a490829084905af180156106aa5761226f575b5092847f089607a52cca0d390ff7d0ad4e97545804dcc41418e1daee9ec3948596fec944945260088152604087206001885281526040872061221f838254613105565b9055848752600881526040872090600288525260408620612241838254613105565b90556040805195865260208601919091528401523392606090a360015f805160206139bd8339815191525580f35b61227890612f45565b611c6457855f6121dc565b61228c90612f45565b6106a657835f61218d565b945091508684813d81116122c2575b6122b08183612f73565b8101031261070357899351915f612139565b503d6122a6565b935091508583813d81116122f4575b6122e28183612f73565b8101031261070357889251915f61210d565b503d6122d8565b60449085604051916371c4efed60e01b835260048301526024820152fd5b9361235284610eaa61234b82610eaa61233f82610eaa8d9a9e9c9a60078b015490613112565b9a600888015490613112565b988c613112565b93612055565b50831561203d565b5034610211578060031936011261021157612379613425565b5f8051602061399d833981519152805460ff8116156123c55760ff191690557f5db9ee0a495bf2e6ff9c91a7834c1ba4fdd244a5e8aa4e537bd38aeae4b073aa6020604051338152a180f35b604051638dfc202b60e01b8152600490fd5b50346102115780600319360112610211576006546040516001600160a01b039091168152602090f35b50346102115780600319360112610211576007546040516001600160a01b039091168152602090f35b503461021157604036600319011261021157612443612ef9565b336001600160a01b0382160361245f5761082590600435613593565b60405163334bd91960e11b8152600490fd5b503461021157604036600319011261021157610825600435612491612ef9565b908084525f8051602061397d8339815191526020526124b66001604086200154613480565b6133b5565b50346102115760403660031901126102115760406124d7612ef9565b9160043581526002602052209060018060a01b03165f52602052602060405f2054604051908152f35b50346102115780600319360112610211576020603c54604051908152f35b503461021157806003193601126102115760206040516127108152f35b5034610211576020366003190112610211576001604060209260043581525f8051602061397d8339815191528452200154604051908152f35b5034610703576080366003190112610703576004356001600160401b0381116107035736602382011215610703576001600160401b0381600401351161070357366024826004013583010111610703576125cc612ef9565b335f9081527f4985277e13e79c80ffb67516cc1ac6faf62ca5f0183ddecb95001c002084695160205260409020549092907fd3065a24ad9e7725d223007135762d2902038999e3e5829146654498a58d97959060ff1615612c7d57506126306134ae565b6126386134dd565b816004013515612c6b576001600160a01b03831615612c5957426044351115612c485760643515610764575f54915f198314612c3457600183015f55600654604051906001600160a01b031661268d82612f29565b6001850182526126a536846004013560248601612faf565b6020830152604082015260018060a01b038516606082015260443560808201525f60a08201525f60c082015260643560e082015260643560011c61010082015260643560011c6101208201525f61014082015233610160820152600184015f52600160205260405f208151815560208201518051906001600160401b03821161097c5781906127376001850154613069565b601f8111612be4575b50602090601f8311600114612b76575f92612b6b575b50508160011b915f199060031b1c19161760018201555b600a600282019160018060a01b03604085015116926bffffffffffffffffffffffff60a01b93848254161790556003810160018060a01b0360608601511684825416179055608084015160048201556005810160ff60a08601511681549061ff0060c0880151151560081b169161ffff19161717905560e08401516006820155610100840151600782015561012084015160088201556101408401516009820155019161016060018060a01b039101511690825416179055612830606435613507565b600184015f52600260205260405f20335f526020528060405f2055600184015f52600360205260405f205561287660018060a01b03600654166064359030903390613539565b60048054604051630e729dc360e41b815260018601928101929092529094906001600160a01b0316602086602481845afa958615612afa575f96612b37575b50604051633c39b35760e01b8152600186016004820152602081602481855afa908115612afa575f91612b05575b50604051906128f182612f58565b6002825260403660208401376040519761290a89612f58565b6002895260403660208b013761291f836130a1565b52612929826130c2565b5260643560011c612939886130a1565b5260643560011c612949886130c2565b52813b15610703575f91612986918360206129986040519b8c968795630fbfeffd60e11b87523060048801526080602488015260848701906130d2565b858103600319016044870152906130d2565b8284820391600319830160648701525201925af1948515612afa57602095612ae7575b506001840183526008855260408320600184528552604083206129e460643560011c8254613105565b9055600184018352600885526040832060028452855260408320612a0e60643560011c8254613105565b90556040519260408452826004013560408501528260040135602484016060860137606083600401358501015260018060a01b0316848301527f29841fb89b1be7c2e8fe39ff2597687a4e76f27a64bcf82bd394ab4ef16e27f433926060816001870194601f8019916004013501168101030190a360408051606435808252600190811c602083018190529282019290925233918301907f089607a52cca0d390ff7d0ad4e97545804dcc41418e1daee9ec3948596fec94490606090a360015f805160206139bd83398151915255600160405191018152f35b612af2919350612f45565b5f915f6129bb565b6040513d5f823e3d90fd5b90506020813d602011612b2f575b81612b2060209383612f73565b8101031261070357515f6128e3565b3d9150612b13565b9095506020813d602011612b63575b81612b5360209383612f73565b810103126107035751945f6128b5565b3d9150612b46565b015190505f80612756565b9250600184015f5260205f20905f935b601f1984168510612bc9576001945083601f19811610612bb1575b505050811b01600182015561276d565b01515f1960f88460031b161c191690555f8080612ba1565b81810151835560209485019460019093019290910190612b86565b909150600184015f5260205f20601f840160051c810160208510612c2d575b90849392915b601f830160051c82018110612c1f575050612740565b5f8155859450600101612c09565b5080612c03565b634e487b7160e01b5f52601160045260245ffd5b6040516282a4d560e51b8152600490fd5b6040516301f86e1760e41b8152600490fd5b60405163103c380960e31b8152600490fd5b6044906040519063e2517d3f60e01b82523360048301526024820152fd5b346107035760a036600319011261070357612cb4612ee3565b612cbc612ef9565b6001600160a01b0360443581811693908490036107035760643582811680910361070357608435918383168303610703577ff0c57e16840df040f15088dc2f81fe391c3923bec73e23a9662efc9c229c6a009586549460ff8660401c1615966001600160401b03871680159081612e88575b6001149081612e7e575b159081612e75575b506119555767ffffffffffffffff1987166001178955612e129688612e56575b50612d69613800565b612d71613800565b612d79613800565b612d81613800565b60015f805160206139bd83398151915255612d9a613800565b612da2613800565b5f8051602061399d83398151915260ff198154169055816bffffffffffffffffffffffff60a01b9416846006541617600655168260045416176004558160055416176005556007541617600755612df881613132565b50612e02816131bc565b50612e0c81613269565b5061330f565b50612e1957005b68ff00000000000000001981541690557fc7f505b2f371ae2175ee4913f4499e1f2633a7b5936321eed1cdaeb6115181d2602060405160018152a1005b68ffffffffffffffffff19166801000000000000000117895589612d60565b9050158a612d40565b303b159150612d38565b899150612d2e565b34610703576020366003190112610703576004359063ffffffff60e01b821680920361070357602091637965db0b60e01b8114908115612ed2575b5015158152f35b6301ffc9a760e01b14905083612ecb565b600435906001600160a01b038216820361070357565b602435906001600160a01b038216820361070357565b606090600319011261070357600435906024359060443590565b61018081019081106001600160401b0382111761097c57604052565b6001600160401b03811161097c57604052565b606081019081106001600160401b0382111761097c57604052565b90601f801991011681019081106001600160401b0382111761097c57604052565b6001600160401b03811161097c57601f01601f191660200190565b929192612fbb82612f94565b91612fc96040519384612f73565b829481845281830111610703578281602093845f960137010152565b6080906003190112610703576004359060243560ff8116810361070357906044359060643590565b91908251928382525f5b848110613037575050825f602080949584010152601f8019910116010190565b602081830181015184830182015201613017565b8115613055570490565b634e487b7160e01b5f52601260045260245ffd5b90600182811c92168015613097575b602083101461308357565b634e487b7160e01b5f52602260045260245ffd5b91607f1691613078565b8051156130ae5760200190565b634e487b7160e01b5f52603260045260245ffd5b8051600110156130ae5760400190565b9081518082526020808093019301915f5b8281106130f1575050505090565b8351855293810193928101926001016130e3565b91908201809211612c3457565b81810292918115918404141715612c3457565b91908203918211612c3457565b6001600160a01b03165f8181527fb7db2dd08fcb62d0c9e08c51941cae53c267786a0b75803fb7960902fc8ef97d60205260409020545f8051602061397d8339815191529060ff166131b6575f805260205260405f20815f5260205260405f20600160ff1982541617905533905f5f8051602061395d8339815191528180a4600190565b50505f90565b6001600160a01b03165f8181527f4985277e13e79c80ffb67516cc1ac6faf62ca5f0183ddecb95001c002084695160205260409020547fd3065a24ad9e7725d223007135762d2902038999e3e5829146654498a58d979591905f8051602061397d8339815191529060ff1661326257825f5260205260405f20815f5260205260405f20600160ff1982541617905533915f8051602061395d8339815191525f80a4600190565b5050505f90565b6001600160a01b03165f8181527f75442b0a96088b5456bc4ed01394c96a4feec0f883c9494257d76b96ab1c9b6b60205260409020547f65d7a28e3265b37a6474929f336521b332c1681b933f6cb9f3376673440d862a91905f8051602061397d8339815191529060ff1661326257825f5260205260405f20815f5260205260405f20600160ff1982541617905533915f8051602061395d8339815191525f80a4600190565b6001600160a01b03165f8181527fab71e3f32666744d246edff3f96e4bdafee2e9867098cdd118a979a7464786a860205260409020547f189ab7a9244df0848122154315af71fe140f3db0fe014031783b0946b8c9d2e391905f8051602061397d8339815191529060ff1661326257825f5260205260405f20815f5260205260405f20600160ff1982541617905533915f8051602061395d8339815191525f80a4600190565b90815f525f8051602061397d8339815191528060205260405f209160018060a01b031691825f5260205260ff60405f205416155f1461326257825f5260205260405f20815f5260205260405f20600160ff1982541617905533915f8051602061395d8339815191525f80a4600190565b335f9081527f75442b0a96088b5456bc4ed01394c96a4feec0f883c9494257d76b96ab1c9b6b60205260409020547f65d7a28e3265b37a6474929f336521b332c1681b933f6cb9f3376673440d862a9060ff1615612c7d5750565b805f525f8051602061397d83398151915260205260405f20335f5260205260ff60405f20541615612c7d5750565b5f805160206139bd83398151915260028154146134cb5760029055565b604051633ee5aeb560e01b8152600490fd5b60ff5f8051602061399d83398151915254166134f557565b60405163d93c066560e01b8152600490fd5b908115613534578160018082811c01915b84831061352457505050565b9193508382048401811c91613518565b5f9150565b6040516323b872dd60e01b60208201526001600160a01b03928316602482015292909116604483015260648083019390935291815260a08101918183106001600160401b0384111761097c5761359192604052613859565b565b90815f525f8051602061397d8339815191528060205260405f209160018060a01b031691825f5260205260ff60405f2054165f1461326257825f5260205260405f20815f5260205260405f2060ff19815416905533917ff6391f5c32d9c69d2a47ea670b442974b53935d1edc7fd64eb21e047a839171b5f80a4600190565b60405163a9059cbb60e01b60208201526001600160a01b039290921660248301526044808301939093529181526135919161364e606483612f73565b613859565b604051636eb1769f60e11b81523060048201526001600160a01b038381166024830181905260209591841694909290918682604481895afa8015612afa575f90613792575b6136a29250613105565b60405163095ea7b360e01b8782018181526001600160a01b039490941660248301526044808301939093529181529490915f9081906136e2606489612f73565b87519082855af1906136f26138ca565b8261375f575b5081613754575b501561370d575b5050505050565b6040519485015260248401525f604484015260448352608083018381106001600160401b0382111761097c5761374a9361364e9160405282613859565b5f80808080613706565b90503b15155f6136ff565b80919250519087821592831561377a575b505050905f6136f8565b61378a9350820181019101613841565b5f8781613770565b508682813d83116137ba575b6137a88183612f73565b81010312610703576136a29151613698565b503d61379e565b801580156137f8575b6116d757670de0b6b3a764000090818302918383041483151715612c34576137f592610a9f91613105565b90565b5081156137ca565b60ff7ff0c57e16840df040f15088dc2f81fe391c3923bec73e23a9662efc9c229c6a005460401c161561382f57565b604051631afcd79f60e31b8152600490fd5b90816020910312610703575180151581036107035790565b5f806138819260018060a01b03169360208151910182865af161387a6138ca565b90836138f9565b80519081151591826138af575b50506138975750565b60249060405190635274afe760e01b82526004820152fd5b6138c29250602080918301019101613841565b155f8061388e565b3d156138f4573d906138db82612f94565b916138e96040519384612f73565b82523d5f602084013e565b606090565b90613920575080511561390e57805190602001fd5b604051630a12f52160e11b8152600490fd5b81511580613953575b613931575090565b604051639996b31560e01b81526001600160a01b039091166004820152602490fd5b50803b1561392956fe2f8788117e7eff1d82e926ec794901d17c78024a50270940304540a733656f0d02dd7bc7dec4dceedda775e58dd541e08a116c6c53815c0bd028192f7b626800cd5ed15c6e187e77e9aee88184c21f4f2182ab5827cb3b7e07fbedcd63f033009b779b17422d0df92223018b32b4d1fa46e071723d6817e2486d003becc55f00a2646970667358221220f5f06846b682f0de241d6a2ba5cc7c764185e1c08f32463ad8dc1e509d5488bc64736f6c63430008180033","linkReferences":{}},"methodIdentifiers":{"BPS()":"249d39e9","DEFAULT_ADMIN_ROLE()":"a217fddf","FEE_BPS()":"bf333f2c","MARKET_CREATOR_ROLE()":"ae42820c","PAUSER_ROLE()":"e63ab1e9","UPGRADER_ROLE()":"f72c0d8b","UPGRADE_INTERFACE_VERSION()":"ad3cb1cc","addLiquidity(uint256,uint256,uint256)":"422f1043","buy(uint256,uint8,uint256,uint256)":"9b29429d","createMarket(string,address,uint256,uint256)":"24275201","feeBps()":"24a9d853","feeVault()":"478222c2","getLpShares(uint256,address)":"2b8d985d","getMarket(uint256)":"eb44fdd3","getPrice(uint256,uint8)":"c0a027f4","getRoleAdmin(bytes32)":"248a9ca3","getTotalLpShares(uint256)":"e650e22c","grantRole(bytes32,address)":"2f2ff15d","hasRole(bytes32,address)":"91d14854","initialize(address,address,address,address,address)":"1459457a","initializeV2()":"5cd8a76b","marketCount()":"ec979082","mintOutcomeTokens(uint256,uint256)":"e9458132","oracleAdapter()":"3d9f3163","outcomeToken()":"a998d6d8","pause()":"8456cb59","paused()":"5c975abb","proxiableUUID()":"52d1902d","redeemWinningTokens(uint256)":"4c5b59a5","removeLiquidity(uint256,uint256,uint256)":"857620e1","renounceRole(bytes32,address)":"36568abe","resolveMarket(uint256)":"6399d03d","revokeRole(bytes32,address)":"d547741f","sell(uint256,uint8,uint256,uint256)":"66f390e5","setFeeBps(uint256)":"72c27b62","supportsInterface(bytes4)":"01ffc9a7","unpause()":"3f4ba83a","upgradeToAndCall(address,bytes)":"4f1ef286","usdc()":"3e413bee","version()":"54fd4d50"},"id":36}