{"abi":[{"type":"receive","stateMutability":"payable"},{"type":"function","name":"redeemWinningTokens","inputs":[{"name":"marketId","type":"uint256","internalType":"uint256"}],"outputs":[],"stateMutability":"nonpayable"},{"type":"function","name":"seedBalance","inputs":[{"name":"marketId","type":"uint256","internalType":"uint256"},{"name":"user","type":"address","internalType":"address"},{"name":"amount","type":"uint256","internalType":"uint256"}],"outputs":[],"stateMutability":"payable"},{"type":"function","name":"totalCollateral","inputs":[{"name":"","type":"uint256","internalType":"uint256"}],"outputs":[{"name":"","type":"uint256","internalType":"uint256"}],"stateMutability":"view"},{"type":"function","name":"totalWinningSupply","inputs":[{"name":"","type":"uint256","internalType":"uint256"}],"outputs":[{"name":"","type":"uint256","internalType":"uint256"}],"stateMutability":"view"},{"type":"function","name":"winningBalances","inputs":[{"name":"","type":"uint256","internalType":"uint256"},{"name":"","type":"address","internalType":"address"}],"outputs":[{"name":"","type":"uint256","internalType":"uint256"}],"stateMutability":"view"},{"type":"event","name":"WinningsRedeemed","inputs":[{"name":"marketId","type":"uint256","indexed":true,"internalType":"uint256"},{"name":"redeemer","type":"address","indexed":true,"internalType":"address"},{"name":"amount","type":"uint256","indexed":false,"internalType":"uint256"}],"anonymous":false}],"bytecode":{"object":"0x60808060405234610016576103a9908161001b8239f35b5f80fdfe6080604081815260049182361015610021575b505050361561001f575f80fd5b005b5f3560e01c90816323a2b7d01461030a575080634c5b59a51461013f5780637734753a14610101578063a6c039761461008e5763f79855cf146100645780610012565b3461008a57602036600319011261008a57602091355f5260018252805f20549051908152f35b5f80fd5b5090606036600319011261008a57356100a561032f565b60443590825f525f602052835f209060018060a01b03165f52602052825f206100cf828254610366565b9055815f5260026020526100e7835f20918254610366565b90555f5260016020525f206100fd348254610366565b9055005b503461008a578060031936011261008a5760209161011d61032f565b90355f525f8352815f209060018060a01b03165f528252805f20549051908152f35b503461008a5760208060031936011261008a57823591825f525f8252805f20335f528252805f205480156102da57835f5260018352815f205480820290828204036102c757845f5260028452825f20549081156102b45704945f80808089335af13d156102af5767ffffffffffffffff3d81811161029c57855191601f8201601f19908116603f011683019081118382101761028957865281525f863d92013e5b156102545750907fa5b5f999d356bb14d51114327e0f0eefeed3a4083169d023dd7fe6744ca151749291845f525f8352815f20335f5283525f82812055845f5260018352815f20610232878254610345565b9055845f5260028352610249825f20918254610345565b9055519384523393a3005b825162461bcd60e51b8152908101849052600f60248201526e1d1c985b9cd9995c8819985a5b1959608a1b6044820152606490fd5b604185634e487b7160e01b5f525260245ffd5b604184634e487b7160e01b5f525260245ffd5b6101e0565b601287634e487b7160e01b5f525260245ffd5b601186634e487b7160e01b5f525260245ffd5b815162461bcd60e51b8152808601849052600a6024820152696e6f2062616c616e636560b01b6044820152606490fd5b9190503461008a57602036600319011261008a57602092355f52600283525f20548152f35b602435906001600160a01b038216820361008a57565b9190820391821161035257565b634e487b7160e01b5f52601160045260245ffd5b919082018092116103525756fea26469706673582212203bcf2622d6101fead739c8f0ceafc95274389beba0aeb0584babf330c2c9ce5264736f6c63430008180033","linkReferences":{}},"methodIdentifiers":{"redeemWinningTokens(uint256)":"4c5b59a5","seedBalance(uint256,address,uint256)":"a6c03976","totalCollateral(uint256)":"f79855cf","totalWinningSupply(uint256)":"23a2b7d0","winningBalances(uint256,address)":"7734753a"},"id":85}