{"abi":[{"type":"constructor","inputs":[{"name":"initialAdmin","type":"address","internalType":"address"}],"stateMutability":"nonpayable"},{"type":"function","name":"CLOCK_MODE","inputs":[],"outputs":[{"name":"","type":"string","internalType":"string"}],"stateMutability":"pure"},{"type":"function","name":"DEFAULT_ADMIN_ROLE","inputs":[],"outputs":[{"name":"","type":"bytes32","internalType":"bytes32"}],"stateMutability":"view"},{"type":"function","name":"DOMAIN_SEPARATOR","inputs":[],"outputs":[{"name":"","type":"bytes32","internalType":"bytes32"}],"stateMutability":"view"},{"type":"function","name":"MAX_SUPPLY","inputs":[],"outputs":[{"name":"","type":"uint256","internalType":"uint256"}],"stateMutability":"view"},{"type":"function","name":"MINTER_ROLE","inputs":[],"outputs":[{"name":"","type":"bytes32","internalType":"bytes32"}],"stateMutability":"view"},{"type":"function","name":"allowance","inputs":[{"name":"owner","type":"address","internalType":"address"},{"name":"spender","type":"address","internalType":"address"}],"outputs":[{"name":"","type":"uint256","internalType":"uint256"}],"stateMutability":"view"},{"type":"function","name":"approve","inputs":[{"name":"spender","type":"address","internalType":"address"},{"name":"value","type":"uint256","internalType":"uint256"}],"outputs":[{"name":"","type":"bool","internalType":"bool"}],"stateMutability":"nonpayable"},{"type":"function","name":"balanceOf","inputs":[{"name":"account","type":"address","internalType":"address"}],"outputs":[{"name":"","type":"uint256","internalType":"uint256"}],"stateMutability":"view"},{"type":"function","name":"checkpoints","inputs":[{"name":"account","type":"address","internalType":"address"},{"name":"pos","type":"uint32","internalType":"uint32"}],"outputs":[{"name":"","type":"tuple","internalType":"struct Checkpoints.Checkpoint208","components":[{"name":"_key","type":"uint48","internalType":"uint48"},{"name":"_value","type":"uint208","internalType":"uint208"}]}],"stateMutability":"view"},{"type":"function","name":"clock","inputs":[],"outputs":[{"name":"","type":"uint48","internalType":"uint48"}],"stateMutability":"view"},{"type":"function","name":"decimals","inputs":[],"outputs":[{"name":"","type":"uint8","internalType":"uint8"}],"stateMutability":"view"},{"type":"function","name":"delegate","inputs":[{"name":"delegatee","type":"address","internalType":"address"}],"outputs":[],"stateMutability":"nonpayable"},{"type":"function","name":"delegateBySig","inputs":[{"name":"delegatee","type":"address","internalType":"address"},{"name":"nonce","type":"uint256","internalType":"uint256"},{"name":"expiry","type":"uint256","internalType":"uint256"},{"name":"v","type":"uint8","internalType":"uint8"},{"name":"r","type":"bytes32","internalType":"bytes32"},{"name":"s","type":"bytes32","internalType":"bytes32"}],"outputs":[],"stateMutability":"nonpayable"},{"type":"function","name":"delegates","inputs":[{"name":"account","type":"address","internalType":"address"}],"outputs":[{"name":"","type":"address","internalType":"address"}],"stateMutability":"view"},{"type":"function","name":"eip712Domain","inputs":[],"outputs":[{"name":"fields","type":"bytes1","internalType":"bytes1"},{"name":"name","type":"string","internalType":"string"},{"name":"version","type":"string","internalType":"string"},{"name":"chainId","type":"uint256","internalType":"uint256"},{"name":"verifyingContract","type":"address","internalType":"address"},{"name":"salt","type":"bytes32","internalType":"bytes32"},{"name":"extensions","type":"uint256[]","internalType":"uint256[]"}],"stateMutability":"view"},{"type":"function","name":"getPastTotalSupply","inputs":[{"name":"timepoint","type":"uint256","internalType":"uint256"}],"outputs":[{"name":"","type":"uint256","internalType":"uint256"}],"stateMutability":"view"},{"type":"function","name":"getPastVotes","inputs":[{"name":"account","type":"address","internalType":"address"},{"name":"timepoint","type":"uint256","internalType":"uint256"}],"outputs":[{"name":"","type":"uint256","internalType":"uint256"}],"stateMutability":"view"},{"type":"function","name":"getRoleAdmin","inputs":[{"name":"role","type":"bytes32","internalType":"bytes32"}],"outputs":[{"name":"","type":"bytes32","internalType":"bytes32"}],"stateMutability":"view"},{"type":"function","name":"getVotes","inputs":[{"name":"account","type":"address","internalType":"address"}],"outputs":[{"name":"","type":"uint256","internalType":"uint256"}],"stateMutability":"view"},{"type":"function","name":"grantRole","inputs":[{"name":"role","type":"bytes32","internalType":"bytes32"},{"name":"account","type":"address","internalType":"address"}],"outputs":[],"stateMutability":"nonpayable"},{"type":"function","name":"hasRole","inputs":[{"name":"role","type":"bytes32","internalType":"bytes32"},{"name":"account","type":"address","internalType":"address"}],"outputs":[{"name":"","type":"bool","internalType":"bool"}],"stateMutability":"view"},{"type":"function","name":"mint","inputs":[{"name":"to","type":"address","internalType":"address"},{"name":"amount","type":"uint256","internalType":"uint256"}],"outputs":[],"stateMutability":"nonpayable"},{"type":"function","name":"name","inputs":[],"outputs":[{"name":"","type":"string","internalType":"string"}],"stateMutability":"view"},{"type":"function","name":"nonces","inputs":[{"name":"owner","type":"address","internalType":"address"}],"outputs":[{"name":"","type":"uint256","internalType":"uint256"}],"stateMutability":"view"},{"type":"function","name":"numCheckpoints","inputs":[{"name":"account","type":"address","internalType":"address"}],"outputs":[{"name":"","type":"uint32","internalType":"uint32"}],"stateMutability":"view"},{"type":"function","name":"permit","inputs":[{"name":"owner","type":"address","internalType":"address"},{"name":"spender","type":"address","internalType":"address"},{"name":"value","type":"uint256","internalType":"uint256"},{"name":"deadline","type":"uint256","internalType":"uint256"},{"name":"v","type":"uint8","internalType":"uint8"},{"name":"r","type":"bytes32","internalType":"bytes32"},{"name":"s","type":"bytes32","internalType":"bytes32"}],"outputs":[],"stateMutability":"nonpayable"},{"type":"function","name":"renounceRole","inputs":[{"name":"role","type":"bytes32","internalType":"bytes32"},{"name":"callerConfirmation","type":"address","internalType":"address"}],"outputs":[],"stateMutability":"nonpayable"},{"type":"function","name":"revokeRole","inputs":[{"name":"role","type":"bytes32","internalType":"bytes32"},{"name":"account","type":"address","internalType":"address"}],"outputs":[],"stateMutability":"nonpayable"},{"type":"function","name":"supportsInterface","inputs":[{"name":"interfaceId","type":"bytes4","internalType":"bytes4"}],"outputs":[{"name":"","type":"bool","internalType":"bool"}],"stateMutability":"view"},{"type":"function","name":"symbol","inputs":[],"outputs":[{"name":"","type":"string","internalType":"string"}],"stateMutability":"view"},{"type":"function","name":"totalSupply","inputs":[],"outputs":[{"name":"","type":"uint256","internalType":"uint256"}],"stateMutability":"view"},{"type":"function","name":"transfer","inputs":[{"name":"to","type":"address","internalType":"address"},{"name":"value","type":"uint256","internalType":"uint256"}],"outputs":[{"name":"","type":"bool","internalType":"bool"}],"stateMutability":"nonpayable"},{"type":"function","name":"transferFrom","inputs":[{"name":"from","type":"address","internalType":"address"},{"name":"to","type":"address","internalType":"address"},{"name":"value","type":"uint256","internalType":"uint256"}],"outputs":[{"name":"","type":"bool","internalType":"bool"}],"stateMutability":"nonpayable"},{"type":"event","name":"Approval","inputs":[{"name":"owner","type":"address","indexed":true,"internalType":"address"},{"name":"spender","type":"address","indexed":true,"internalType":"address"},{"name":"value","type":"uint256","indexed":false,"internalType":"uint256"}],"anonymous":false},{"type":"event","name":"DelegateChanged","inputs":[{"name":"delegator","type":"address","indexed":true,"internalType":"address"},{"name":"fromDelegate","type":"address","indexed":true,"internalType":"address"},{"name":"toDelegate","type":"address","indexed":true,"internalType":"address"}],"anonymous":false},{"type":"event","name":"DelegateVotesChanged","inputs":[{"name":"delegate","type":"address","indexed":true,"internalType":"address"},{"name":"previousVotes","type":"uint256","indexed":false,"internalType":"uint256"},{"name":"newVotes","type":"uint256","indexed":false,"internalType":"uint256"}],"anonymous":false},{"type":"event","name":"EIP712DomainChanged","inputs":[],"anonymous":false},{"type":"event","name":"RoleAdminChanged","inputs":[{"name":"role","type":"bytes32","indexed":true,"internalType":"bytes32"},{"name":"previousAdminRole","type":"bytes32","indexed":true,"internalType":"bytes32"},{"name":"newAdminRole","type":"bytes32","indexed":true,"internalType":"bytes32"}],"anonymous":false},{"type":"event","name":"RoleGranted","inputs":[{"name":"role","type":"bytes32","indexed":true,"internalType":"bytes32"},{"name":"account","type":"address","indexed":true,"internalType":"address"},{"name":"sender","type":"address","indexed":true,"internalType":"address"}],"anonymous":false},{"type":"event","name":"RoleRevoked","inputs":[{"name":"role","type":"bytes32","indexed":true,"internalType":"bytes32"},{"name":"account","type":"address","indexed":true,"internalType":"address"},{"name":"sender","type":"address","indexed":true,"internalType":"address"}],"anonymous":false},{"type":"event","name":"Transfer","inputs":[{"name":"from","type":"address","indexed":true,"internalType":"address"},{"name":"to","type":"address","indexed":true,"internalType":"address"},{"name":"value","type":"uint256","indexed":false,"internalType":"uint256"}],"anonymous":false},{"type":"error","name":"AccessControlBadConfirmation","inputs":[]},{"type":"error","name":"AccessControlUnauthorizedAccount","inputs":[{"name":"account","type":"address","internalType":"address"},{"name":"neededRole","type":"bytes32","internalType":"bytes32"}]},{"type":"error","name":"CheckpointUnorderedInsertion","inputs":[]},{"type":"error","name":"ECDSAInvalidSignature","inputs":[]},{"type":"error","name":"ECDSAInvalidSignatureLength","inputs":[{"name":"length","type":"uint256","internalType":"uint256"}]},{"type":"error","name":"ECDSAInvalidSignatureS","inputs":[{"name":"s","type":"bytes32","internalType":"bytes32"}]},{"type":"error","name":"ERC20ExceededSafeSupply","inputs":[{"name":"increasedSupply","type":"uint256","internalType":"uint256"},{"name":"cap","type":"uint256","internalType":"uint256"}]},{"type":"error","name":"ERC20InsufficientAllowance","inputs":[{"name":"spender","type":"address","internalType":"address"},{"name":"allowance","type":"uint256","internalType":"uint256"},{"name":"needed","type":"uint256","internalType":"uint256"}]},{"type":"error","name":"ERC20InsufficientBalance","inputs":[{"name":"sender","type":"address","internalType":"address"},{"name":"balance","type":"uint256","internalType":"uint256"},{"name":"needed","type":"uint256","internalType":"uint256"}]},{"type":"error","name":"ERC20InvalidApprover","inputs":[{"name":"approver","type":"address","internalType":"address"}]},{"type":"error","name":"ERC20InvalidReceiver","inputs":[{"name":"receiver","type":"address","internalType":"address"}]},{"type":"error","name":"ERC20InvalidSender","inputs":[{"name":"sender","type":"address","internalType":"address"}]},{"type":"error","name":"ERC20InvalidSpender","inputs":[{"name":"spender","type":"address","internalType":"address"}]},{"type":"error","name":"ERC2612ExpiredSignature","inputs":[{"name":"deadline","type":"uint256","internalType":"uint256"}]},{"type":"error","name":"ERC2612InvalidSigner","inputs":[{"name":"signer","type":"address","internalType":"address"},{"name":"owner","type":"address","internalType":"address"}]},{"type":"error","name":"ERC5805FutureLookup","inputs":[{"name":"timepoint","type":"uint256","internalType":"uint256"},{"name":"clock","type":"uint48","internalType":"uint48"}]},{"type":"error","name":"ERC6372InconsistentClock","inputs":[]},{"type":"error","name":"InvalidAccountNonce","inputs":[{"name":"account","type":"address","internalType":"address"},{"name":"currentNonce","type":"uint256","internalType":"uint256"}]},{"type":"error","name":"InvalidShortString","inputs":[]},{"type":"error","name":"SafeCastOverflowedUintDowncast","inputs":[{"name":"bits","type":"uint8","internalType":"uint8"},{"name":"value","type":"uint256","internalType":"uint256"}]},{"type":"error","name":"StringTooLong","inputs":[{"name":"str","type":"string","internalType":"string"}]},{"type":"error","name":"SupplyCapExceeded","inputs":[{"name":"requested","type":"uint256","internalType":"uint256"},{"name":"available","type":"uint256","internalType":"uint256"}]},{"type":"error","name":"VotesExpiredSignature","inputs":[{"name":"expiry","type":"uint256","internalType":"uint256"}]}],"bytecode":{"object":"0x61016034620004d557601f62002d9938819003918201601f19168301916001600160401b03831184841017620002b657808492602094604052833981010312620004d557516001600160a01b0381168103620004d557604051906200006482620004d9565b600d82526c283932b234b1ba34b7b723b7bb60991b90816020840152604051916200008f83620004d9565b600d8352602083015260405192620000a784620004d9565b60048452632823a7ab60e11b602085015260405192620000c784620004d9565b60018452603160f81b60208501528051906001600160401b038211620002b65760035490600182811c92168015620004ca575b6020831014620003a35781601f84931162000457575b50602090601f8311600114620003ce575f92620003c2575b50508160011b915f199060031b1c1916176003555b83516001600160401b038111620002b657600454600181811c91168015620003b7575b6020821014620003a357601f81116200033f575b50602094601f8211600114620002d6579481929394955f92620002ca575b50508160011b915f199060031b1c1916176004555b620001b28162000606565b91610120928352620001c484620007be565b9161014092835260208151910120938460e0526020815191012090610100948286524660a0526040519260208401917f8b73c3c69bb8fe3d512ecc4cf759cc79239f7b179b0ffacaa9a75d522b39400f8352604085015260608401524660808401523060a084015260a0835260c083019280841060018060401b03851117620002b6576200026b936040525190206080523060c0526200026481620004f5565b5062000565565b50604051916123ed93846200096c853960805184611455015260a05184611510015260c0518461141f015260e051846114a4015251836114ca015251826109d1015251816109fa0152f35b634e487b7160e01b5f52604160045260245ffd5b015190505f8062000192565b601f1982169560045f5260205f20915f5b88811062000326575083600195969798106200030d575b505050811b01600455620001a7565b01515f1960f88460031b161c191690555f8080620002fe565b91926020600181928685015181550194019201620002e7565b60045f527f8a35acfbc15ff81a39ae7d344fd709f28e8600b4aa8c65c6b64bfe7fe36bd19b601f830160051c8101602084106200039b575b601f830160051c820181106200038f57505062000174565b5f815560010162000377565b508062000377565b634e487b7160e01b5f52602260045260245ffd5b90607f169062000160565b015190505f8062000128565b60035f9081527fc2575a0e9e593c00f959f8c92f12db2869c3395a3b0502d05e2516446f71f85b9350601f198516905b8181106200043e575090846001959493921062000425575b505050811b016003556200013d565b01515f1960f88460031b161c191690555f808062000416565b92936020600181928786015181550195019301620003fe565b60035f529091507fc2575a0e9e593c00f959f8c92f12db2869c3395a3b0502d05e2516446f71f85b601f840160051c81019160208510620004bf575b90601f859493920160051c01905b818110620004b0575062000110565b5f8155849350600101620004a1565b909150819062000493565b91607f1691620000fa565b5f80fd5b604081019081106001600160401b03821117620002b657604052565b6001600160a01b03165f8181525f8051602062002d79833981519152602052604090205460ff1662000560575f8181525f8051602062002d7983398151915260205260408120805460ff191660011790553391905f8051602062002d598339815191528180a4600190565b505f90565b6001600160a01b03165f8181527ff70e363b3d7895af770c4a138460777d52eebd3cb9962ccc6b58721f6127bbc860205260409020547f9f2df0fed2c77648de5860a4cc508cd0818c85b8b8a1ab4ceeef8d981c8956a6919060ff166200060057815f52600b60205260405f20815f5260205260405f20600160ff1982541617905533915f8051602062002d598339815191525f80a4600190565b50505f90565b80516020919082811015620006a2575090601f8251116200064357808251920151908083106200063557501790565b825f19910360031b1b161790565b90604051809263305a27a960e01b82528060048301528251908160248401525f935b82851062000688575050604492505f838284010152601f80199101168101030190fd5b848101820151868601604401529381019385935062000665565b6001600160401b038111620002b6576005928354926001938481811c91168015620007b3575b83821014620003a357601f81116200077f575b5081601f84116001146200071957509282939183925f946200070d575b50501b915f199060031b1c191617905560ff90565b015192505f80620006f8565b919083601f198116875f52845f20945f905b888383106200076457505050106200074b575b505050811b01905560ff90565b01515f1960f88460031b161c191690555f80806200073e565b8587015188559096019594850194879350908101906200072b565b855f5284601f845f209201871c820191601f8601881c015b828110620007a7575050620006db565b5f815501859062000797565b90607f1690620006c8565b8051602090818110156200084a5750601f825111620007eb57808251920151908083106200063557501790565b90604051809263305a27a960e01b82528060048301528251908160248401525f935b82851062000830575050604492505f838284010152601f80199101168101030190fd5b84810182015186860160440152938101938593506200080d565b906001600160401b038211620002b657600654926001938481811c9116801562000960575b83821014620003a357601f811162000929575b5081601f8411600114620008c157509282939183925f94620008b5575b50501b915f199060031b1c19161760065560ff90565b015192505f806200089f565b919083601f19811660065f52845f20945f905b888383106200090e5750505010620008f5575b505050811b0160065560ff90565b01515f1960f88460031b161c191690555f8080620008e7565b858701518855909601959485019487935090810190620008d4565b60065f5284601f845f20920160051c820191601f860160051c015b8281106200095457505062000882565b5f815501859062000944565b90607f16906200086f56fe60806040526004361015610011575f80fd5b5f3560e01c806301ffc9a71461022457806306fdde031461021f578063095ea7b31461021a57806318160ddd1461021557806323b872dd14610210578063248a9ca31461020b5780632f2ff15d14610206578063313ce5671461020157806332cb6b0c146101fc5780633644e515146101f757806336568abe146101f25780633a46b1a8146101ed57806340c10f19146101e85780634bf5d7e9146101e3578063587cde1e146101de5780635c19a95c146101d95780636fcfff45146101d457806370a08231146101cf5780637ecebe00146101ca57806384b0196e146101c55780638e539e8c146101c057806391d14854146101bb57806391ddadf4146101b657806395d89b41146101b15780639ab24eb0146101ac578063a217fddf146101a7578063a9059cbb146101a2578063c3cda5201461019d578063d505accf14610198578063d539139314610193578063d547741f1461018e578063dd62ed3e146101895763f1127ed814610184575f80fd5b61103e565b610fe7565b610faa565b610f70565b610e3d565b610d74565b610d2e565b610d14565b610ccd565b610c28565b610c06565b610bb8565b610aaf565b6109b9565b610981565b610949565b6108e3565b6108c1565b610888565b61083a565b610711565b6105ea565b6105a3565b610581565b61055c565b610541565b610502565b6104d5565b61042a565b61040d565b6103dc565b6102d0565b3461027a57602036600319011261027a5760043563ffffffff60e01b811680910361027a57602090637965db0b60e01b8114908115610269575b506040519015158152f35b6301ffc9a760e01b1490505f61025e565b5f80fd5b91908251928382525f5b8481106102a8575050825f602080949584010152601f8019910116010190565b602081830181015184830182015201610288565b9060206102cd92818152019061027e565b90565b3461027a575f36600319011261027a576040515f6003546102f0816110d2565b80845290602090600190818116908115610386575060011461032d575b6103298561031d81870382611193565b604051918291826102bc565b0390f35b60035f90815293507fc2575a0e9e593c00f959f8c92f12db2869c3395a3b0502d05e2516446f71f85b5b8385106103735750505050810160200161031d8261032961030d565b8054868601840152938201938101610357565b8695506103299693506020925061031d94915060ff191682840152151560051b820101929361030d565b600435906001600160a01b038216820361027a57565b602435906001600160a01b038216820361027a57565b3461027a57604036600319011261027a576104026103f86103b0565b602435903361178b565b602060405160018152f35b3461027a575f36600319011261027a576020600254604051908152f35b3461027a57606036600319011261027a576104436103b0565b61044b6103c6565b6001600160a01b0382165f90815260016020908152604080832033845290915290206044359190549260018401610493575b61048793506111fe565b60405160018152602090f35b8284106104af576104aa8361048795033383611839565b61047d565b604051637dc7a0d960e11b81523360048201526024810185905260448101849052606490fd5b3461027a57602036600319011261027a576004355f52600b6020526020600160405f200154604051908152f35b3461027a57604036600319011261027a5761053f6004356105216103c6565b90805f52600b60205261053a600160405f20015461136c565b61138c565b005b3461027a575f36600319011261027a57602060405160128152f35b3461027a575f36600319011261027a5760206040516a52b7d2dcc80cd2e40000008152f35b3461027a575f36600319011261027a57602061059b61141c565b604051908152f35b3461027a57604036600319011261027a576105bc6103c6565b336001600160a01b038216036105d85761053f90600435611536565b60405163334bd91960e11b8152600490fd5b3461027a57604036600319011261027a576106036103b0565b6024359065ffffffffffff90814216808410156106e857506001600160a01b03165f9081526009602052604090209161063b906115be565b8254905f90826005811161069a575b50610656935084611a33565b908161067d5750506103295f5b6040516001600160d01b0390911681529081906020820190565b610689610329926111c9565b905f5260205f20015460301c610663565b90926106a58261188f565b82039182116106e35761065694865f52808360205f20015416908516105f146106d15750915b5f61064a565b9291506106dd906115f0565b906106cb565b6111b5565b604051637669fc0f60e11b81526004810185905265ffffffffffff919091166024820152604490fd5b3461027a57604036600319011261027a5761072a6103b0565b6024356107356112f1565b6002546a52b7d2dcc80cd2e40000008181039081116106e35780831161081957506001600160a01b0383169081156108015761077483610779926115fe565b600255565b6001600160a01b0383165f90815260208181526040808320805486019055518481527fddf252ad1be2c89b69c2b068fc378daa952ba7f163c4a11628f55a4df523b3ef9190a3600254916001600160d01b0383116107db5761053f9250611ffe565b604051630e58ae9360e11b8152600481018490526001600160d01b036024820152604490fd5b60405163ec442f0560e01b81525f6004820152602490fd5b604051634b344b1160e01b8152600481018490526024810191909152604490fd5b3461027a575f36600319011261027a576103296040516108598161111e565b600e81526d06d6f64653d74696d657374616d760941b602082015260405191829160208352602083019061027e565b3461027a57602036600319011261027a5760206001600160a01b03806108ac6103b0565b165f526008825260405f205416604051908152f35b3461027a57602036600319011261027a5761053f6108dd6103b0565b3361160b565b3461027a57602036600319011261027a576001600160a01b036109046103b0565b165f52600960205260405f205463ffffffff9081811161092a5760209160405191168152f35b604490604051906306dfcc6560e41b8252602060048301526024820152fd5b3461027a57602036600319011261027a57602061059b6109676103b0565b6001600160a01b03165f9081526020819052604090205490565b3461027a57602036600319011261027a576001600160a01b036109a26103b0565b165f526007602052602060405f2054604051908152f35b3461027a575f36600319011261027a57610a526109f57f0000000000000000000000000000000000000000000000000000000000000000611be1565b610a1e7f0000000000000000000000000000000000000000000000000000000000000000611cdf565b60405190610a2b8261113f565b5f8252610a60602091604051958695600f60f81b875260e0602088015260e087019061027e565b90858203604087015261027e565b4660608501523060808501525f60a085015283810360c0850152602080845192838152019301915f5b828110610a9857505050500390f35b835185528695509381019392810192600101610a89565b3461027a57602036600319011261027a5765ffffffffffff60043542821680821015610b915750610adf906115be565b600a54905f908260058111610b3d575b50610afa93506119cd565b80610b16575060205f5b6040516001600160d01b039091168152f35b610b216020916111c9565b600a5f525f80516020612398833981519152015460301c610b04565b9092610b488261188f565b82039182116106e357610afa94600a5f5280835f80516020612398833981519152015416908516105f14610b7f5750915b5f610aef565b929150610b8b906115f0565b90610b79565b604051637669fc0f60e11b8152600481019290925265ffffffffffff166024820152604490fd5b3461027a57604036600319011261027a57602060ff610bfa610bd86103c6565b6004355f52600b845260405f209060018060a01b03165f5260205260405f2090565b54166040519015158152f35b3461027a575f36600319011261027a57602060405165ffffffffffff42168152f35b3461027a575f36600319011261027a576040515f600454610c48816110d2565b808452906020906001908181169081156103865750600114610c74576103298561031d81870382611193565b60045f90815293507f8a35acfbc15ff81a39ae7d344fd709f28e8600b4aa8c65c6b64bfe7fe36bd19b5b838510610cba5750505050810160200161031d8261032961030d565b8054868601840152938201938101610c9e565b3461027a57602036600319011261027a576001600160a01b03610cee6103b0565b165f526009602052602060018060d01b03610d0b60405f206116d0565b16604051908152f35b3461027a575f36600319011261027a5760206040515f8152f35b3461027a57604036600319011261027a57610402610d4a6103b0565b60243590336111fe565b6064359060ff8216820361027a57565b6084359060ff8216820361027a57565b3461027a5760c036600319011261027a57610d8d6103b0565b60443590602435610d9c610d54565b834211610e2457610e1861053f94610e1f926040519060208201927fe48329057bfd03d55e49b547132e39cffd9c1820ad7b9d4c5307691425d15adf845260018060a01b0388166040840152866060840152608083015260808252610e008261115b565b610e1360a43593608435935190206116f8565b61171e565b9182611736565b61160b565b604051632341d78760e11b815260048101859052602490fd5b3461027a5760e036600319011261027a57610e566103b0565b610e5e6103c6565b60443590606435610e6d610d64565b814211610f57576001600160a01b038581165f8181526007602090815260409182902080546001810190915582517f6e71edae12b1b97f4d1f60370fef10105fa2faae0126114a169c64845d6126c99281019283529283019390935292861660608201526080810187905260a081019190915260c080820194909452928352610f10929091610efd60e083611193565b610e1360c4359360a435935190206116f8565b6001600160a01b0384811690821603610f2d575061053f9261178b565b6040516325c0072360e11b81526001600160a01b0391821660048201529084166024820152604490fd5b60405163313c898160e11b815260048101839052602490fd5b3461027a575f36600319011261027a5760206040517f9f2df0fed2c77648de5860a4cc508cd0818c85b8b8a1ab4ceeef8d981c8956a68152f35b3461027a57604036600319011261027a5761053f600435610fc96103c6565b90805f52600b602052610fe2600160405f20015461136c565b611536565b3461027a57604036600319011261027a5760206110356110056103b0565b61100d6103c6565b6001600160a01b039182165f9081526001855260408082209290931681526020919091522090565b54604051908152f35b3461027a57604036600319011261027a576110576103b0565b60243563ffffffff8116810361027a576110a66110ac916040936110796111e6565b506110826111e6565b506001600160a01b03165f90815260096020528490206110a06111e6565b50611ed4565b50611efd565b8151815165ffffffffffff1681526020918201516001600160d01b031691810191909152f35b90600182811c92168015611100575b60208310146110ec57565b634e487b7160e01b5f52602260045260245ffd5b91607f16916110e1565b634e487b7160e01b5f52604160045260245ffd5b6040810190811067ffffffffffffffff82111761113a57604052565b61110a565b6020810190811067ffffffffffffffff82111761113a57604052565b60a0810190811067ffffffffffffffff82111761113a57604052565b60c0810190811067ffffffffffffffff82111761113a57604052565b90601f8019910116810190811067ffffffffffffffff82111761113a57604052565b634e487b7160e01b5f52601160045260245ffd5b5f198101919082116106e357565b604051906111e48261111e565b565b604051906111f38261111e565b5f6020838281520152565b6001600160a01b03808216949392919085156112d95782168015610801576001600160a01b0382165f90815260208190526040902054958487106112aa57846111e496970361125c8460018060a01b03165f525f60205260405f2090565b556001600160a01b0384165f908152602081815260409182902080548801905590518681527fddf252ad1be2c89b69c2b068fc378daa952ba7f163c4a11628f55a4df523b3ef9190a361207b565b60405163391434e360e21b81526001600160a01b03841660048201526024810188905260448101869052606490fd5b604051634b637e8f60e11b81525f6004820152602490fd5b335f9081527ff70e363b3d7895af770c4a138460777d52eebd3cb9962ccc6b58721f6127bbc8602052604090207f9f2df0fed2c77648de5860a4cc508cd0818c85b8b8a1ab4ceeef8d981c8956a69060ff905b54161561134e5750565b6044906040519063e2517d3f60e01b82523360048301526024820152fd5b5f818152600b60209081526040808320338452909152902060ff90611344565b5f818152600b602090815260408083206001600160a01b038616845290915290205460ff16611416575f818152600b602090815260408083206001600160a01b03861684529091529020805460ff1916600117905533916001600160a01b0316907f2f8788117e7eff1d82e926ec794901d17c78024a50270940304540a733656f0d5f80a4600190565b50505f90565b307f00000000000000000000000000000000000000000000000000000000000000006001600160a01b0316148061150d575b15611477577f000000000000000000000000000000000000000000000000000000000000000090565b60405160208101907f8b73c3c69bb8fe3d512ecc4cf759cc79239f7b179b0ffacaa9a75d522b39400f82527f000000000000000000000000000000000000000000000000000000000000000060408201527f000000000000000000000000000000000000000000000000000000000000000060608201524660808201523060a082015260a0815261150781611177565b51902090565b507f0000000000000000000000000000000000000000000000000000000000000000461461144e565b5f818152600b602090815260408083206001600160a01b038616845290915290205460ff1615611416575f818152600b602090815260408083206001600160a01b03861684529091529020805460ff1916905533916001600160a01b0316907ff6391f5c32d9c69d2a47ea670b442974b53935d1edc7fd64eb21e047a839171b5f80a4600190565b65ffffffffffff908181116115d1571690565b604490604051906306dfcc6560e41b8252603060048301526024820152fd5b90600182018092116106e357565b919082018092116106e357565b6001600160a01b038181165f81815260086020526040812080548685166001600160a01b0319821681179092556111e4969416946116869390928691907f3134e8a2e6d97e929a7e54011ea5485d7d196dd5f0ba4d4ef95803e8e3fc257f9080a46001600160a01b03165f9081526020819052604090205490565b91611a92565b600a548061169957505f90565b805f198101116106e357600a5f527fc65a7bb8d6351c1cf70c95a316cc6a92839c986682d98bc35f958f4883f9d2a7015460301c90565b8054806116dd5750505f90565b5f199181838101116106e3575f5260205f2001015460301c90565b60429061170361141c565b906040519161190160f01b8352600283015260228201522090565b916102cd939161172d93611d9c565b90929192611e47565b6001600160a01b0381165f9081526007602052604090208054600181019091559091819003611763575050565b6040516301d4b62360e61b81526001600160a01b039092166004830152602482015260449150fd5b6001600160a01b03808216929190831561182157821693841561180957806117ff7f8c5be1e5ebec7d5bd14f71427d1e84f3dd0314c0f7b2291e5b200ac8c7c3b925946117ea60209560018060a01b03165f52600160205260405f2090565b9060018060a01b03165f5260205260405f2090565b55604051908152a3565b604051634a1406b160e11b81525f6004820152602490fd5b60405163e602df0560e01b81525f6004820152602490fd5b906001600160a01b038083161561182157811615611809576117ea61186e9260018060a01b03165f52600160205260405f2090565b55565b811561187b570490565b634e487b7160e01b5f52601260045260245ffd5b80156119c8578061196161195a61195061194661193c61193261192861191e60016102cd9a5f908b60801c806119bc575b508060401c806119af575b508060201c806119a2575b508060101c80611995575b508060081c80611988575b508060041c8061197b575b508060021c8061196e575b50821c611967575b811c1b611917818b611871565b0160011c90565b611917818a611871565b6119178189611871565b6119178188611871565b6119178187611871565b6119178186611871565b6119178185611871565b8092611871565b90611f21565b810161190a565b600291509101905f611902565b600491509101905f6118f7565b600891509101905f6118ec565b601091509101905f6118e1565b602091509101905f6118d6565b604091509101905f6118cb565b9150506080905f6118c0565b505f90565b905b8281106119db57505090565b90918082169080831860011c82018092116106e357600a5f5265ffffffffffff80835f80516020612398833981519152015416908516105f14611a215750915b906119cf565b929150611a2d906115f0565b90611a1b565b91905b838210611a435750505090565b9091928083169080841860011c82018092116106e357845f5265ffffffffffff808360205f20015416908416105f14611a805750925b9190611a36565b939250611a8c906115f0565b91611a79565b6001600160a01b03808316939291908116908185141580611bd8575b611aba575b5050505050565b81611b3e575b505082611acf575b8080611ab3565b6001600160a01b03165f9081526009602052604090207fdec2bacdd2f05b59de34da9b523dff8be42e5e38e818c82fdb0bae774387a72491611b1b91611b159091611f33565b90611f66565b604080516001600160d01b039384168152919092166020820152a25f8080611ac8565b6001600160a01b03165f908152600960205260409020611b5d84611f33565b6001600160d01b03908180611b71856116d0565b16911690038181116106e357611bb5611bce917fdec2bacdd2f05b59de34da9b523dff8be42e5e38e818c82fdb0bae774387a7249465ffffffffffff4216906122b9565b6040805192851683529316602082015291829190820190565b0390a25f80611ac0565b50831515611aae565b60ff8114611c1f5760ff811690601f8211611c0d5760405191611c038361111e565b8252602082015290565b604051632cd44ac360e21b8152600490fd5b50604051600554815f611c31836110d2565b80835292602090600190818116908115611cbb5750600114611c5c575b50506102cd92500382611193565b91509260055f527f036b6384b5eca791c62761152d0c79bb0604c104a5fb6f4eb0703f3154bb3db0935f925b828410611ca357506102cd9450505081016020015f80611c4e565b85548785018301529485019486945092810192611c88565b915050602092506102cd94915060ff191682840152151560051b8201015f80611c4e565b60ff8114611d015760ff811690601f8211611c0d5760405191611c038361111e565b50604051600654815f611d13836110d2565b80835292602090600190818116908115611cbb5750600114611d3d5750506102cd92500382611193565b91509260065f527ff652222313e28459528d920b65115c16c04f3efc82aaedc97be59f3f377c0d3f935f925b828410611d8457506102cd9450505081016020015f80611c4e565b85548785018301529485019486945092810192611d69565b91907f7fffffffffffffffffffffffffffffff5d576e7357a4501ddfe92f46681b20a08411611e1e579160209360809260ff5f9560405194855216868401526040830152606082015282805260015afa15611e13575f516001600160a01b03811615611e0957905f905f90565b505f906001905f90565b6040513d5f823e3d90fd5b5050505f9160039190565b60041115611e3357565b634e487b7160e01b5f52602160045260245ffd5b611e5081611e29565b80611e59575050565b611e6281611e29565b60018103611e7c5760405163f645eedf60e01b8152600490fd5b611e8581611e29565b60028103611ea65760405163fce698f760e01b815260048101839052602490fd5b80611eb2600392611e29565b14611eba5750565b6040516335e2f38360e21b81526004810191909152602490fd5b8054821015611ee9575f5260205f2001905f90565b634e487b7160e01b5f52603260045260245ffd5b90604051611f0a8161111e565b915465ffffffffffff8116835260301c6020830152565b9080821015611f2e575090565b905090565b6001600160d01b0390818111611f47571690565b604490604051906306dfcc6560e41b825260d060048301526024820152fd5b906001600160d01b03908180611f7b856116d0565b169116019081116106e357611f999165ffffffffffff4216906122b9565b9091565b6001600160d01b03908180611fb061168c565b169116019081116106e357611f999065ffffffffffff4216612194565b6001600160d01b03908180611fe061168c565b16911690039081116106e357611f999065ffffffffffff4216612194565b906111e49161201461200f83611f33565b611f9d565b50506001600160a01b03908116908115612063575b60086020527f5eff886ea0ce6ca488a3d6e336d6c0f75f46d19b42c06ce5ee98e42c96d256c7545f92835260409092205481169116611a92565b61207461206f84611f33565b611fcd565b5050612029565b6111e492916001600160a01b039182169190819083156120cf575b169182156120bc575b5f5260086020528060405f205416915f5260405f20541690611a92565b6120c861206f85611f33565b505061209f565b6120db61200f86611f33565b5050612096565b600a5490600160401b82101561113a576001820180600a55821015611ee957600a5f52805160209091015160301b65ffffffffffff191665ffffffffffff91909116175f8051602061239883398151915290910155565b8054600160401b81101561113a5761215691600182018155611ed4565b61218157815160209092015160301b65ffffffffffff191665ffffffffffff92909216919091179055565b634e487b7160e01b5f525f60045260245ffd5b600a54919291908115612290576121cb6121c66121b0846111c9565b600a5f525f805160206123988339815191520190565b611efd565b805165ffffffffffff838116949116841061227e5785602093612242956122066121fb865165ffffffffffff1690565b65ffffffffffff1690565b03612246575061221b6121b0612234936111c9565b9065ffffffffffff82549181199060301b169116179055565b01516001600160d01b031690565b9190565b905061227991506122666122586111d7565b65ffffffffffff9092168252565b6001600160d01b038716818501526120e2565b612234565b604051632520601d60e01b8152600490fd5b6122b491506122a06122586111d7565b6001600160d01b03841660208201526120e2565b5f9190565b805492939291908215612373576122e06121c66122d5856111c9565b835f5260205f200190565b906122f1825165ffffffffffff1690565b65ffffffffffff8481169116811061227e5761224294602094889261231f6121fb875165ffffffffffff1690565b0361234057506122349261233561221b926111c9565b905f5260205f200190565b915050612279916123606123526111d7565b65ffffffffffff9093168352565b6001600160d01b03881682860152612139565b6122b492506123836123526111d7565b6001600160d01b038516602083015261213956fec65a7bb8d6351c1cf70c95a316cc6a92839c986682d98bc35f958f4883f9d2a8a2646970667358221220d22e0f2ed22c6932f55a1f9ae438a35bc7bc576b5b75cb96aaae3e32aad555e864736f6c634300081800332f8788117e7eff1d82e926ec794901d17c78024a50270940304540a733656f0ddf7de25b7f1fd6d0b5205f0e18f1f35bd7b8d84cce336588d184533ce43a6f76","linkReferences":{}},"methodIdentifiers":{"CLOCK_MODE()":"4bf5d7e9","DEFAULT_ADMIN_ROLE()":"a217fddf","DOMAIN_SEPARATOR()":"3644e515","MAX_SUPPLY()":"32cb6b0c","MINTER_ROLE()":"d5391393","allowance(address,address)":"dd62ed3e","approve(address,uint256)":"095ea7b3","balanceOf(address)":"70a08231","checkpoints(address,uint32)":"f1127ed8","clock()":"91ddadf4","decimals()":"313ce567","delegate(address)":"5c19a95c","delegateBySig(address,uint256,uint256,uint8,bytes32,bytes32)":"c3cda520","delegates(address)":"587cde1e","eip712Domain()":"84b0196e","getPastTotalSupply(uint256)":"8e539e8c","getPastVotes(address,uint256)":"3a46b1a8","getRoleAdmin(bytes32)":"248a9ca3","getVotes(address)":"9ab24eb0","grantRole(bytes32,address)":"2f2ff15d","hasRole(bytes32,address)":"91d14854","mint(address,uint256)":"40c10f19","name()":"06fdde03","nonces(address)":"7ecebe00","numCheckpoints(address)":"6fcfff45","permit(address,address,uint256,uint256,uint8,bytes32,bytes32)":"d505accf","renounceRole(bytes32,address)":"36568abe","revokeRole(bytes32,address)":"d547741f","supportsInterface(bytes4)":"01ffc9a7","symbol()":"95d89b41","totalSupply()":"18160ddd","transfer(address,uint256)":"a9059cbb","transferFrom(address,address,uint256)":"23b872dd"},"id":79}