{"abi":[{"type":"constructor","inputs":[{"name":"usdc","type":"address","internalType":"address"},{"name":"admin","type":"address","internalType":"address"}],"stateMutability":"nonpayable"},{"type":"function","name":"DEFAULT_ADMIN_ROLE","inputs":[],"outputs":[{"name":"","type":"bytes32","internalType":"bytes32"}],"stateMutability":"view"},{"type":"function","name":"DEPOSITOR_ROLE","inputs":[],"outputs":[{"name":"","type":"bytes32","internalType":"bytes32"}],"stateMutability":"view"},{"type":"function","name":"allowance","inputs":[{"name":"owner","type":"address","internalType":"address"},{"name":"spender","type":"address","internalType":"address"}],"outputs":[{"name":"","type":"uint256","internalType":"uint256"}],"stateMutability":"view"},{"type":"function","name":"approve","inputs":[{"name":"spender","type":"address","internalType":"address"},{"name":"value","type":"uint256","internalType":"uint256"}],"outputs":[{"name":"","type":"bool","internalType":"bool"}],"stateMutability":"nonpayable"},{"type":"function","name":"asset","inputs":[],"outputs":[{"name":"","type":"address","internalType":"address"}],"stateMutability":"view"},{"type":"function","name":"balanceOf","inputs":[{"name":"account","type":"address","internalType":"address"}],"outputs":[{"name":"","type":"uint256","internalType":"uint256"}],"stateMutability":"view"},{"type":"function","name":"convertToAssets","inputs":[{"name":"shares","type":"uint256","internalType":"uint256"}],"outputs":[{"name":"assets","type":"uint256","internalType":"uint256"}],"stateMutability":"view"},{"type":"function","name":"convertToShares","inputs":[{"name":"assets","type":"uint256","internalType":"uint256"}],"outputs":[{"name":"shares","type":"uint256","internalType":"uint256"}],"stateMutability":"view"},{"type":"function","name":"decimals","inputs":[],"outputs":[{"name":"","type":"uint8","internalType":"uint8"}],"stateMutability":"view"},{"type":"function","name":"deposit","inputs":[{"name":"assets","type":"uint256","internalType":"uint256"},{"name":"receiver","type":"address","internalType":"address"}],"outputs":[{"name":"","type":"uint256","internalType":"uint256"}],"stateMutability":"nonpayable"},{"type":"function","name":"depositFees","inputs":[{"name":"amount","type":"uint256","internalType":"uint256"}],"outputs":[],"stateMutability":"nonpayable"},{"type":"function","name":"getRoleAdmin","inputs":[{"name":"role","type":"bytes32","internalType":"bytes32"}],"outputs":[{"name":"","type":"bytes32","internalType":"bytes32"}],"stateMutability":"view"},{"type":"function","name":"grantRole","inputs":[{"name":"role","type":"bytes32","internalType":"bytes32"},{"name":"account","type":"address","internalType":"address"}],"outputs":[],"stateMutability":"nonpayable"},{"type":"function","name":"hasRole","inputs":[{"name":"role","type":"bytes32","internalType":"bytes32"},{"name":"account","type":"address","internalType":"address"}],"outputs":[{"name":"","type":"bool","internalType":"bool"}],"stateMutability":"view"},{"type":"function","name":"maxDeposit","inputs":[{"name":"","type":"address","internalType":"address"}],"outputs":[{"name":"","type":"uint256","internalType":"uint256"}],"stateMutability":"view"},{"type":"function","name":"maxMint","inputs":[{"name":"","type":"address","internalType":"address"}],"outputs":[{"name":"","type":"uint256","internalType":"uint256"}],"stateMutability":"view"},{"type":"function","name":"maxRedeem","inputs":[{"name":"owner","type":"address","internalType":"address"}],"outputs":[{"name":"","type":"uint256","internalType":"uint256"}],"stateMutability":"view"},{"type":"function","name":"maxWithdraw","inputs":[{"name":"owner","type":"address","internalType":"address"}],"outputs":[{"name":"","type":"uint256","internalType":"uint256"}],"stateMutability":"view"},{"type":"function","name":"mint","inputs":[{"name":"shares","type":"uint256","internalType":"uint256"},{"name":"receiver","type":"address","internalType":"address"}],"outputs":[{"name":"","type":"uint256","internalType":"uint256"}],"stateMutability":"nonpayable"},{"type":"function","name":"name","inputs":[],"outputs":[{"name":"","type":"string","internalType":"string"}],"stateMutability":"view"},{"type":"function","name":"previewDeposit","inputs":[{"name":"assets","type":"uint256","internalType":"uint256"}],"outputs":[{"name":"shares","type":"uint256","internalType":"uint256"}],"stateMutability":"view"},{"type":"function","name":"previewMint","inputs":[{"name":"shares","type":"uint256","internalType":"uint256"}],"outputs":[{"name":"assets","type":"uint256","internalType":"uint256"}],"stateMutability":"view"},{"type":"function","name":"previewRedeem","inputs":[{"name":"shares","type":"uint256","internalType":"uint256"}],"outputs":[{"name":"assets","type":"uint256","internalType":"uint256"}],"stateMutability":"view"},{"type":"function","name":"previewWithdraw","inputs":[{"name":"assets","type":"uint256","internalType":"uint256"}],"outputs":[{"name":"shares","type":"uint256","internalType":"uint256"}],"stateMutability":"view"},{"type":"function","name":"redeem","inputs":[{"name":"shares","type":"uint256","internalType":"uint256"},{"name":"receiver","type":"address","internalType":"address"},{"name":"owner","type":"address","internalType":"address"}],"outputs":[{"name":"","type":"uint256","internalType":"uint256"}],"stateMutability":"nonpayable"},{"type":"function","name":"renounceRole","inputs":[{"name":"role","type":"bytes32","internalType":"bytes32"},{"name":"callerConfirmation","type":"address","internalType":"address"}],"outputs":[],"stateMutability":"nonpayable"},{"type":"function","name":"revokeRole","inputs":[{"name":"role","type":"bytes32","internalType":"bytes32"},{"name":"account","type":"address","internalType":"address"}],"outputs":[],"stateMutability":"nonpayable"},{"type":"function","name":"supportsInterface","inputs":[{"name":"interfaceId","type":"bytes4","internalType":"bytes4"}],"outputs":[{"name":"","type":"bool","internalType":"bool"}],"stateMutability":"view"},{"type":"function","name":"symbol","inputs":[],"outputs":[{"name":"","type":"string","internalType":"string"}],"stateMutability":"view"},{"type":"function","name":"totalAssets","inputs":[],"outputs":[{"name":"","type":"uint256","internalType":"uint256"}],"stateMutability":"view"},{"type":"function","name":"totalSupply","inputs":[],"outputs":[{"name":"","type":"uint256","internalType":"uint256"}],"stateMutability":"view"},{"type":"function","name":"transfer","inputs":[{"name":"to","type":"address","internalType":"address"},{"name":"value","type":"uint256","internalType":"uint256"}],"outputs":[{"name":"","type":"bool","internalType":"bool"}],"stateMutability":"nonpayable"},{"type":"function","name":"transferFrom","inputs":[{"name":"from","type":"address","internalType":"address"},{"name":"to","type":"address","internalType":"address"},{"name":"value","type":"uint256","internalType":"uint256"}],"outputs":[{"name":"","type":"bool","internalType":"bool"}],"stateMutability":"nonpayable"},{"type":"function","name":"withdraw","inputs":[{"name":"assets","type":"uint256","internalType":"uint256"},{"name":"receiver","type":"address","internalType":"address"},{"name":"owner","type":"address","internalType":"address"}],"outputs":[{"name":"","type":"uint256","internalType":"uint256"}],"stateMutability":"nonpayable"},{"type":"event","name":"Approval","inputs":[{"name":"owner","type":"address","indexed":true,"internalType":"address"},{"name":"spender","type":"address","indexed":true,"internalType":"address"},{"name":"value","type":"uint256","indexed":false,"internalType":"uint256"}],"anonymous":false},{"type":"event","name":"Deposit","inputs":[{"name":"sender","type":"address","indexed":true,"internalType":"address"},{"name":"owner","type":"address","indexed":true,"internalType":"address"},{"name":"assets","type":"uint256","indexed":false,"internalType":"uint256"},{"name":"shares","type":"uint256","indexed":false,"internalType":"uint256"}],"anonymous":false},{"type":"event","name":"FeesDeposited","inputs":[{"name":"depositor","type":"address","indexed":true,"internalType":"address"},{"name":"amount","type":"uint256","indexed":false,"internalType":"uint256"}],"anonymous":false},{"type":"event","name":"RoleAdminChanged","inputs":[{"name":"role","type":"bytes32","indexed":true,"internalType":"bytes32"},{"name":"previousAdminRole","type":"bytes32","indexed":true,"internalType":"bytes32"},{"name":"newAdminRole","type":"bytes32","indexed":true,"internalType":"bytes32"}],"anonymous":false},{"type":"event","name":"RoleGranted","inputs":[{"name":"role","type":"bytes32","indexed":true,"internalType":"bytes32"},{"name":"account","type":"address","indexed":true,"internalType":"address"},{"name":"sender","type":"address","indexed":true,"internalType":"address"}],"anonymous":false},{"type":"event","name":"RoleRevoked","inputs":[{"name":"role","type":"bytes32","indexed":true,"internalType":"bytes32"},{"name":"account","type":"address","indexed":true,"internalType":"address"},{"name":"sender","type":"address","indexed":true,"internalType":"address"}],"anonymous":false},{"type":"event","name":"Transfer","inputs":[{"name":"from","type":"address","indexed":true,"internalType":"address"},{"name":"to","type":"address","indexed":true,"internalType":"address"},{"name":"value","type":"uint256","indexed":false,"internalType":"uint256"}],"anonymous":false},{"type":"event","name":"Withdraw","inputs":[{"name":"sender","type":"address","indexed":true,"internalType":"address"},{"name":"receiver","type":"address","indexed":true,"internalType":"address"},{"name":"owner","type":"address","indexed":true,"internalType":"address"},{"name":"assets","type":"uint256","indexed":false,"internalType":"uint256"},{"name":"shares","type":"uint256","indexed":false,"internalType":"uint256"}],"anonymous":false},{"type":"error","name":"AccessControlBadConfirmation","inputs":[]},{"type":"error","name":"AccessControlUnauthorizedAccount","inputs":[{"name":"account","type":"address","internalType":"address"},{"name":"neededRole","type":"bytes32","internalType":"bytes32"}]},{"type":"error","name":"AddressEmptyCode","inputs":[{"name":"target","type":"address","internalType":"address"}]},{"type":"error","name":"AddressInsufficientBalance","inputs":[{"name":"account","type":"address","internalType":"address"}]},{"type":"error","name":"ERC20InsufficientAllowance","inputs":[{"name":"spender","type":"address","internalType":"address"},{"name":"allowance","type":"uint256","internalType":"uint256"},{"name":"needed","type":"uint256","internalType":"uint256"}]},{"type":"error","name":"ERC20InsufficientBalance","inputs":[{"name":"sender","type":"address","internalType":"address"},{"name":"balance","type":"uint256","internalType":"uint256"},{"name":"needed","type":"uint256","internalType":"uint256"}]},{"type":"error","name":"ERC20InvalidApprover","inputs":[{"name":"approver","type":"address","internalType":"address"}]},{"type":"error","name":"ERC20InvalidReceiver","inputs":[{"name":"receiver","type":"address","internalType":"address"}]},{"type":"error","name":"ERC20InvalidSender","inputs":[{"name":"sender","type":"address","internalType":"address"}]},{"type":"error","name":"ERC20InvalidSpender","inputs":[{"name":"spender","type":"address","internalType":"address"}]},{"type":"error","name":"ERC4626ExceededMaxDeposit","inputs":[{"name":"receiver","type":"address","internalType":"address"},{"name":"assets","type":"uint256","internalType":"uint256"},{"name":"max","type":"uint256","internalType":"uint256"}]},{"type":"error","name":"ERC4626ExceededMaxMint","inputs":[{"name":"receiver","type":"address","internalType":"address"},{"name":"shares","type":"uint256","internalType":"uint256"},{"name":"max","type":"uint256","internalType":"uint256"}]},{"type":"error","name":"ERC4626ExceededMaxRedeem","inputs":[{"name":"owner","type":"address","internalType":"address"},{"name":"shares","type":"uint256","internalType":"uint256"},{"name":"max","type":"uint256","internalType":"uint256"}]},{"type":"error","name":"ERC4626ExceededMaxWithdraw","inputs":[{"name":"owner","type":"address","internalType":"address"},{"name":"assets","type":"uint256","internalType":"uint256"},{"name":"max","type":"uint256","internalType":"uint256"}]},{"type":"error","name":"FailedInnerCall","inputs":[]},{"type":"error","name":"MathOverflowedMulDiv","inputs":[]},{"type":"error","name":"ReentrancyGuardReentrantCall","inputs":[]},{"type":"error","name":"SafeERC20FailedOperation","inputs":[{"name":"token","type":"address","internalType":"address"}]}],"bytecode":{"object":"0x60c08060405234620003a05760408162001a318038038091620000238285620003c0565b833981010312620003a0576200003981620003e4565b620000486020809301620003e4565b60405190916001600160a01b03166200006182620003a4565b601082526f466565205661756c742053686172657360801b84830152604051936200008c85620003a4565b60038086526246565360e81b8287015283516001600160401b039190828111620002ab578154906001968783811c9316801562000395575b8684101462000381578190601f938481116200032e575b508690848311600114620002cb575f92620002bf575b50505f1982851b1c191690871b1782555b8751928311620002ab5760049384548781811c91168015620002a0575b828210146200028d5782811162000245575b5080918411600114620001d6575090829162000182985f93620001ca575b505082861b925f19911b1c19161790555b6200016b816200047b565b9015620001c1575b60a052608052600655620003f9565b506040516114d490816200053d82396080518181816102260152818161076e01528181610c300152818161104c01526111e3015260a051816107f60152f35b50601262000173565b015191505f806200014f565b9297601f198916855f52845f20945f905b8282106200022d57505091899391620001829a8996941062000213575b50505050811b01905562000160565b01519060f8845f19921b161c191690555f80808062000204565b808a86988294978701518155019701940190620001e7565b855f52815f208380870160051c82019284881062000283575b0160051c019088905b8281106200027757505062000131565b5f815501889062000267565b925081926200025e565b602286634e487b7160e01b5f525260245ffd5b90607f16906200011f565b634e487b7160e01b5f52604160045260245ffd5b015190505f80620000f1565b90899350601f19831691865f52885f20925f5b8a828210620003175750508411620002ff575b505050811b01825562000102565b01515f1983871b60f8161c191690555f8080620002f1565b8385015186558d97909501949384019301620002de565b909150845f52865f208480850160051c82019289861062000377575b918b91869594930160051c01915b82811062000368575050620000db565b5f81558594508b910162000358565b925081926200034a565b634e487b7160e01b5f52602260045260245ffd5b92607f1692620000c4565b5f80fd5b604081019081106001600160401b03821117620002ab57604052565b601f909101601f19168101906001600160401b03821190821017620002ab57604052565b51906001600160a01b0382168203620003a057565b6001600160a01b03165f8181525f8051602062001a11833981519152602052604090205460ff1662000476575f8181525f8051602062001a1183398151915260205260408120805460ff191660011790553391907f2f8788117e7eff1d82e926ec794901d17c78024a50270940304540a733656f0d8180a4600190565b505f90565b5f80604051926020938481019063313ce56760e01b825260048152620004a181620003a4565b51916001600160a01b03165afa3d1562000533573d906001600160401b038211620002ab5760405191620004df601f8201601f1916850184620003c0565b82523d5f8484013e5b8062000527575b620004fd575b50505f905f90565b8181805181010312620003a057015160ff8111156200051d5780620004f5565b9060ff6001921690565b508181511015620004ef565b606090620004e856fe60406080815260049081361015610014575f80fd5b5f3560e01c806301e1d11414610af657806301ffc9a714610aa257806306fdde03146109ae57806307a2d13a1461073c578063095ea7b3146109065780630a28a477146108e857806318160ddd146108ca57806323b872dd1461088e578063248a9ca3146108645780632f2ff15d1461083c578063313ce567146107e157806336568abe1461079d57806338d52e0f1461075a578063402d267d146103d55780634cdad5061461073c5780636e553f651461070957806370a082311461030a57806391d14854146106c557806394bf804d1461069257806395d89b4114610590578063a217fddf14610576578063a3b0b5a31461053c578063a9059cbb1461050c578063b3d7f6b9146104ee578063b460af9414610463578063ba087652146103da578063c63d75b6146103d5578063c6e6f592146103b7578063ce96cb7714610380578063d547741f14610344578063d905777e1461030a578063dd62ed3e146102c1578063ebdac090146101ba5763ef8b30f714610192575f80fd5b346101b65760203660031901126101b6576101af60209235610ce7565b9051908152f35b5f80fd5b50346101b65760203660031901126101b6578135917f8f4f2da22e8ac8f11e15f9fc141cddbb5deea8800186560abb6e68c5496619a9805f526005602052825f20335f5260205260ff835f205416156102a65750600260065414610298575060026006556102538230337f00000000000000000000000000000000000000000000000000000000000000006001600160a01b0316611256565b61026761025f83610ce7565b833333611041565b519081527f2acaf92365a0b69fb3570802396f62d51aabccd684036b72c3ce78699425e7ee60203392a26001600655005b9051633ee5aeb560e01b8152fd5b604492519163e2517d3f60e01b835233908301526024820152fd5b50346101b657806003193601126101b6576020906102dd610b59565b6102e5610b6f565b9060018060a01b038091165f5260018452825f2091165f528252805f20549051908152f35b50346101b65760203660031901126101b6576020906101af61032a610b59565b6001600160a01b03165f9081526020819052604090205490565b50346101b657806003193601126101b65761037e91356103796001610367610b6f565b93835f5260056020525f200154610eb9565b610f77565b005b50346101b65760203660031901126101b6576020906001600160a01b036103a5610b59565b165f525f82526101af815f2054610feb565b50346101b65760203660031901126101b6576101af60209235610ce7565b610b85565b50346101b6576103e936610baa565b9291936104068460018060a01b03165f525f60205260405f205490565b80861161042e575050836104289161041f602096610feb565b94859133611102565b51908152f35b9251632e52afbb60e21b81526001600160a01b0390941690840190815260208101949094525060408301529081906060010390fd5b50346101b65761047236610baa565b9291936104976104928560018060a01b03165f525f60205260405f205490565b610feb565b8086116104b957505061042890846104b0602096610ca5565b94859233611102565b9251633fa733bb60e21b81526001600160a01b0390941690840190815260208101949094525060408301529081906060010390fd5b50346101b65760203660031901126101b6576101af60209235611016565b50346101b657806003193601126101b65760209061053561052b610b59565b6024359033610ddf565b5160018152f35b50346101b6575f3660031901126101b657602090517f8f4f2da22e8ac8f11e15f9fc141cddbb5deea8800186560abb6e68c5496619a98152f35b50346101b6575f3660031901126101b657602090515f8152f35b50346101b6575f3660031901126101b6578051905f9280549060018260011c9160018416938415610688575b60209485851081146106755784885290811561065357506001146105fa575b6105f686866105ec828b0383610bdf565b5191829182610b12565b0390f35b5f9081529295507f8a35acfbc15ff81a39ae7d344fd709f28e8600b4aa8c65c6b64bfe7fe36bd19b5b82841061064057505050826105f6946105ec92820101945f6105db565b8054868501880152928601928101610623565b60ff191687860152505050151560051b83010192506105ec826105f65f6105db565b602283634e487b7160e01b5f525260245ffd5b92607f16926105bc565b50346101b657806003193601126101b65760209135906104286106b3610b6f565b926106bd81611016565b809433611041565b50346101b657806003193601126101b6576020916106e1610b6f565b90355f5260058352815f209060018060a01b03165f52825260ff815f20541690519015158152f35b50346101b657806003193601126101b657602091359061042861072a610b6f565b61073384610ce7565b93849133611041565b50346101b65760203660031901126101b6576101af60209235610feb565b50346101b6575f3660031901126101b657517f00000000000000000000000000000000000000000000000000000000000000006001600160a01b03168152602090f35b50346101b657806003193601126101b6576107b6610b6f565b90336001600160a01b038316036107d2575061037e9135610f77565b5163334bd91960e11b81529050fd5b50346101b6575f3660031901126101b65760ff7f0000000000000000000000000000000000000000000000000000000000000000169060ff8211610829576020925051908152f35b601183634e487b7160e01b5f525260245ffd5b50346101b657806003193601126101b65761037e913561085f6001610367610b6f565b610ef9565b50346101b65760203660031901126101b657602091355f52600582526001815f2001549051908152f35b50346101b65760603660031901126101b6576020906105356108ae610b59565b6108b6610b6f565b604435916108c5833383610d12565b610ddf565b50346101b6575f3660031901126101b6576020906002549051908152f35b50346101b65760203660031901126101b6576101af60209235610ca5565b50346101b657806003193601126101b65761091f610b59565b602435903315610998576001600160a01b03169081156109825760209350335f5260018452825f20825f52845280835f205582519081527f8c5be1e5ebec7d5bd14f71427d1e84f3dd0314c0f7b2291e5b200ac8c7c3b925843392a35160018152f35b8251634a1406b160e11b81525f81860152602490fd5b825163e602df0560e01b81525f81860152602490fd5b50346101b6575f3660031901126101b6578051905f9260035460018160011c91600181168015610a98575b6020948585108214610a855750838752908115610a655750600114610a0b575b5050506105ec826105f6940383610bdf565b60035f9081529295507fc2575a0e9e593c00f959f8c92f12db2869c3395a3b0502d05e2516446f71f85b5b828410610a5257505050826105f6946105ec92820101946109f9565b8054868501880152928601928101610a36565b60ff1916868501525050151560051b83010192506105ec826105f66109f9565b602290634e487b7160e01b5f525260245ffd5b92607f16926109d9565b5090346101b65760203660031901126101b6573563ffffffff60e01b81168091036101b657602091637965db0b60e01b8214918215610ae5575b50519015158152f35b6301ffc9a760e01b1491505f610adc565b50346101b6575f3660031901126101b6576020906101af610c15565b602080825282518183018190529093925f5b828110610b4557505060409293505f838284010152601f8019910116010190565b818101860151848201604001528501610b24565b600435906001600160a01b03821682036101b657565b602435906001600160a01b03821682036101b657565b346101b65760203660031901126101b657610b9e610b59565b5060206040515f198152f35b60609060031901126101b657600435906001600160a01b039060243582811681036101b6579160443590811681036101b65790565b90601f8019910116810190811067ffffffffffffffff821117610c0157604052565b634e487b7160e01b5f52604160045260245ffd5b6040516370a0823160e01b81523060048201526020816024817f00000000000000000000000000000000000000000000000000000000000000006001600160a01b03165afa908115610c9a575f91610c6b575090565b90506020813d602011610c92575b81610c8660209383610bdf565b810103126101b6575190565b3d9150610c79565b6040513d5f823e3d90fd5b60025460018101809111610cd357610cbb610c15565b9060018201809211610cd357610cd0926112b1565b90565b634e487b7160e01b5f52601160045260245ffd5b60025460018101809111610cd357610cfd610c15565b9060018201809211610cd357610cd0926113a8565b919060018060a01b0380931692835f526001602052604093845f2091831691825f52602052845f2054925f198403610d4d575b505050505050565b848410610daf57508015610d98578115610d81575f526001602052835f20905f5260205203905f20555f8080808080610d45565b8451634a1406b160e11b81525f6004820152602490fd5b845163e602df0560e01b81525f6004820152602490fd5b8551637dc7a0d960e11b81526001600160a01b039190911660048201526024810184905260448101859052606490fd5b916001600160a01b03808416928315610ea15716928315610e8957825f525f60205260405f205490828210610e575750817fddf252ad1be2c89b69c2b068fc378daa952ba7f163c4a11628f55a4df523b3ef92602092855f525f84520360405f2055845f5260405f20818154019055604051908152a3565b60405163391434e360e21b81526001600160a01b03919091166004820152602481019190915260448101829052606490fd5b60405163ec442f0560e01b81525f6004820152602490fd5b604051634b637e8f60e11b81525f6004820152602490fd5b805f52600560205260405f20335f5260205260ff60405f20541615610edb5750565b6044906040519063e2517d3f60e01b82523360048301526024820152fd5b90815f52600560205260405f209060018060a01b031690815f5260205260ff60405f205416155f14610f7157815f52600560205260405f20815f5260205260405f20600160ff1982541617905533917f2f8788117e7eff1d82e926ec794901d17c78024a50270940304540a733656f0d5f80a4600190565b50505f90565b90815f52600560205260405f209060018060a01b031690815f5260205260ff60405f2054165f14610f7157815f52600560205260405f20815f5260205260405f2060ff19815416905533917ff6391f5c32d9c69d2a47ea670b442974b53935d1edc7fd64eb21e047a839171b5f80a4600190565b610ff3610c15565b60018101809111610cd3576002549060018201809211610cd357610cd0926113a8565b61101e610c15565b60018101809111610cd3576002549060018201809211610cd357610cd0926112b1565b9290926110708330837f0000000000000000000000000000000000000000000000000000000000000000611256565b6001600160a01b03938416938415610e895760025491838301809311610cd3577fdcbc1c05240f31ff3ad067ef1ee35ce4997762752e3a095284754544f4c709d793604093600255865f525f602052835f20818154019055865f7fddf252ad1be2c89b69c2b068fc378daa952ba7f163c4a11628f55a4df523b3ef60208751858152a3835195865260208601521692a3565b6001600160a01b038084169594818316949290919086888703611245575b50508615610ea157865f525f602052604092835f20549087821061121457508690885f525f60205203835f205585600254036002555f877fddf252ad1be2c89b69c2b068fc378daa952ba7f163c4a11628f55a4df523b3ef602086518a8152a382519363a9059cbb60e01b60208601521694856024850152816044850152604484526080840184811067ffffffffffffffff821117610c01577ffbde797d201c681b91056529119e0b02407c7bb96a4a2c75c01fc9667232c8db946112079185527f00000000000000000000000000000000000000000000000000000000000000006112ef565b82519182526020820152a4565b845163391434e360e21b81526001600160a01b03919091166004820152602481019190915260448101879052606490fd5b61124f9185610d12565b5f86611120565b6040516323b872dd60e01b60208201526001600160a01b03928316602482015292909116604483015260648083019390935291815260a081019181831067ffffffffffffffff841117610c01576112af926040526112ef565b565b91906112be8282856113a8565b9282156112db57096112cd5790565b60018101809111610cd35790565b634e487b7160e01b5f52601260045260245ffd5b81516001600160a01b03909116915f91829160200182855af13d1561139c573d67ffffffffffffffff8111610c015761134a916040519161133a6020601f19601f8401160184610bdf565b82523d5f602084013e5b8361143b565b8051908115159182611378575b50506113605750565b60249060405190635274afe760e01b82526004820152fd5b81925090602091810103126101b657602001518015908115036101b6575f80611357565b61134a90606090611344565b9091828202915f198482099383808610950394808603951461142d578483111561141b57829109815f038216809204600280826003021880830282030280830282030280830282030280830282030280830282030280920290030293600183805f03040190848311900302920304170290565b60405163227bc15360e01b8152600490fd5b5050809250156112db570490565b90611462575080511561145057805190602001fd5b604051630a12f52160e11b8152600490fd5b81511580611495575b611473575090565b604051639996b31560e01b81526001600160a01b039091166004820152602490fd5b50803b1561146b56fea26469706673582212209c17bbadc861e1574d14fd220fb157300aa15b065346abf8fa2bbc070527197964736f6c6343000818003305b8ccbb9d4d8fb16ea74ce3c29a41f1b461fbdaff4714a0d9a8eb05499746bc","linkReferences":{}},"methodIdentifiers":{"DEFAULT_ADMIN_ROLE()":"a217fddf","DEPOSITOR_ROLE()":"a3b0b5a3","allowance(address,address)":"dd62ed3e","approve(address,uint256)":"095ea7b3","asset()":"38d52e0f","balanceOf(address)":"70a08231","convertToAssets(uint256)":"07a2d13a","convertToShares(uint256)":"c6e6f592","decimals()":"313ce567","deposit(uint256,address)":"6e553f65","depositFees(uint256)":"ebdac090","getRoleAdmin(bytes32)":"248a9ca3","grantRole(bytes32,address)":"2f2ff15d","hasRole(bytes32,address)":"91d14854","maxDeposit(address)":"402d267d","maxMint(address)":"c63d75b6","maxRedeem(address)":"d905777e","maxWithdraw(address)":"ce96cb77","mint(uint256,address)":"94bf804d","name()":"06fdde03","previewDeposit(uint256)":"ef8b30f7","previewMint(uint256)":"b3d7f6b9","previewRedeem(uint256)":"4cdad506","previewWithdraw(uint256)":"0a28a477","redeem(uint256,address,address)":"ba087652","renounceRole(bytes32,address)":"36568abe","revokeRole(bytes32,address)":"d547741f","supportsInterface(bytes4)":"01ffc9a7","symbol()":"95d89b41","totalAssets()":"01e1d114","totalSupply()":"18160ddd","transfer(address,uint256)":"a9059cbb","transferFrom(address,address,uint256)":"23b872dd","withdraw(uint256,address,address)":"b460af94"},"id":81}